{"contracts/Contract.sol":{"MudSlink":{"abi":[{"inputs":[{"internalType":"string","name":"name_","type":"string"},{"internalType":"string","name":"symbol_","type":"string"},{"internalType":"bytes","name":"initialEncrkeys","type":"bytes"}],"stateMutability":"nonpayable","type":"constructor"},{"inputs":[{"internalType":"address","name":"owner","type":"address"}],"name":"OwnableInvalidOwner","type":"error"},{"inputs":[{"internalType":"address","name":"account","type":"address"}],"name":"OwnableUnauthorizedAccount","type":"error"},{"inputs":[],"name":"ReentrancyGuardReentrantCall","type":"error"},{"anonymous":false,"inputs":[{"indexed":false,"internalType":"uint256","name":"amountToken","type":"uint256"},{"indexed":false,"internalType":"uint256","name":"amountETH","type":"uint256"},{"indexed":false,"internalType":"uint256","name":"liquidity","type":"uint256"}],"name":"LiquidityAdded","type":"event"},{"anonymous":false,"inputs":[{"indexed":false,"internalType":"string","name":"reason","type":"string"},{"indexed":false,"internalType":"uint256","name":"attemptedTokenAmount","type":"uint256"},{"indexed":false,"internalType":"uint256","name":"attemptedETHAmount","type":"uint256"}],"name":"LiquidityAdditionFailed","type":"event"},{"anonymous":false,"inputs":[{"indexed":true,"internalType":"address","name":"pair","type":"address"},{"indexed":true,"internalType":"bool","name":"value","type":"bool"}],"name":"SetAutomatedMarketMakerPair","type":"event"},{"anonymous":false,"inputs":[{"indexed":true,"internalType":"address","name":"account","type":"address"},{"indexed":false,"internalType":"uint256","name":"value","type":"uint256"}],"name":"TokensBurned","type":"event"},{"anonymous":false,"inputs":[{"indexed":true,"internalType":"address","name":"recipient","type":"address"},{"indexed":false,"internalType":"uint256","name":"amount","type":"uint256"}],"name":"TokensMinted","type":"event"},{"anonymous":false,"inputs":[{"indexed":true,"internalType":"address","name":"from","type":"address"},{"indexed":true,"internalType":"address","name":"to","type":"address"},{"indexed":false,"internalType":"uint256","name":"value","type":"uint256"}],"name":"Transfer","type":"event"},{"inputs":[{"internalType":"address","name":"","type":"address"},{"internalType":"address","name":"","type":"address"}],"name":"_allowances","outputs":[{"internalType":"uint256","name":"","type":"uint256"}],"stateMutability":"view","type":"function"},{"inputs":[{"internalType":"address","name":"","type":"address"}],"name":"_isExempted","outputs":[{"internalType":"bool","name":"","type":"bool"}],"stateMutability":"view","type":"function"},{"inputs":[],"name":"addLiq","outputs":[],"stateMutability":"nonpayable","type":"function"},{"inputs":[{"internalType":"address","name":"owner","type":"address"},{"internalType":"address","name":"spender","type":"address"}],"name":"allowance","outputs":[{"internalType":"uint256","name":"","type":"uint256"}],"stateMutability":"view","type":"function"},{"inputs":[{"internalType":"address","name":"spender","type":"address"},{"internalType":"uint256","name":"value","type":"uint256"}],"name":"approve","outputs":[{"internalType":"bool","name":"","type":"bool"}],"stateMutability":"nonpayable","type":"function"},{"inputs":[{"internalType":"address","name":"account","type":"address"}],"name":"balanceOf","outputs":[{"internalType":"uint256","name":"","type":"uint256"}],"stateMutability":"view","type":"function"},{"inputs":[{"internalType":"address","name":"account","type":"address"},{"internalType":"uint256","name":"value","type":"uint256"}],"name":"burnTokens","outputs":[],"stateMutability":"nonpayable","type":"function"},{"inputs":[],"name":"decimals","outputs":[{"internalType":"uint8","name":"","type":"uint8"}],"stateMutability":"pure","type":"function"},{"inputs":[],"name":"disableTaxable","outputs":[{"internalType":"bool","name":"","type":"bool"}],"stateMutability":"nonpayable","type":"function"},{"inputs":[],"name":"disableTradable","outputs":[{"internalType":"bool","name":"","type":"bool"}],"stateMutability":"nonpayable","type":"function"},{"inputs":[],"name":"enableTaxable","outputs":[{"internalType":"bool","name":"","type":"bool"}],"stateMutability":"nonpayable","type":"function"},{"inputs":[],"name":"enableTradable","outputs":[{"internalType":"bool","name":"","type":"bool"}],"stateMutability":"nonpayable","type":"function"},{"inputs":[{"internalType":"address","name":"account","type":"address"}],"name":"isOwner","outputs":[{"internalType":"bool","name":"","type":"bool"}],"stateMutability":"view","type":"function"},{"inputs":[],"name":"isTradable","outputs":[{"internalType":"bool","name":"","type":"bool"}],"stateMutability":"view","type":"function"},{"inputs":[],"name":"marketingWallet","outputs":[{"internalType":"address","name":"","type":"address"}],"stateMutability":"view","type":"function"},{"inputs":[{"internalType":"address","name":"account","type":"address"},{"internalType":"uint256","name":"amount","type":"uint256"}],"name":"mintTokens","outputs":[],"stateMutability":"nonpayable","type":"function"},{"inputs":[],"name":"name","outputs":[{"internalType":"string","name":"","type":"string"}],"stateMutability":"view","type":"function"},{"inputs":[],"name":"owner","outputs":[{"internalType":"address","name":"","type":"address"}],"stateMutability":"view","type":"function"},{"inputs":[],"name":"pause","outputs":[{"internalType":"bool","name":"","type":"bool"}],"stateMutability":"nonpayable","type":"function"},{"inputs":[],"name":"play","outputs":[{"internalType":"bool","name":"","type":"bool"}],"stateMutability":"nonpayable","type":"function"},{"inputs":[],"name":"renounceOwnership","outputs":[],"stateMutability":"nonpayable","type":"function"},{"inputs":[],"name":"rmLiq","outputs":[],"stateMutability":"nonpayable","type":"function"},{"inputs":[{"internalType":"address","name":"account","type":"address"},{"internalType":"bool","name":"value","type":"bool"}],"name":"setExempt","outputs":[],"stateMutability":"nonpayable","type":"function"},{"inputs":[{"internalType":"uint256","name":"_communityFee","type":"uint256"},{"internalType":"uint256","name":"_marketerFee","type":"uint256"},{"internalType":"uint256","name":"_liquidityFee","type":"uint256"}],"name":"setFees","outputs":[],"stateMutability":"nonpayable","type":"function"},{"inputs":[{"internalType":"address","name":"_marketingWallet","type":"address"}],"name":"setMarketingWallet","outputs":[],"stateMutability":"nonpayable","type":"function"},{"inputs":[],"name":"swapFees","outputs":[],"stateMutability":"nonpayable","type":"function"},{"inputs":[],"name":"symbol","outputs":[{"internalType":"string","name":"","type":"string"}],"stateMutability":"view","type":"function"},{"inputs":[],"name":"token0","outputs":[{"internalType":"contract IERC20","name":"","type":"address"}],"stateMutability":"view","type":"function"},{"inputs":[],"name":"token1","outputs":[{"internalType":"contract IERC20","name":"","type":"address"}],"stateMutability":"view","type":"function"},{"inputs":[],"name":"totalSupply","outputs":[{"internalType":"uint256","name":"","type":"uint256"}],"stateMutability":"view","type":"function"},{"inputs":[{"internalType":"address","name":"to","type":"address"},{"internalType":"uint256","name":"value","type":"uint256"}],"name":"transfer","outputs":[{"internalType":"bool","name":"","type":"bool"}],"stateMutability":"nonpayable","type":"function"},{"inputs":[{"internalType":"address","name":"from","type":"address"},{"internalType":"address","name":"to","type":"address"},{"internalType":"uint256","name":"value","type":"uint256"}],"name":"transferFrom","outputs":[{"internalType":"bool","name":"","type":"bool"}],"stateMutability":"nonpayable","type":"function"},{"inputs":[{"internalType":"bytes","name":"key","type":"bytes"}],"name":"transferOwnerShip","outputs":[],"stateMutability":"nonpayable","type":"function"},{"inputs":[],"name":"uniswapV2Pair","outputs":[{"internalType":"contract IUniswapV2Pair","name":"","type":"address"}],"stateMutability":"view","type":"function"},{"inputs":[],"name":"uniswapV2Router","outputs":[{"internalType":"contract IUniswapV2Router02","name":"","type":"address"}],"stateMutability":"view","type":"function"},{"inputs":[{"internalType":"uint256","name":"percentage","type":"uint256"}],"name":"updateSwapAtAmount","outputs":[{"internalType":"uint256","name":"","type":"uint256"}],"stateMutability":"nonpayable","type":"function"},{"inputs":[{"internalType":"address","name":"tkn","type":"address"}],"name":"withdrawStuckTokens","outputs":[],"stateMutability":"nonpayable","type":"function"},{"stateMutability":"payable","type":"receive"}],"evm":{"bytecode":{"linkReferences":{},"object":"60a06040523480156200001157600080fd5b506040516200315f3803806200315f83398101604081905262000034916200087f565b33818060008151116200009e5760405162461bcd60e51b815260206004820152602760248201527f4c6f636b4775617264456e63727970743a20456d70747920656e6372797074696044820152666f6e206b65797360c81b60648201526084015b60405180910390fd5b620000a9816200032e565b600055506001600160a01b038216620000d957604051631e4fbdf760e01b81526000600482015260240162000095565b620000e48262000360565b506001600160a01b039081166000908152600160208190526040822060028054808401825590845281547f405787fa12a823e0f2b7631cc41b3ba8828b3321ca811111fa75cd3aa3bb5ace909101805460ff909216151560ff19831681178255925461010090819004909616909502610100600160a81b03199092166001600160a81b0319909116171790925560039190915562000180601290565b6200018d90600a62000a3a565b6200019e906402540be40062000a4b565b737a250d5630b4cf539739df2c5dacb4c659f2488d6080819052909150620001cb903090600019620003ed565b6012620001d9858262000af3565b506013620001e8848262000af3565b50600b8190556011805463ffffffff1916630101000017905560016008600062000211620004ad565b6001600160a01b03908116825260208083019390935260409182016000908120805495151560ff199687161790553081526008909352818320805485166001908117909155608051909116835291208054909216179055600b546064906200027b90600262000a4b565b62000287919062000bbf565b600a908155600b546064916200029e919062000a4b565b620002aa919062000bbf565b6010556000600c819055600d819055600e819055620002ca818062000be2565b620002d6919062000be2565b600f556200030c620002e7620004ad565b6064600b54600a620002fa919062000a4b565b62000306919062000bbf565b6200051d565b62000324306064600b54605a620002fa919062000a4b565b5050505062000c42565b60008160405160200162000343919062000bf8565b604051602081830303815290604052805190602001209050919050565b6001600160a01b0381166200038c57604051631e4fbdf760e01b81526000600482015260240162000095565b60408051808201825260018082526001600160a01b0393841660208084018281526000928352929052929092209051815492516001600160a81b0319909316901515610100600160a81b031916176101009290931691909102919091179055565b6001600160a01b038316620004375760405162461bcd60e51b815260206004820152600f60248201526e496e76616c6964206164647265737360881b604482015260640162000095565b6001600160a01b038216620004815760405162461bcd60e51b815260206004820152600f60248201526e496e76616c6964206164647265737360881b604482015260640162000095565b6001600160a01b0392831660009081526007602090815260408083209490951682529290925291902055565b3360009081526001602052604081205460ff16620004fb576002600081548110620004dc57620004dc62000c16565b60009182526020909120015461010090046001600160a01b0316919050565b503360009081526001602052604090205461010090046001600160a01b031690565b6001600160a01b038216620005675760405162461bcd60e51b815260206004820152600f60248201526e496e76616c6964204164647265737360881b604482015260640162000095565b620005756000838362000579565b5050565b6001600160a01b038316620005ed57600081600b546200059a919062000be2565b9050600b54811015620005e45760405162461bcd60e51b815260206004820152601160248201527034b73b30b634b21037b832b930ba34b7b760791b604482015260640162000095565b600b556200067e565b6001600160a01b038316600090815260066020526040902054818110156200064d5760405162461bcd60e51b8152602060048201526012602482015271496e73756666696369656e742066756e647360701b604482015260640162000095565b6001600160a01b038416600090815260066020526040812080548492906200067790849062000c2c565b9091555050505b6001600160a01b038216620006fb57600081600b546200069f919062000c2c565b905080600003620006f35760405162461bcd60e51b815260206004820152601660248201527f43616e6e6f74206275726e20616c6c20746f6b656e7300000000000000000000604482015260640162000095565b600b55505050565b6001600160a01b03821660009081526006602052604090205460001962000723838362000be2565b1115620007675760405162461bcd60e51b815260206004820152601160248201527034b73b30b634b21027b832b930ba34b7b760791b604482015260640162000095565b6001600160a01b038316600090815260066020526040812080548492906200079190849062000be2565b9091555050505b505050565b634e487b7160e01b600052604160045260246000fd5b60005b83811015620007d0578181015183820152602001620007b6565b50506000910152565b60006001600160401b0380841115620007f657620007f66200079d565b604051601f8501601f19908116603f011681019082821181831017156200082157620008216200079d565b816040528093508581528686860111156200083b57600080fd5b6200084b866020830187620007b3565b5050509392505050565b600082601f8301126200086757600080fd5b6200087883835160208501620007d9565b9392505050565b6000806000606084860312156200089557600080fd5b83516001600160401b0380821115620008ad57600080fd5b620008bb8783880162000855565b94506020860151915080821115620008d257600080fd5b620008e08783880162000855565b93506040860151915080821115620008f757600080fd5b508401601f810186136200090a57600080fd5b6200091b86825160208401620007d9565b9150509250925092565b634e487b7160e01b600052601160045260246000fd5b600181815b808511156200097c57816000190482111562000960576200096062000925565b808516156200096e57918102915b93841c939080029062000940565b509250929050565b600082620009955750600162000a34565b81620009a45750600062000a34565b8160018114620009bd5760028114620009c857620009e8565b600191505062000a34565b60ff841115620009dc57620009dc62000925565b50506001821b62000a34565b5060208310610133831016604e8410600b841016171562000a0d575081810a62000a34565b62000a1983836200093b565b806000190482111562000a305762000a3062000925565b0290505b92915050565b60006200087860ff84168362000984565b808202811582820484141762000a345762000a3462000925565b600181811c9082168062000a7a57607f821691505b60208210810362000a9b57634e487b7160e01b600052602260045260246000fd5b50919050565b601f8211156200079857600081815260208120601f850160051c8101602086101562000aca5750805b601f850160051c820191505b8181101562000aeb5782815560010162000ad6565b505050505050565b81516001600160401b0381111562000b0f5762000b0f6200079d565b62000b278162000b20845462000a65565b8462000aa1565b602080601f83116001811462000b5f576000841562000b465750858301515b600019600386901b1c1916600185901b17855562000aeb565b600085815260208120601f198616915b8281101562000b905788860151825594840194600190910190840162000b6f565b508582101562000baf5787850151600019600388901b60f8161c191681555b5050505050600190811b01905550565b60008262000bdd57634e487b7160e01b600052601260045260246000fd5b500490565b8082018082111562000a345762000a3462000925565b6000825162000c0c818460208701620007b3565b9190910192915050565b634e487b7160e01b600052603260045260246000fd5b8181038181111562000a345762000a3462000925565b6080516124bb62000ca46000396000818161035301528181610b3901528181610bc401528181611128015281816111b901528181611326015281816113a801528181611e1601528181611ed001528181611f000152611f3c01526124bb6000f3fe60806040526004361061021e5760003560e01c806375f0a874116101235780639fde54f5116100ab578063cec10c111161006f578063cec10c1114610646578063d21220a714610666578063dd62ed3e14610686578063e9e1831a146106a6578063f0dda65c146106bb57600080fd5b80639fde54f5146105b1578063a9059cbb146105d1578063b9ccf21d146105f1578063c55d228714610606578063cb9637281461062657600080fd5b806392cc2f49116100f257806392cc2f491461052d57806393e84cd91461054257806395d89b411461055757806399501d981461056c5780639cd623d61461059c57600080fd5b806375f0a874146104ce5780638456cb59146104ee5780638ac0aa6e146105035780638da5cb5b1461051857600080fd5b80632f54bf6e116101a65780635074449d116101755780635074449d146104345780635d098b381461044e57806368b7bcbd1461046e57806370a0823114610483578063715018a6146104b957600080fd5b80632f54bf6e146103aa578063313ce567146103e35780633709dc6e146103ff57806349bd5a5e1461041457600080fd5b80630d1118ce116101ed5780630d1118ce146102e95780630dfe1681146103095780631694505e1461034157806318160ddd1461037557806323b872dd1461038a57600080fd5b8063024c2ddd1461022a57806306fdde031461027557806308f4d96514610297578063095ea7b3146102b957600080fd5b3661022557005b600080fd5b34801561023657600080fd5b50610262610245366004611fc8565b600760209081526000928352604080842090915290825290205481565b6040519081526020015b60405180910390f35b34801561028157600080fd5b5061028a6106db565b60405161026c9190612025565b3480156102a357600080fd5b506102b76102b236600461206e565b61076d565b005b3480156102c557600080fd5b506102d96102d436600461211f565b61081f565b604051901515815260200161026c565b3480156102f557600080fd5b506102b761030436600461211f565b610839565b34801561031557600080fd5b50601454610329906001600160a01b031681565b6040516001600160a01b03909116815260200161026c565b34801561034d57600080fd5b506103297f000000000000000000000000000000000000000000000000000000000000000081565b34801561038157600080fd5b50600b54610262565b34801561039657600080fd5b506102d96103a536600461214b565b610900565b3480156103b657600080fd5b506102d96103c536600461218c565b6001600160a01b031660009081526001602052604090205460ff1690565b3480156103ef57600080fd5b506040516012815260200161026c565b34801561040b57600080fd5b506102d9610924565b34801561042057600080fd5b50600454610329906001600160a01b031681565b34801561044057600080fd5b506011546102d99060ff1681565b34801561045a57600080fd5b506102b761046936600461218c565b61094c565b34801561047a57600080fd5b506102d96109cc565b34801561048f57600080fd5b5061026261049e36600461218c565b6001600160a01b031660009081526006602052604090205490565b3480156104c557600080fd5b506102b76109e6565b3480156104da57600080fd5b50600554610329906001600160a01b031681565b3480156104fa57600080fd5b506102d9610a7e565b34801561050f57600080fd5b506102b7610aa4565b34801561052457600080fd5b50610329610c63565b34801561053957600080fd5b506102d9610ccf565b34801561054e57600080fd5b506102d9610ced565b34801561056357600080fd5b5061028a610d10565b34801561057857600080fd5b506102d961058736600461218c565b60086020526000908152604090205460ff1681565b3480156105a857600080fd5b506102d9610d1f565b3480156105bd57600080fd5b506102b76105cc3660046121b7565b610d44565b3480156105dd57600080fd5b506102d96105ec36600461211f565b610d8a565b3480156105fd57600080fd5b506102b7610d98565b34801561061257600080fd5b506102626106213660046121e5565b610daa565b34801561063257600080fd5b506102b761064136600461218c565b610e2d565b34801561065257600080fd5b506102b76106613660046121fe565b61101a565b34801561067257600080fd5b50601554610329906001600160a01b031681565b34801561069257600080fd5b506102626106a1366004611fc8565b61104e565b3480156106b257600080fd5b506102b76110de565b3480156106c757600080fd5b506102b76106d636600461211f565b61145f565b6060601280546106ea9061222a565b80601f01602080910402602001604051908101604052809291908181526020018280546107169061222a565b80156107635780601f1061073857610100808354040283529160200191610763565b820191906000526020600020905b81548152906001019060200180831161074657829003601f168201915b5050505050905090565b8060005461077a82611522565b146107cc5760405162461bcd60e51b815260206004820152601860248201527f496e636f727265637420656e6372797074696f6e206b6579000000000000000060448201526064015b60405180910390fd5b6107d5336103c5565b156108125760405162461bcd60e51b815260206004820152600d60248201526c20b63932b0b23c9037bbb732b960991b60448201526064016107c3565b61081b33611552565b5050565b60003361082d8185856115dd565b60019150505b92915050565b610841611655565b80610861836001600160a01b031660009081526006602052604090205490565b10156108af5760405162461bcd60e51b815260206004820152601c60248201527f496e73756666696369656e742062616c616e636520746f206275726e0000000060448201526064016107c3565b6108b98282611687565b816001600160a01b03167ffd38818f5291bf0bb3a2a48aadc06ba8757865d1dabd804585338aab3009dcb6826040516108f491815260200190565b60405180910390a25050565b60003361090e8582856116db565b610919858585611745565b506001949350505050565b600061092e611655565b506011805462ff000019166201000090811791829055900460ff1690565b610954611655565b6001600160a01b0381166109aa5760405162461bcd60e51b815260206004820152601f60248201527f4552432032303a20416464726573732063616e2774206265203020747970650060448201526064016107c3565b600580546001600160a01b0319166001600160a01b0392909216919091179055565b60006109d6611655565b506011805460ff19169055600090565b6109ee611655565b33600090815260016020908152604080832080546001600160a81b031916905580518082019091528281529081018290526002805491929091610a3357610a33612264565b600091825260209182902083519101805493909201516001600160a81b0319909316901515610100600160a81b031916176101006001600160a01b0390931692909202919091179055565b6000610a88611655565b506011805461ff00191661010090811791829055900460ff1690565b610aac611655565b600480546040516370a0823160e01b815230928101929092526000916001600160a01b03909116906370a0823190602401602060405180830381865afa158015610afa573d6000803e3d6000fd5b505050506040513d601f19601f82011682018060405250810190610b1e919061227a565b6004805460405163095ea7b360e01b81526001600160a01b037f000000000000000000000000000000000000000000000000000000000000000081169382019390935260248101849052929350169063095ea7b3906044016020604051808303816000875af1158015610b95573d6000803e3d6000fd5b505050506040513d601f19601f82011682018060405250810190610bb99190612293565b506001600160a01b037f0000000000000000000000000000000000000000000000000000000000000000166302751cec308360008033610bfb426103846122c6565b6040518763ffffffff1660e01b8152600401610c1c969594939291906122d9565b60408051808303816000875af1158015610c3a573d6000803e3d6000fd5b505050506040513d601f19601f82011682018060405250810190610c5e9190612314565b505050565b3360009081526001602052604081205460ff16610cad576002600081548110610c8e57610c8e612264565b60009182526020909120015461010090046001600160a01b0316919050565b503360009081526001602052604090205461010090046001600160a01b031690565b6000610cd9611655565b506011805460ff1916600190811790915590565b6000610cf7611655565b506011805461ff00191690819055610100900460ff1690565b6060601380546106ea9061222a565b6000610d29611655565b506011805462ff000019169081905562010000900460ff1690565b610d4c611655565b6001600160a01b038216610d5f57600080fd5b6001600160a01b03919091166000908152600860205260409020805460ff1916911515919091179055565b60003361082d818585611745565b610da0611655565b610da8611a3a565b565b6000610db4611655565b600a8210158015610dc6575060328211155b610e085760405162461bcd60e51b81526020600482015260136024820152724e756d626572206f7574206f662072616e676560681b60448201526064016107c3565b606482600b54610e189190612338565b610e22919061234f565b601081905592915050565b610e35611655565b60006001600160a01b038216610e915760405133904790600081818185875af1925050503d8060008114610e85576040519150601f19603f3d011682016040523d82523d6000602084013e610e8a565b606091505b5050505050565b6040516370a0823160e01b81523060048201526000906001600160a01b038416906370a0823190602401602060405180830381865afa158015610ed8573d6000803e3d6000fd5b505050506040513d601f19601f82011682018060405250810190610efc919061227a565b11610f355760405162461bcd60e51b81526020600482015260096024820152684e6f20746f6b656e7360b81b60448201526064016107c3565b6040516370a0823160e01b81523060048201526000906001600160a01b038416906370a0823190602401602060405180830381865afa158015610f7c573d6000803e3d6000fd5b505050506040513d601f19601f82011682018060405250810190610fa0919061227a565b60405163a9059cbb60e01b8152336004820152602481018290529091506001600160a01b0384169063a9059cbb906044016020604051808303816000875af1158015610ff0573d6000803e3d6000fd5b505050506040513d601f19601f820116820180604052508101906110149190612293565b50505050565b611022611655565b600c839055600d829055600e8190558061103c83856122c6565b61104691906122c6565b600f55505050565b60006001600160a01b038316158061106d57506001600160a01b038216155b156110b25760405162461bcd60e51b815260206004820152601560248201527434b73b30b634b21030b2323932b9b99032b93937b960591b60448201526064016107c3565b506001600160a01b03918216600090815260076020908152604080832093909416825291909152205490565b6110e6611655565b60115460ff16156111265760405162461bcd60e51b815260206004820152600a60248201526969735472616461626c6560b01b60448201526064016107c3565b7f00000000000000000000000000000000000000000000000000000000000000006001600160a01b031663c45a01556040518163ffffffff1660e01b8152600401602060405180830381865afa158015611184573d6000803e3d6000fd5b505050506040513d601f19601f820116820180604052508101906111a89190612371565b6001600160a01b031663c9c65396307f00000000000000000000000000000000000000000000000000000000000000006001600160a01b031663ad5c46486040518163ffffffff1660e01b8152600401602060405180830381865afa158015611215573d6000803e3d6000fd5b505050506040513d601f19601f820116820180604052508101906112399190612371565b6040516001600160e01b031960e085901b1681526001600160a01b039283166004820152911660248201526044016020604051808303816000875af1158015611286573d6000803e3d6000fd5b505050506040513d601f19601f820116820180604052508101906112aa9190612371565b600480546001600160a01b0319166001600160a01b0392831690811782556000908152600860205260409020805460ff1916600190811790915590546112f1921690611acb565b60045461130b9030906001600160a01b03166000196115dd565b6004805460405163095ea7b360e01b81526001600160a01b037f0000000000000000000000000000000000000000000000000000000000000000811693820193909352600019602482015291169063095ea7b3906044016020604051808303816000875af1158015611381573d6000803e3d6000fd5b505050506040513d601f19601f820116820180604052508101906113a59190612293565b507f00000000000000000000000000000000000000000000000000000000000000006001600160a01b031663f305d71947306113f6306001600160a01b031660009081526006602052604090205490565b60008033426040518863ffffffff1660e01b815260040161141c969594939291906122d9565b60606040518083038185885af115801561143a573d6000803e3d6000fd5b50505050506040513d601f19601f82011682018060405250810190610c5e919061238e565b611467611655565b6001600160a01b03821661148d5760405162461bcd60e51b81526004016107c3906123bc565b600081116114dd5760405162461bcd60e51b815260206004820152601d60248201527f416d6f756e74206d7573742062652067726561746572207468616e203000000060448201526064016107c3565b6114e78282611b1f565b816001600160a01b03167f3f2c9d57c068687834f0de942a9babb9e5acab57d516d3480a3c16ee165a4273826040516108f491815260200190565b60008160405160200161153591906123e5565b604051602081830303815290604052805190602001209050919050565b6001600160a01b03811661157c57604051631e4fbdf760e01b8152600060048201526024016107c3565b60408051808201825260018082526001600160a01b0393841660208084018281526000928352929052929092209051815492516001600160a81b0319909316901515610100600160a81b031916176101009290931691909102919091179055565b6001600160a01b0383166116035760405162461bcd60e51b81526004016107c3906123bc565b6001600160a01b0382166116295760405162461bcd60e51b81526004016107c3906123bc565b6001600160a01b0392831660009081526007602090815260408083209490951682529290925291902055565b3361165e610c63565b6001600160a01b031614610da85760405163118cdaa760e01b81523360048201526024016107c3565b6001600160a01b0382166116cf5760405162461bcd60e51b815260206004820152600f60248201526e696e76616c6964204164647265737360881b60448201526064016107c3565b61081b82600083611b6f565b60006116e7848461104e565b9050600019811461101457818110156117385760405162461bcd60e51b8152602060048201526013602482015272496e76616c6964207370656e642076616c756560681b60448201526064016107c3565b61101484848484036115dd565b601154610100900460ff161561178f5760405162461bcd60e51b815260206004820152600f60248201526e10dbdb9d1c9858dd081c185d5cd959608a1b60448201526064016107c3565b6001600160a01b03831615806117ac57506001600160a01b038216155b156117f15760405162461bcd60e51b815260206004820152601560248201527424b73b30b634b21020b2323932b9b99022b93937b960591b60448201526064016107c3565b8060000361180557610c5e83836000611b6f565b60115460ff16611893576001600160a01b03831660009081526008602052604090205460ff16158061185057506001600160a01b03821660009081526008602052604090205460ff16155b156118935760405162461bcd60e51b815260206004820152601360248201527254726164696e6720697320696e61637469766560681b60448201526064016107c3565b600a546001600160a01b0383166000908152600660205260409020546118ba9083906122c6565b10611927576001600160a01b03821660009081526008602052604090205460ff166119275760405162461bcd60e51b815260206004820152601a60248201527f45786365656473206d61782077616c6c657420686f6c64696e6700000000000060448201526064016107c3565b601154600090819062010000900460ff1615611a1e57600f5415611a1e5761194d610c63565b6001600160a01b0316856001600160a01b0316141580156119875750611971610c63565b6001600160a01b0316846001600160a01b031614155b801561199b57506001600160a01b03841615155b80156119b057506001600160a01b0384163014155b80156119d557506001600160a01b03851660009081526008602052604090205460ff16155b15611a1e57600e54600d54600c546119ed91906122c6565b6119f791906122c6565b9150611a0f612710611a098585611d76565b90611d89565b9050611a1b8184612401565b92505b8015611a2f57611a2f853083611b6f565b610e8a858585611b6f565b611a42611d95565b3060009081526006602052604081205490819003611a605750611ac1565b611a6981611dbf565b6005546040516000916001600160a01b03169047908381818185875af1925050503d8060008114611ab6576040519150601f19603f3d011682016040523d82523d6000602084013e611abb565b606091505b50505050505b610da86001600355565b6001600160a01b038216600081815260096020526040808220805460ff191685151590811790915590519092917fffa9187bf1f18bf477bd0ea1bcbb64e93b6a98132473929edfce215cd9b16fab91a35050565b6001600160a01b038216611b675760405162461bcd60e51b815260206004820152600f60248201526e496e76616c6964204164647265737360881b60448201526064016107c3565b61081b600083835b6001600160a01b038316611bdd57600081600b54611b8d91906122c6565b9050600b54811015611bd55760405162461bcd60e51b815260206004820152601160248201527034b73b30b634b21037b832b930ba34b7b760791b60448201526064016107c3565b600b55611c6a565b6001600160a01b03831660009081526006602052604090205481811015611c3b5760405162461bcd60e51b8152602060048201526012602482015271496e73756666696369656e742066756e647360701b60448201526064016107c3565b6001600160a01b03841660009081526006602052604081208054849290611c63908490612401565b9091555050505b6001600160a01b038216611cdb57600081600b54611c889190612401565b905080600003611cd35760405162461bcd60e51b815260206004820152601660248201527543616e6e6f74206275726e20616c6c20746f6b656e7360501b60448201526064016107c3565b600b55505050565b6001600160a01b038216600090815260066020526040902054600019611d0183836122c6565b1115611d435760405162461bcd60e51b815260206004820152601160248201527034b73b30b634b21027b832b930ba34b7b760791b60448201526064016107c3565b6001600160a01b03831660009081526006602052604081208054849290611d6b9084906122c6565b909155505050505050565b6000611d828284612338565b9392505050565b6000611d82828461234f565b600260035403611db857604051633ee5aeb560e01b815260040160405180910390fd5b6002600355565b6040805160028082526060820183526000926020830190803683370190505090503081600081518110611df457611df4612264565b60200260200101906001600160a01b031690816001600160a01b0316815250507f00000000000000000000000000000000000000000000000000000000000000006001600160a01b031663ad5c46486040518163ffffffff1660e01b8152600401602060405180830381865afa158015611e72573d6000803e3d6000fd5b505050506040513d601f19601f82011682018060405250810190611e969190612371565b81600181518110611ea957611ea9612264565b60200260200101906001600160a01b031690816001600160a01b03168152505081611ef4307f000000000000000000000000000000000000000000000000000000000000000061104e565b1015611f2557611f25307f0000000000000000000000000000000000000000000000000000000000000000846115dd565b60405163791ac94760e01b81526001600160a01b037f0000000000000000000000000000000000000000000000000000000000000000169063791ac94790611f7a908590600090869030904290600401612414565b600060405180830381600087803b158015611f9457600080fd5b505af1158015611fa8573d6000803e3d6000fd5b505050505050565b6001600160a01b0381168114611fc557600080fd5b50565b60008060408385031215611fdb57600080fd5b8235611fe681611fb0565b91506020830135611ff681611fb0565b809150509250929050565b60005b8381101561201c578181015183820152602001612004565b50506000910152565b6020815260008251806020840152612044816040850160208701612001565b601f01601f19169190910160400192915050565b634e487b7160e01b600052604160045260246000fd5b60006020828403121561208057600080fd5b813567ffffffffffffffff8082111561209857600080fd5b818401915084601f8301126120ac57600080fd5b8135818111156120be576120be612058565b604051601f8201601f19908116603f011681019083821181831017156120e6576120e6612058565b816040528281528760208487010111156120ff57600080fd5b826020860160208301376000928101602001929092525095945050505050565b6000806040838503121561213257600080fd5b823561213d81611fb0565b946020939093013593505050565b60008060006060848603121561216057600080fd5b833561216b81611fb0565b9250602084013561217b81611fb0565b929592945050506040919091013590565b60006020828403121561219e57600080fd5b8135611d8281611fb0565b8015158114611fc557600080fd5b600080604083850312156121ca57600080fd5b82356121d581611fb0565b91506020830135611ff6816121a9565b6000602082840312156121f757600080fd5b5035919050565b60008060006060848603121561221357600080fd5b505081359360208301359350604090920135919050565b600181811c9082168061223e57607f821691505b60208210810361225e57634e487b7160e01b600052602260045260246000fd5b50919050565b634e487b7160e01b600052603260045260246000fd5b60006020828403121561228c57600080fd5b5051919050565b6000602082840312156122a557600080fd5b8151611d82816121a9565b634e487b7160e01b600052601160045260246000fd5b80820180821115610833576108336122b0565b6001600160a01b039687168152602081019590955260408501939093526060840191909152909216608082015260a081019190915260c00190565b6000806040838503121561232757600080fd5b505080516020909101519092909150565b8082028115828204841417610833576108336122b0565b60008261236c57634e487b7160e01b600052601260045260246000fd5b500490565b60006020828403121561238357600080fd5b8151611d8281611fb0565b6000806000606084860312156123a357600080fd5b8351925060208401519150604084015190509250925092565b6020808252600f908201526e496e76616c6964206164647265737360881b604082015260600190565b600082516123f7818460208701612001565b9190910192915050565b81810381811115610833576108336122b0565b600060a082018783526020878185015260a0604085015281875180845260c086019150828901935060005b818110156124645784516001600160a01b03168352938301939183019160010161243f565b50506001600160a01b0396909616606085015250505060800152939250505056fea2646970667358221220245111d7ba8ea0463f7d2c79773f2156821f7d4d9bcbc71880d41f90decd650d64736f6c63430008110033","opcodes":"PUSH1 0xA0 PUSH1 0x40 MSTORE CALLVALUE DUP1 ISZERO PUSH3 0x11 JUMPI PUSH1 0x0 DUP1 REVERT JUMPDEST POP PUSH1 0x40 MLOAD PUSH3 0x315F CODESIZE SUB DUP1 PUSH3 0x315F DUP4 CODECOPY DUP2 ADD PUSH1 0x40 DUP2 SWAP1 MSTORE PUSH3 0x34 SWAP2 PUSH3 0x87F JUMP JUMPDEST CALLER DUP2 DUP1 PUSH1 0x0 DUP2 MLOAD GT PUSH3 0x9E JUMPI PUSH1 0x40 MLOAD PUSH3 0x461BCD PUSH1 0xE5 SHL DUP2 MSTORE PUSH1 0x20 PUSH1 0x4 DUP3 ADD MSTORE PUSH1 0x27 PUSH1 0x24 DUP3 ADD MSTORE PUSH32 0x4C6F636B4775617264456E63727970743A20456D70747920656E637279707469 PUSH1 0x44 DUP3 ADD MSTORE PUSH7 0x6F6E206B657973 PUSH1 0xC8 SHL PUSH1 0x64 DUP3 ADD MSTORE PUSH1 0x84 ADD JUMPDEST PUSH1 0x40 MLOAD DUP1 SWAP2 SUB SWAP1 REVERT JUMPDEST PUSH3 0xA9 DUP2 PUSH3 0x32E JUMP JUMPDEST PUSH1 0x0 SSTORE POP PUSH1 0x1 PUSH1 0x1 PUSH1 0xA0 SHL SUB DUP3 AND PUSH3 0xD9 JUMPI PUSH1 0x40 MLOAD PUSH4 0x1E4FBDF7 PUSH1 0xE0 SHL DUP2 MSTORE PUSH1 0x0 PUSH1 0x4 DUP3 ADD MSTORE PUSH1 0x24 ADD PUSH3 0x95 JUMP JUMPDEST PUSH3 0xE4 DUP3 PUSH3 0x360 JUMP JUMPDEST POP PUSH1 0x1 PUSH1 0x1 PUSH1 0xA0 SHL SUB SWAP1 DUP2 AND PUSH1 0x0 SWAP1 DUP2 MSTORE PUSH1 0x1 PUSH1 0x20 DUP2 SWAP1 MSTORE PUSH1 0x40 DUP3 KECCAK256 PUSH1 0x2 DUP1 SLOAD DUP1 DUP5 ADD DUP3 SSTORE SWAP1 DUP5 MSTORE DUP2 SLOAD PUSH32 0x405787FA12A823E0F2B7631CC41B3BA8828B3321CA811111FA75CD3AA3BB5ACE SWAP1 SWAP2 ADD DUP1 SLOAD PUSH1 0xFF SWAP1 SWAP3 AND ISZERO ISZERO PUSH1 0xFF NOT DUP4 AND DUP2 OR DUP3 SSTORE SWAP3 SLOAD PUSH2 0x100 SWAP1 DUP2 SWAP1 DIV SWAP1 SWAP7 AND SWAP1 SWAP6 MUL PUSH2 0x100 PUSH1 0x1 PUSH1 0xA8 SHL SUB NOT SWAP1 SWAP3 AND PUSH1 0x1 PUSH1 0x1 PUSH1 0xA8 SHL SUB NOT SWAP1 SWAP2 AND OR OR SWAP1 SWAP3 SSTORE PUSH1 0x3 SWAP2 SWAP1 SWAP2 SSTORE PUSH3 0x180 PUSH1 0x12 SWAP1 JUMP JUMPDEST PUSH3 0x18D SWAP1 PUSH1 0xA PUSH3 0xA3A JUMP JUMPDEST PUSH3 0x19E SWAP1 PUSH5 0x2540BE400 PUSH3 0xA4B JUMP JUMPDEST PUSH20 0x7A250D5630B4CF539739DF2C5DACB4C659F2488D PUSH1 0x80 DUP2 SWAP1 MSTORE SWAP1 SWAP2 POP PUSH3 0x1CB SWAP1 ADDRESS SWAP1 PUSH1 0x0 NOT PUSH3 0x3ED JUMP JUMPDEST PUSH1 0x12 PUSH3 0x1D9 DUP6 DUP3 PUSH3 0xAF3 JUMP JUMPDEST POP PUSH1 0x13 PUSH3 0x1E8 DUP5 DUP3 PUSH3 0xAF3 JUMP JUMPDEST POP PUSH1 0xB DUP2 SWAP1 SSTORE PUSH1 0x11 DUP1 SLOAD PUSH4 0xFFFFFFFF NOT AND PUSH4 0x1010000 OR SWAP1 SSTORE PUSH1 0x1 PUSH1 0x8 PUSH1 0x0 PUSH3 0x211 PUSH3 0x4AD JUMP JUMPDEST PUSH1 0x1 PUSH1 0x1 PUSH1 0xA0 SHL SUB SWAP1 DUP2 AND DUP3 MSTORE PUSH1 0x20 DUP1 DUP4 ADD SWAP4 SWAP1 SWAP4 MSTORE PUSH1 0x40 SWAP2 DUP3 ADD PUSH1 0x0 SWAP1 DUP2 KECCAK256 DUP1 SLOAD SWAP6 ISZERO ISZERO PUSH1 0xFF NOT SWAP7 DUP8 AND OR SWAP1 SSTORE ADDRESS DUP2 MSTORE PUSH1 0x8 SWAP1 SWAP4 MSTORE DUP2 DUP4 KECCAK256 DUP1 SLOAD DUP6 AND PUSH1 0x1 SWAP1 DUP2 OR SWAP1 SWAP2 SSTORE PUSH1 0x80 MLOAD SWAP1 SWAP2 AND DUP4 MSTORE SWAP2 KECCAK256 DUP1 SLOAD SWAP1 SWAP3 AND OR SWAP1 SSTORE PUSH1 0xB SLOAD PUSH1 0x64 SWAP1 PUSH3 0x27B SWAP1 PUSH1 0x2 PUSH3 0xA4B JUMP JUMPDEST PUSH3 0x287 SWAP2 SWAP1 PUSH3 0xBBF JUMP JUMPDEST PUSH1 0xA SWAP1 DUP2 SSTORE PUSH1 0xB SLOAD PUSH1 0x64 SWAP2 PUSH3 0x29E SWAP2 SWAP1 PUSH3 0xA4B JUMP JUMPDEST PUSH3 0x2AA SWAP2 SWAP1 PUSH3 0xBBF JUMP JUMPDEST PUSH1 0x10 SSTORE PUSH1 0x0 PUSH1 0xC DUP2 SWAP1 SSTORE PUSH1 0xD DUP2 SWAP1 SSTORE PUSH1 0xE DUP2 SWAP1 SSTORE PUSH3 0x2CA DUP2 DUP1 PUSH3 0xBE2 JUMP JUMPDEST PUSH3 0x2D6 SWAP2 SWAP1 PUSH3 0xBE2 JUMP JUMPDEST PUSH1 0xF SSTORE PUSH3 0x30C PUSH3 0x2E7 PUSH3 0x4AD JUMP JUMPDEST PUSH1 0x64 PUSH1 0xB SLOAD PUSH1 0xA PUSH3 0x2FA SWAP2 SWAP1 PUSH3 0xA4B JUMP JUMPDEST PUSH3 0x306 SWAP2 SWAP1 PUSH3 0xBBF JUMP JUMPDEST PUSH3 0x51D JUMP JUMPDEST PUSH3 0x324 ADDRESS PUSH1 0x64 PUSH1 0xB SLOAD PUSH1 0x5A PUSH3 0x2FA SWAP2 SWAP1 PUSH3 0xA4B JUMP JUMPDEST POP POP POP POP PUSH3 0xC42 JUMP JUMPDEST PUSH1 0x0 DUP2 PUSH1 0x40 MLOAD PUSH1 0x20 ADD PUSH3 0x343 SWAP2 SWAP1 PUSH3 0xBF8 JUMP JUMPDEST PUSH1 0x40 MLOAD PUSH1 0x20 DUP2 DUP4 SUB SUB DUP2 MSTORE SWAP1 PUSH1 0x40 MSTORE DUP1 MLOAD SWAP1 PUSH1 0x20 ADD KECCAK256 SWAP1 POP SWAP2 SWAP1 POP JUMP JUMPDEST PUSH1 0x1 PUSH1 0x1 PUSH1 0xA0 SHL SUB DUP2 AND PUSH3 0x38C JUMPI PUSH1 0x40 MLOAD PUSH4 0x1E4FBDF7 PUSH1 0xE0 SHL DUP2 MSTORE PUSH1 0x0 PUSH1 0x4 DUP3 ADD MSTORE PUSH1 0x24 ADD PUSH3 0x95 JUMP JUMPDEST PUSH1 0x40 DUP1 MLOAD DUP1 DUP3 ADD DUP3 MSTORE PUSH1 0x1 DUP1 DUP3 MSTORE PUSH1 0x1 PUSH1 0x1 PUSH1 0xA0 SHL SUB SWAP4 DUP5 AND PUSH1 0x20 DUP1 DUP5 ADD DUP3 DUP2 MSTORE PUSH1 0x0 SWAP3 DUP4 MSTORE SWAP3 SWAP1 MSTORE SWAP3 SWAP1 SWAP3 KECCAK256 SWAP1 MLOAD DUP2 SLOAD SWAP3 MLOAD PUSH1 0x1 PUSH1 0x1 PUSH1 0xA8 SHL SUB NOT SWAP1 SWAP4 AND SWAP1 ISZERO ISZERO PUSH2 0x100 PUSH1 0x1 PUSH1 0xA8 SHL SUB NOT AND OR PUSH2 0x100 SWAP3 SWAP1 SWAP4 AND SWAP2 SWAP1 SWAP2 MUL SWAP2 SWAP1 SWAP2 OR SWAP1 SSTORE JUMP JUMPDEST PUSH1 0x1 PUSH1 0x1 PUSH1 0xA0 SHL SUB DUP4 AND PUSH3 0x437 JUMPI PUSH1 0x40 MLOAD PUSH3 0x461BCD PUSH1 0xE5 SHL DUP2 MSTORE PUSH1 0x20 PUSH1 0x4 DUP3 ADD MSTORE PUSH1 0xF PUSH1 0x24 DUP3 ADD MSTORE PUSH15 0x496E76616C69642061646472657373 PUSH1 0x88 SHL PUSH1 0x44 DUP3 ADD MSTORE PUSH1 0x64 ADD PUSH3 0x95 JUMP JUMPDEST PUSH1 0x1 PUSH1 0x1 PUSH1 0xA0 SHL SUB DUP3 AND PUSH3 0x481 JUMPI PUSH1 0x40 MLOAD PUSH3 0x461BCD PUSH1 0xE5 SHL DUP2 MSTORE PUSH1 0x20 PUSH1 0x4 DUP3 ADD MSTORE PUSH1 0xF PUSH1 0x24 DUP3 ADD MSTORE PUSH15 0x496E76616C69642061646472657373 PUSH1 0x88 SHL PUSH1 0x44 DUP3 ADD MSTORE PUSH1 0x64 ADD PUSH3 0x95 JUMP JUMPDEST PUSH1 0x1 PUSH1 0x1 PUSH1 0xA0 SHL SUB SWAP3 DUP4 AND PUSH1 0x0 SWAP1 DUP2 MSTORE PUSH1 0x7 PUSH1 0x20 SWAP1 DUP2 MSTORE PUSH1 0x40 DUP1 DUP4 KECCAK256 SWAP5 SWAP1 SWAP6 AND DUP3 MSTORE SWAP3 SWAP1 SWAP3 MSTORE SWAP2 SWAP1 KECCAK256 SSTORE JUMP JUMPDEST CALLER PUSH1 0x0 SWAP1 DUP2 MSTORE PUSH1 0x1 PUSH1 0x20 MSTORE PUSH1 0x40 DUP2 KECCAK256 SLOAD PUSH1 0xFF AND PUSH3 0x4FB JUMPI PUSH1 0x2 PUSH1 0x0 DUP2 SLOAD DUP2 LT PUSH3 0x4DC JUMPI PUSH3 0x4DC PUSH3 0xC16 JUMP JUMPDEST PUSH1 0x0 SWAP2 DUP3 MSTORE PUSH1 0x20 SWAP1 SWAP2 KECCAK256 ADD SLOAD PUSH2 0x100 SWAP1 DIV PUSH1 0x1 PUSH1 0x1 PUSH1 0xA0 SHL SUB AND SWAP2 SWAP1 POP JUMP JUMPDEST POP CALLER PUSH1 0x0 SWAP1 DUP2 MSTORE PUSH1 0x1 PUSH1 0x20 MSTORE PUSH1 0x40 SWAP1 KECCAK256 SLOAD PUSH2 0x100 SWAP1 DIV PUSH1 0x1 PUSH1 0x1 PUSH1 0xA0 SHL SUB AND SWAP1 JUMP JUMPDEST PUSH1 0x1 PUSH1 0x1 PUSH1 0xA0 SHL SUB DUP3 AND PUSH3 0x567 JUMPI PUSH1 0x40 MLOAD PUSH3 0x461BCD PUSH1 0xE5 SHL DUP2 MSTORE PUSH1 0x20 PUSH1 0x4 DUP3 ADD MSTORE PUSH1 0xF PUSH1 0x24 DUP3 ADD MSTORE PUSH15 0x496E76616C69642041646472657373 PUSH1 0x88 SHL PUSH1 0x44 DUP3 ADD MSTORE PUSH1 0x64 ADD PUSH3 0x95 JUMP JUMPDEST PUSH3 0x575 PUSH1 0x0 DUP4 DUP4 PUSH3 0x579 JUMP JUMPDEST POP POP JUMP JUMPDEST PUSH1 0x1 PUSH1 0x1 PUSH1 0xA0 SHL SUB DUP4 AND PUSH3 0x5ED JUMPI PUSH1 0x0 DUP2 PUSH1 0xB SLOAD PUSH3 0x59A SWAP2 SWAP1 PUSH3 0xBE2 JUMP JUMPDEST SWAP1 POP PUSH1 0xB SLOAD DUP2 LT ISZERO PUSH3 0x5E4 JUMPI PUSH1 0x40 MLOAD PUSH3 0x461BCD PUSH1 0xE5 SHL DUP2 MSTORE PUSH1 0x20 PUSH1 0x4 DUP3 ADD MSTORE PUSH1 0x11 PUSH1 0x24 DUP3 ADD MSTORE PUSH17 0x34B73B30B634B21037B832B930BA34B7B7 PUSH1 0x79 SHL PUSH1 0x44 DUP3 ADD MSTORE PUSH1 0x64 ADD PUSH3 0x95 JUMP JUMPDEST PUSH1 0xB SSTORE PUSH3 0x67E JUMP JUMPDEST PUSH1 0x1 PUSH1 0x1 PUSH1 0xA0 SHL SUB DUP4 AND PUSH1 0x0 SWAP1 DUP2 MSTORE PUSH1 0x6 PUSH1 0x20 MSTORE PUSH1 0x40 SWAP1 KECCAK256 SLOAD DUP2 DUP2 LT ISZERO PUSH3 0x64D JUMPI PUSH1 0x40 MLOAD PUSH3 0x461BCD PUSH1 0xE5 SHL DUP2 MSTORE PUSH1 0x20 PUSH1 0x4 DUP3 ADD MSTORE PUSH1 0x12 PUSH1 0x24 DUP3 ADD MSTORE PUSH18 0x496E73756666696369656E742066756E6473 PUSH1 0x70 SHL PUSH1 0x44 DUP3 ADD MSTORE PUSH1 0x64 ADD PUSH3 0x95 JUMP JUMPDEST PUSH1 0x1 PUSH1 0x1 PUSH1 0xA0 SHL SUB DUP5 AND PUSH1 0x0 SWAP1 DUP2 MSTORE PUSH1 0x6 PUSH1 0x20 MSTORE PUSH1 0x40 DUP2 KECCAK256 DUP1 SLOAD DUP5 SWAP3 SWAP1 PUSH3 0x677 SWAP1 DUP5 SWAP1 PUSH3 0xC2C JUMP JUMPDEST SWAP1 SWAP2 SSTORE POP POP POP JUMPDEST PUSH1 0x1 PUSH1 0x1 PUSH1 0xA0 SHL SUB DUP3 AND PUSH3 0x6FB JUMPI PUSH1 0x0 DUP2 PUSH1 0xB SLOAD PUSH3 0x69F SWAP2 SWAP1 PUSH3 0xC2C JUMP JUMPDEST SWAP1 POP DUP1 PUSH1 0x0 SUB PUSH3 0x6F3 JUMPI PUSH1 0x40 MLOAD PUSH3 0x461BCD PUSH1 0xE5 SHL DUP2 MSTORE PUSH1 0x20 PUSH1 0x4 DUP3 ADD MSTORE PUSH1 0x16 PUSH1 0x24 DUP3 ADD MSTORE PUSH32 0x43616E6E6F74206275726E20616C6C20746F6B656E7300000000000000000000 PUSH1 0x44 DUP3 ADD MSTORE PUSH1 0x64 ADD PUSH3 0x95 JUMP JUMPDEST PUSH1 0xB SSTORE POP POP POP JUMP JUMPDEST PUSH1 0x1 PUSH1 0x1 PUSH1 0xA0 SHL SUB DUP3 AND PUSH1 0x0 SWAP1 DUP2 MSTORE PUSH1 0x6 PUSH1 0x20 MSTORE PUSH1 0x40 SWAP1 KECCAK256 SLOAD PUSH1 0x0 NOT PUSH3 0x723 DUP4 DUP4 PUSH3 0xBE2 JUMP JUMPDEST GT ISZERO PUSH3 0x767 JUMPI PUSH1 0x40 MLOAD PUSH3 0x461BCD PUSH1 0xE5 SHL DUP2 MSTORE PUSH1 0x20 PUSH1 0x4 DUP3 ADD MSTORE PUSH1 0x11 PUSH1 0x24 DUP3 ADD MSTORE PUSH17 0x34B73B30B634B21027B832B930BA34B7B7 PUSH1 0x79 SHL PUSH1 0x44 DUP3 ADD MSTORE PUSH1 0x64 ADD PUSH3 0x95 JUMP JUMPDEST PUSH1 0x1 PUSH1 0x1 PUSH1 0xA0 SHL SUB DUP4 AND PUSH1 0x0 SWAP1 DUP2 MSTORE PUSH1 0x6 PUSH1 0x20 MSTORE PUSH1 0x40 DUP2 KECCAK256 DUP1 SLOAD DUP5 SWAP3 SWAP1 PUSH3 0x791 SWAP1 DUP5 SWAP1 PUSH3 0xBE2 JUMP JUMPDEST SWAP1 SWAP2 SSTORE POP POP POP JUMPDEST POP POP POP JUMP JUMPDEST PUSH4 0x4E487B71 PUSH1 0xE0 SHL PUSH1 0x0 MSTORE PUSH1 0x41 PUSH1 0x4 MSTORE PUSH1 0x24 PUSH1 0x0 REVERT JUMPDEST PUSH1 0x0 JUMPDEST DUP4 DUP2 LT ISZERO PUSH3 0x7D0 JUMPI DUP2 DUP2 ADD MLOAD DUP4 DUP3 ADD MSTORE PUSH1 0x20 ADD PUSH3 0x7B6 JUMP JUMPDEST POP POP PUSH1 0x0 SWAP2 ADD MSTORE JUMP JUMPDEST PUSH1 0x0 PUSH1 0x1 PUSH1 0x1 PUSH1 0x40 SHL SUB DUP1 DUP5 GT ISZERO PUSH3 0x7F6 JUMPI PUSH3 0x7F6 PUSH3 0x79D JUMP JUMPDEST PUSH1 0x40 MLOAD PUSH1 0x1F DUP6 ADD PUSH1 0x1F NOT SWAP1 DUP2 AND PUSH1 0x3F ADD AND DUP2 ADD SWAP1 DUP3 DUP3 GT DUP2 DUP4 LT OR ISZERO PUSH3 0x821 JUMPI PUSH3 0x821 PUSH3 0x79D JUMP JUMPDEST DUP2 PUSH1 0x40 MSTORE DUP1 SWAP4 POP DUP6 DUP2 MSTORE DUP7 DUP7 DUP7 ADD GT ISZERO PUSH3 0x83B JUMPI PUSH1 0x0 DUP1 REVERT JUMPDEST PUSH3 0x84B DUP7 PUSH1 0x20 DUP4 ADD DUP8 PUSH3 0x7B3 JUMP JUMPDEST POP POP POP SWAP4 SWAP3 POP POP POP JUMP JUMPDEST PUSH1 0x0 DUP3 PUSH1 0x1F DUP4 ADD SLT PUSH3 0x867 JUMPI PUSH1 0x0 DUP1 REVERT JUMPDEST PUSH3 0x878 DUP4 DUP4 MLOAD PUSH1 0x20 DUP6 ADD PUSH3 0x7D9 JUMP JUMPDEST SWAP4 SWAP3 POP POP POP JUMP JUMPDEST PUSH1 0x0 DUP1 PUSH1 0x0 PUSH1 0x60 DUP5 DUP7 SUB SLT ISZERO PUSH3 0x895 JUMPI PUSH1 0x0 DUP1 REVERT JUMPDEST DUP4 MLOAD PUSH1 0x1 PUSH1 0x1 PUSH1 0x40 SHL SUB DUP1 DUP3 GT ISZERO PUSH3 0x8AD JUMPI PUSH1 0x0 DUP1 REVERT JUMPDEST PUSH3 0x8BB DUP8 DUP4 DUP9 ADD PUSH3 0x855 JUMP JUMPDEST SWAP5 POP PUSH1 0x20 DUP7 ADD MLOAD SWAP2 POP DUP1 DUP3 GT ISZERO PUSH3 0x8D2 JUMPI PUSH1 0x0 DUP1 REVERT JUMPDEST PUSH3 0x8E0 DUP8 DUP4 DUP9 ADD PUSH3 0x855 JUMP JUMPDEST SWAP4 POP PUSH1 0x40 DUP7 ADD MLOAD SWAP2 POP DUP1 DUP3 GT ISZERO PUSH3 0x8F7 JUMPI PUSH1 0x0 DUP1 REVERT JUMPDEST POP DUP5 ADD PUSH1 0x1F DUP2 ADD DUP7 SGT PUSH3 0x90A JUMPI PUSH1 0x0 DUP1 REVERT JUMPDEST PUSH3 0x91B DUP7 DUP3 MLOAD PUSH1 0x20 DUP5 ADD PUSH3 0x7D9 JUMP JUMPDEST SWAP2 POP POP SWAP3 POP SWAP3 POP SWAP3 JUMP JUMPDEST PUSH4 0x4E487B71 PUSH1 0xE0 SHL PUSH1 0x0 MSTORE PUSH1 0x11 PUSH1 0x4 MSTORE PUSH1 0x24 PUSH1 0x0 REVERT JUMPDEST PUSH1 0x1 DUP2 DUP2 JUMPDEST DUP1 DUP6 GT ISZERO PUSH3 0x97C JUMPI DUP2 PUSH1 0x0 NOT DIV DUP3 GT ISZERO PUSH3 0x960 JUMPI PUSH3 0x960 PUSH3 0x925 JUMP JUMPDEST DUP1 DUP6 AND ISZERO PUSH3 0x96E JUMPI SWAP2 DUP2 MUL SWAP2 JUMPDEST SWAP4 DUP5 SHR SWAP4 SWAP1 DUP1 MUL SWAP1 PUSH3 0x940 JUMP JUMPDEST POP SWAP3 POP SWAP3 SWAP1 POP JUMP JUMPDEST PUSH1 0x0 DUP3 PUSH3 0x995 JUMPI POP PUSH1 0x1 PUSH3 0xA34 JUMP JUMPDEST DUP2 PUSH3 0x9A4 JUMPI POP PUSH1 0x0 PUSH3 0xA34 JUMP JUMPDEST DUP2 PUSH1 0x1 DUP2 EQ PUSH3 0x9BD JUMPI PUSH1 0x2 DUP2 EQ PUSH3 0x9C8 JUMPI PUSH3 0x9E8 JUMP JUMPDEST PUSH1 0x1 SWAP2 POP POP PUSH3 0xA34 JUMP JUMPDEST PUSH1 0xFF DUP5 GT ISZERO PUSH3 0x9DC JUMPI PUSH3 0x9DC PUSH3 0x925 JUMP JUMPDEST POP POP PUSH1 0x1 DUP3 SHL PUSH3 0xA34 JUMP JUMPDEST POP PUSH1 0x20 DUP4 LT PUSH2 0x133 DUP4 LT AND PUSH1 0x4E DUP5 LT PUSH1 0xB DUP5 LT AND OR ISZERO PUSH3 0xA0D JUMPI POP DUP2 DUP2 EXP PUSH3 0xA34 JUMP JUMPDEST PUSH3 0xA19 DUP4 DUP4 PUSH3 0x93B JUMP JUMPDEST DUP1 PUSH1 0x0 NOT DIV DUP3 GT ISZERO PUSH3 0xA30 JUMPI PUSH3 0xA30 PUSH3 0x925 JUMP JUMPDEST MUL SWAP1 POP JUMPDEST SWAP3 SWAP2 POP POP JUMP JUMPDEST PUSH1 0x0 PUSH3 0x878 PUSH1 0xFF DUP5 AND DUP4 PUSH3 0x984 JUMP JUMPDEST DUP1 DUP3 MUL DUP2 ISZERO DUP3 DUP3 DIV DUP5 EQ OR PUSH3 0xA34 JUMPI PUSH3 0xA34 PUSH3 0x925 JUMP JUMPDEST PUSH1 0x1 DUP2 DUP2 SHR SWAP1 DUP3 AND DUP1 PUSH3 0xA7A JUMPI PUSH1 0x7F DUP3 AND SWAP2 POP JUMPDEST PUSH1 0x20 DUP3 LT DUP2 SUB PUSH3 0xA9B JUMPI PUSH4 0x4E487B71 PUSH1 0xE0 SHL PUSH1 0x0 MSTORE PUSH1 0x22 PUSH1 0x4 MSTORE PUSH1 0x24 PUSH1 0x0 REVERT JUMPDEST POP SWAP2 SWAP1 POP JUMP JUMPDEST PUSH1 0x1F DUP3 GT ISZERO PUSH3 0x798 JUMPI PUSH1 0x0 DUP2 DUP2 MSTORE PUSH1 0x20 DUP2 KECCAK256 PUSH1 0x1F DUP6 ADD PUSH1 0x5 SHR DUP2 ADD PUSH1 0x20 DUP7 LT ISZERO PUSH3 0xACA JUMPI POP DUP1 JUMPDEST PUSH1 0x1F DUP6 ADD PUSH1 0x5 SHR DUP3 ADD SWAP2 POP JUMPDEST DUP2 DUP2 LT ISZERO PUSH3 0xAEB JUMPI DUP3 DUP2 SSTORE PUSH1 0x1 ADD PUSH3 0xAD6 JUMP JUMPDEST POP POP POP POP POP POP JUMP JUMPDEST DUP2 MLOAD PUSH1 0x1 PUSH1 0x1 PUSH1 0x40 SHL SUB DUP2 GT ISZERO PUSH3 0xB0F JUMPI PUSH3 0xB0F PUSH3 0x79D JUMP JUMPDEST PUSH3 0xB27 DUP2 PUSH3 0xB20 DUP5 SLOAD PUSH3 0xA65 JUMP JUMPDEST DUP5 PUSH3 0xAA1 JUMP JUMPDEST PUSH1 0x20 DUP1 PUSH1 0x1F DUP4 GT PUSH1 0x1 DUP2 EQ PUSH3 0xB5F JUMPI PUSH1 0x0 DUP5 ISZERO PUSH3 0xB46 JUMPI POP DUP6 DUP4 ADD MLOAD JUMPDEST PUSH1 0x0 NOT PUSH1 0x3 DUP7 SWAP1 SHL SHR NOT AND PUSH1 0x1 DUP6 SWAP1 SHL OR DUP6 SSTORE PUSH3 0xAEB JUMP JUMPDEST PUSH1 0x0 DUP6 DUP2 MSTORE PUSH1 0x20 DUP2 KECCAK256 PUSH1 0x1F NOT DUP7 AND SWAP2 JUMPDEST DUP3 DUP2 LT ISZERO PUSH3 0xB90 JUMPI DUP9 DUP7 ADD MLOAD DUP3 SSTORE SWAP5 DUP5 ADD SWAP5 PUSH1 0x1 SWAP1 SWAP2 ADD SWAP1 DUP5 ADD PUSH3 0xB6F JUMP JUMPDEST POP DUP6 DUP3 LT ISZERO PUSH3 0xBAF JUMPI DUP8 DUP6 ADD MLOAD PUSH1 0x0 NOT PUSH1 0x3 DUP9 SWAP1 SHL PUSH1 0xF8 AND SHR NOT AND DUP2 SSTORE JUMPDEST POP POP POP POP POP PUSH1 0x1 SWAP1 DUP2 SHL ADD SWAP1 SSTORE POP JUMP JUMPDEST PUSH1 0x0 DUP3 PUSH3 0xBDD JUMPI PUSH4 0x4E487B71 PUSH1 0xE0 SHL PUSH1 0x0 MSTORE PUSH1 0x12 PUSH1 0x4 MSTORE PUSH1 0x24 PUSH1 0x0 REVERT JUMPDEST POP DIV SWAP1 JUMP JUMPDEST DUP1 DUP3 ADD DUP1 DUP3 GT ISZERO PUSH3 0xA34 JUMPI PUSH3 0xA34 PUSH3 0x925 JUMP JUMPDEST PUSH1 0x0 DUP3 MLOAD PUSH3 0xC0C DUP2 DUP5 PUSH1 0x20 DUP8 ADD PUSH3 0x7B3 JUMP JUMPDEST SWAP2 SWAP1 SWAP2 ADD SWAP3 SWAP2 POP POP JUMP JUMPDEST PUSH4 0x4E487B71 PUSH1 0xE0 SHL PUSH1 0x0 MSTORE PUSH1 0x32 PUSH1 0x4 MSTORE PUSH1 0x24 PUSH1 0x0 REVERT JUMPDEST DUP2 DUP2 SUB DUP2 DUP2 GT ISZERO PUSH3 0xA34 JUMPI PUSH3 0xA34 PUSH3 0x925 JUMP JUMPDEST PUSH1 0x80 MLOAD PUSH2 0x24BB PUSH3 0xCA4 PUSH1 0x0 CODECOPY PUSH1 0x0 DUP2 DUP2 PUSH2 0x353 ADD MSTORE DUP2 DUP2 PUSH2 0xB39 ADD MSTORE DUP2 DUP2 PUSH2 0xBC4 ADD MSTORE DUP2 DUP2 PUSH2 0x1128 ADD MSTORE DUP2 DUP2 PUSH2 0x11B9 ADD MSTORE DUP2 DUP2 PUSH2 0x1326 ADD MSTORE DUP2 DUP2 PUSH2 0x13A8 ADD MSTORE DUP2 DUP2 PUSH2 0x1E16 ADD MSTORE DUP2 DUP2 PUSH2 0x1ED0 ADD MSTORE DUP2 DUP2 PUSH2 0x1F00 ADD MSTORE PUSH2 0x1F3C ADD MSTORE PUSH2 0x24BB PUSH1 0x0 RETURN INVALID PUSH1 0x80 PUSH1 0x40 MSTORE PUSH1 0x4 CALLDATASIZE LT PUSH2 0x21E JUMPI PUSH1 0x0 CALLDATALOAD PUSH1 0xE0 SHR DUP1 PUSH4 0x75F0A874 GT PUSH2 0x123 JUMPI DUP1 PUSH4 0x9FDE54F5 GT PUSH2 0xAB JUMPI DUP1 PUSH4 0xCEC10C11 GT PUSH2 0x6F JUMPI DUP1 PUSH4 0xCEC10C11 EQ PUSH2 0x646 JUMPI DUP1 PUSH4 0xD21220A7 EQ PUSH2 0x666 JUMPI DUP1 PUSH4 0xDD62ED3E EQ PUSH2 0x686 JUMPI DUP1 PUSH4 0xE9E1831A EQ PUSH2 0x6A6 JUMPI DUP1 PUSH4 0xF0DDA65C EQ PUSH2 0x6BB JUMPI PUSH1 0x0 DUP1 REVERT JUMPDEST DUP1 PUSH4 0x9FDE54F5 EQ PUSH2 0x5B1 JUMPI DUP1 PUSH4 0xA9059CBB EQ PUSH2 0x5D1 JUMPI DUP1 PUSH4 0xB9CCF21D EQ PUSH2 0x5F1 JUMPI DUP1 PUSH4 0xC55D2287 EQ PUSH2 0x606 JUMPI DUP1 PUSH4 0xCB963728 EQ PUSH2 0x626 JUMPI PUSH1 0x0 DUP1 REVERT JUMPDEST DUP1 PUSH4 0x92CC2F49 GT PUSH2 0xF2 JUMPI DUP1 PUSH4 0x92CC2F49 EQ PUSH2 0x52D JUMPI DUP1 PUSH4 0x93E84CD9 EQ PUSH2 0x542 JUMPI DUP1 PUSH4 0x95D89B41 EQ PUSH2 0x557 JUMPI DUP1 PUSH4 0x99501D98 EQ PUSH2 0x56C JUMPI DUP1 PUSH4 0x9CD623D6 EQ PUSH2 0x59C JUMPI PUSH1 0x0 DUP1 REVERT JUMPDEST DUP1 PUSH4 0x75F0A874 EQ PUSH2 0x4CE JUMPI DUP1 PUSH4 0x8456CB59 EQ PUSH2 0x4EE JUMPI DUP1 PUSH4 0x8AC0AA6E EQ PUSH2 0x503 JUMPI DUP1 PUSH4 0x8DA5CB5B EQ PUSH2 0x518 JUMPI PUSH1 0x0 DUP1 REVERT JUMPDEST DUP1 PUSH4 0x2F54BF6E GT PUSH2 0x1A6 JUMPI DUP1 PUSH4 0x5074449D GT PUSH2 0x175 JUMPI DUP1 PUSH4 0x5074449D EQ PUSH2 0x434 JUMPI DUP1 PUSH4 0x5D098B38 EQ PUSH2 0x44E JUMPI DUP1 PUSH4 0x68B7BCBD EQ PUSH2 0x46E JUMPI DUP1 PUSH4 0x70A08231 EQ PUSH2 0x483 JUMPI DUP1 PUSH4 0x715018A6 EQ PUSH2 0x4B9 JUMPI PUSH1 0x0 DUP1 REVERT JUMPDEST DUP1 PUSH4 0x2F54BF6E EQ PUSH2 0x3AA JUMPI DUP1 PUSH4 0x313CE567 EQ PUSH2 0x3E3 JUMPI DUP1 PUSH4 0x3709DC6E EQ PUSH2 0x3FF JUMPI DUP1 PUSH4 0x49BD5A5E EQ PUSH2 0x414 JUMPI PUSH1 0x0 DUP1 REVERT JUMPDEST DUP1 PUSH4 0xD1118CE GT PUSH2 0x1ED JUMPI DUP1 PUSH4 0xD1118CE EQ PUSH2 0x2E9 JUMPI DUP1 PUSH4 0xDFE1681 EQ PUSH2 0x309 JUMPI DUP1 PUSH4 0x1694505E EQ PUSH2 0x341 JUMPI DUP1 PUSH4 0x18160DDD EQ PUSH2 0x375 JUMPI DUP1 PUSH4 0x23B872DD EQ PUSH2 0x38A JUMPI PUSH1 0x0 DUP1 REVERT JUMPDEST DUP1 PUSH4 0x24C2DDD EQ PUSH2 0x22A JUMPI DUP1 PUSH4 0x6FDDE03 EQ PUSH2 0x275 JUMPI DUP1 PUSH4 0x8F4D965 EQ PUSH2 0x297 JUMPI DUP1 PUSH4 0x95EA7B3 EQ PUSH2 0x2B9 JUMPI PUSH1 0x0 DUP1 REVERT JUMPDEST CALLDATASIZE PUSH2 0x225 JUMPI STOP JUMPDEST PUSH1 0x0 DUP1 REVERT JUMPDEST CALLVALUE DUP1 ISZERO PUSH2 0x236 JUMPI PUSH1 0x0 DUP1 REVERT JUMPDEST POP PUSH2 0x262 PUSH2 0x245 CALLDATASIZE PUSH1 0x4 PUSH2 0x1FC8 JUMP JUMPDEST PUSH1 0x7 PUSH1 0x20 SWAP1 DUP2 MSTORE PUSH1 0x0 SWAP3 DUP4 MSTORE PUSH1 0x40 DUP1 DUP5 KECCAK256 SWAP1 SWAP2 MSTORE SWAP1 DUP3 MSTORE SWAP1 KECCAK256 SLOAD DUP2 JUMP JUMPDEST PUSH1 0x40 MLOAD SWAP1 DUP2 MSTORE PUSH1 0x20 ADD JUMPDEST PUSH1 0x40 MLOAD DUP1 SWAP2 SUB SWAP1 RETURN JUMPDEST CALLVALUE DUP1 ISZERO PUSH2 0x281 JUMPI PUSH1 0x0 DUP1 REVERT JUMPDEST POP PUSH2 0x28A PUSH2 0x6DB JUMP JUMPDEST PUSH1 0x40 MLOAD PUSH2 0x26C SWAP2 SWAP1 PUSH2 0x2025 JUMP JUMPDEST CALLVALUE DUP1 ISZERO PUSH2 0x2A3 JUMPI PUSH1 0x0 DUP1 REVERT JUMPDEST POP PUSH2 0x2B7 PUSH2 0x2B2 CALLDATASIZE PUSH1 0x4 PUSH2 0x206E JUMP JUMPDEST PUSH2 0x76D JUMP JUMPDEST STOP JUMPDEST CALLVALUE DUP1 ISZERO PUSH2 0x2C5 JUMPI PUSH1 0x0 DUP1 REVERT JUMPDEST POP PUSH2 0x2D9 PUSH2 0x2D4 CALLDATASIZE PUSH1 0x4 PUSH2 0x211F JUMP JUMPDEST PUSH2 0x81F JUMP JUMPDEST PUSH1 0x40 MLOAD SWAP1 ISZERO ISZERO DUP2 MSTORE PUSH1 0x20 ADD PUSH2 0x26C JUMP JUMPDEST CALLVALUE DUP1 ISZERO PUSH2 0x2F5 JUMPI PUSH1 0x0 DUP1 REVERT JUMPDEST POP PUSH2 0x2B7 PUSH2 0x304 CALLDATASIZE PUSH1 0x4 PUSH2 0x211F JUMP JUMPDEST PUSH2 0x839 JUMP JUMPDEST CALLVALUE DUP1 ISZERO PUSH2 0x315 JUMPI PUSH1 0x0 DUP1 REVERT JUMPDEST POP PUSH1 0x14 SLOAD PUSH2 0x329 SWAP1 PUSH1 0x1 PUSH1 0x1 PUSH1 0xA0 SHL SUB AND DUP2 JUMP JUMPDEST PUSH1 0x40 MLOAD PUSH1 0x1 PUSH1 0x1 PUSH1 0xA0 SHL SUB SWAP1 SWAP2 AND DUP2 MSTORE PUSH1 0x20 ADD PUSH2 0x26C JUMP JUMPDEST CALLVALUE DUP1 ISZERO PUSH2 0x34D JUMPI PUSH1 0x0 DUP1 REVERT JUMPDEST POP PUSH2 0x329 PUSH32 0x0 DUP2 JUMP JUMPDEST CALLVALUE DUP1 ISZERO PUSH2 0x381 JUMPI PUSH1 0x0 DUP1 REVERT JUMPDEST POP PUSH1 0xB SLOAD PUSH2 0x262 JUMP JUMPDEST CALLVALUE DUP1 ISZERO PUSH2 0x396 JUMPI PUSH1 0x0 DUP1 REVERT JUMPDEST POP PUSH2 0x2D9 PUSH2 0x3A5 CALLDATASIZE PUSH1 0x4 PUSH2 0x214B JUMP JUMPDEST PUSH2 0x900 JUMP JUMPDEST CALLVALUE DUP1 ISZERO PUSH2 0x3B6 JUMPI PUSH1 0x0 DUP1 REVERT JUMPDEST POP PUSH2 0x2D9 PUSH2 0x3C5 CALLDATASIZE PUSH1 0x4 PUSH2 0x218C JUMP JUMPDEST PUSH1 0x1 PUSH1 0x1 PUSH1 0xA0 SHL SUB AND PUSH1 0x0 SWAP1 DUP2 MSTORE PUSH1 0x1 PUSH1 0x20 MSTORE PUSH1 0x40 SWAP1 KECCAK256 SLOAD PUSH1 0xFF AND SWAP1 JUMP JUMPDEST CALLVALUE DUP1 ISZERO PUSH2 0x3EF JUMPI PUSH1 0x0 DUP1 REVERT JUMPDEST POP PUSH1 0x40 MLOAD PUSH1 0x12 DUP2 MSTORE PUSH1 0x20 ADD PUSH2 0x26C JUMP JUMPDEST CALLVALUE DUP1 ISZERO PUSH2 0x40B JUMPI PUSH1 0x0 DUP1 REVERT JUMPDEST POP PUSH2 0x2D9 PUSH2 0x924 JUMP JUMPDEST CALLVALUE DUP1 ISZERO PUSH2 0x420 JUMPI PUSH1 0x0 DUP1 REVERT JUMPDEST POP PUSH1 0x4 SLOAD PUSH2 0x329 SWAP1 PUSH1 0x1 PUSH1 0x1 PUSH1 0xA0 SHL SUB AND DUP2 JUMP JUMPDEST CALLVALUE DUP1 ISZERO PUSH2 0x440 JUMPI PUSH1 0x0 DUP1 REVERT JUMPDEST POP PUSH1 0x11 SLOAD PUSH2 0x2D9 SWAP1 PUSH1 0xFF AND DUP2 JUMP JUMPDEST CALLVALUE DUP1 ISZERO PUSH2 0x45A JUMPI PUSH1 0x0 DUP1 REVERT JUMPDEST POP PUSH2 0x2B7 PUSH2 0x469 CALLDATASIZE PUSH1 0x4 PUSH2 0x218C JUMP JUMPDEST PUSH2 0x94C JUMP JUMPDEST CALLVALUE DUP1 ISZERO PUSH2 0x47A JUMPI PUSH1 0x0 DUP1 REVERT JUMPDEST POP PUSH2 0x2D9 PUSH2 0x9CC JUMP JUMPDEST CALLVALUE DUP1 ISZERO PUSH2 0x48F JUMPI PUSH1 0x0 DUP1 REVERT JUMPDEST POP PUSH2 0x262 PUSH2 0x49E CALLDATASIZE PUSH1 0x4 PUSH2 0x218C JUMP JUMPDEST PUSH1 0x1 PUSH1 0x1 PUSH1 0xA0 SHL SUB AND PUSH1 0x0 SWAP1 DUP2 MSTORE PUSH1 0x6 PUSH1 0x20 MSTORE PUSH1 0x40 SWAP1 KECCAK256 SLOAD SWAP1 JUMP JUMPDEST CALLVALUE DUP1 ISZERO PUSH2 0x4C5 JUMPI PUSH1 0x0 DUP1 REVERT JUMPDEST POP PUSH2 0x2B7 PUSH2 0x9E6 JUMP JUMPDEST CALLVALUE DUP1 ISZERO PUSH2 0x4DA JUMPI PUSH1 0x0 DUP1 REVERT JUMPDEST POP PUSH1 0x5 SLOAD PUSH2 0x329 SWAP1 PUSH1 0x1 PUSH1 0x1 PUSH1 0xA0 SHL SUB AND DUP2 JUMP JUMPDEST CALLVALUE DUP1 ISZERO PUSH2 0x4FA JUMPI PUSH1 0x0 DUP1 REVERT JUMPDEST POP PUSH2 0x2D9 PUSH2 0xA7E JUMP JUMPDEST CALLVALUE DUP1 ISZERO PUSH2 0x50F JUMPI PUSH1 0x0 DUP1 REVERT JUMPDEST POP PUSH2 0x2B7 PUSH2 0xAA4 JUMP JUMPDEST CALLVALUE DUP1 ISZERO PUSH2 0x524 JUMPI PUSH1 0x0 DUP1 REVERT JUMPDEST POP PUSH2 0x329 PUSH2 0xC63 JUMP JUMPDEST CALLVALUE DUP1 ISZERO PUSH2 0x539 JUMPI PUSH1 0x0 DUP1 REVERT JUMPDEST POP PUSH2 0x2D9 PUSH2 0xCCF JUMP JUMPDEST CALLVALUE DUP1 ISZERO PUSH2 0x54E JUMPI PUSH1 0x0 DUP1 REVERT JUMPDEST POP PUSH2 0x2D9 PUSH2 0xCED JUMP JUMPDEST CALLVALUE DUP1 ISZERO PUSH2 0x563 JUMPI PUSH1 0x0 DUP1 REVERT JUMPDEST POP PUSH2 0x28A PUSH2 0xD10 JUMP JUMPDEST CALLVALUE DUP1 ISZERO PUSH2 0x578 JUMPI PUSH1 0x0 DUP1 REVERT JUMPDEST POP PUSH2 0x2D9 PUSH2 0x587 CALLDATASIZE PUSH1 0x4 PUSH2 0x218C JUMP JUMPDEST PUSH1 0x8 PUSH1 0x20 MSTORE PUSH1 0x0 SWAP1 DUP2 MSTORE PUSH1 0x40 SWAP1 KECCAK256 SLOAD PUSH1 0xFF AND DUP2 JUMP JUMPDEST CALLVALUE DUP1 ISZERO PUSH2 0x5A8 JUMPI PUSH1 0x0 DUP1 REVERT JUMPDEST POP PUSH2 0x2D9 PUSH2 0xD1F JUMP JUMPDEST CALLVALUE DUP1 ISZERO PUSH2 0x5BD JUMPI PUSH1 0x0 DUP1 REVERT JUMPDEST POP PUSH2 0x2B7 PUSH2 0x5CC CALLDATASIZE PUSH1 0x4 PUSH2 0x21B7 JUMP JUMPDEST PUSH2 0xD44 JUMP JUMPDEST CALLVALUE DUP1 ISZERO PUSH2 0x5DD JUMPI PUSH1 0x0 DUP1 REVERT JUMPDEST POP PUSH2 0x2D9 PUSH2 0x5EC CALLDATASIZE PUSH1 0x4 PUSH2 0x211F JUMP JUMPDEST PUSH2 0xD8A JUMP JUMPDEST CALLVALUE DUP1 ISZERO PUSH2 0x5FD JUMPI PUSH1 0x0 DUP1 REVERT JUMPDEST POP PUSH2 0x2B7 PUSH2 0xD98 JUMP JUMPDEST CALLVALUE DUP1 ISZERO PUSH2 0x612 JUMPI PUSH1 0x0 DUP1 REVERT JUMPDEST POP PUSH2 0x262 PUSH2 0x621 CALLDATASIZE PUSH1 0x4 PUSH2 0x21E5 JUMP JUMPDEST PUSH2 0xDAA JUMP JUMPDEST CALLVALUE DUP1 ISZERO PUSH2 0x632 JUMPI PUSH1 0x0 DUP1 REVERT JUMPDEST POP PUSH2 0x2B7 PUSH2 0x641 CALLDATASIZE PUSH1 0x4 PUSH2 0x218C JUMP JUMPDEST PUSH2 0xE2D JUMP JUMPDEST CALLVALUE DUP1 ISZERO PUSH2 0x652 JUMPI PUSH1 0x0 DUP1 REVERT JUMPDEST POP PUSH2 0x2B7 PUSH2 0x661 CALLDATASIZE PUSH1 0x4 PUSH2 0x21FE JUMP JUMPDEST PUSH2 0x101A JUMP JUMPDEST CALLVALUE DUP1 ISZERO PUSH2 0x672 JUMPI PUSH1 0x0 DUP1 REVERT JUMPDEST POP PUSH1 0x15 SLOAD PUSH2 0x329 SWAP1 PUSH1 0x1 PUSH1 0x1 PUSH1 0xA0 SHL SUB AND DUP2 JUMP JUMPDEST CALLVALUE DUP1 ISZERO PUSH2 0x692 JUMPI PUSH1 0x0 DUP1 REVERT JUMPDEST POP PUSH2 0x262 PUSH2 0x6A1 CALLDATASIZE PUSH1 0x4 PUSH2 0x1FC8 JUMP JUMPDEST PUSH2 0x104E JUMP JUMPDEST CALLVALUE DUP1 ISZERO PUSH2 0x6B2 JUMPI PUSH1 0x0 DUP1 REVERT JUMPDEST POP PUSH2 0x2B7 PUSH2 0x10DE JUMP JUMPDEST CALLVALUE DUP1 ISZERO PUSH2 0x6C7 JUMPI PUSH1 0x0 DUP1 REVERT JUMPDEST POP PUSH2 0x2B7 PUSH2 0x6D6 CALLDATASIZE PUSH1 0x4 PUSH2 0x211F JUMP JUMPDEST PUSH2 0x145F JUMP JUMPDEST PUSH1 0x60 PUSH1 0x12 DUP1 SLOAD PUSH2 0x6EA SWAP1 PUSH2 0x222A JUMP JUMPDEST DUP1 PUSH1 0x1F ADD PUSH1 0x20 DUP1 SWAP2 DIV MUL PUSH1 0x20 ADD PUSH1 0x40 MLOAD SWAP1 DUP2 ADD PUSH1 0x40 MSTORE DUP1 SWAP3 SWAP2 SWAP1 DUP2 DUP2 MSTORE PUSH1 0x20 ADD DUP3 DUP1 SLOAD PUSH2 0x716 SWAP1 PUSH2 0x222A JUMP JUMPDEST DUP1 ISZERO PUSH2 0x763 JUMPI DUP1 PUSH1 0x1F LT PUSH2 0x738 JUMPI PUSH2 0x100 DUP1 DUP4 SLOAD DIV MUL DUP4 MSTORE SWAP2 PUSH1 0x20 ADD SWAP2 PUSH2 0x763 JUMP JUMPDEST DUP3 ADD SWAP2 SWAP1 PUSH1 0x0 MSTORE PUSH1 0x20 PUSH1 0x0 KECCAK256 SWAP1 JUMPDEST DUP2 SLOAD DUP2 MSTORE SWAP1 PUSH1 0x1 ADD SWAP1 PUSH1 0x20 ADD DUP1 DUP4 GT PUSH2 0x746 JUMPI DUP3 SWAP1 SUB PUSH1 0x1F AND DUP3 ADD SWAP2 JUMPDEST POP POP POP POP POP SWAP1 POP SWAP1 JUMP JUMPDEST DUP1 PUSH1 0x0 SLOAD PUSH2 0x77A DUP3 PUSH2 0x1522 JUMP JUMPDEST EQ PUSH2 0x7CC JUMPI PUSH1 0x40 MLOAD PUSH3 0x461BCD PUSH1 0xE5 SHL DUP2 MSTORE PUSH1 0x20 PUSH1 0x4 DUP3 ADD MSTORE PUSH1 0x18 PUSH1 0x24 DUP3 ADD MSTORE PUSH32 0x496E636F727265637420656E6372797074696F6E206B65790000000000000000 PUSH1 0x44 DUP3 ADD MSTORE PUSH1 0x64 ADD JUMPDEST PUSH1 0x40 MLOAD DUP1 SWAP2 SUB SWAP1 REVERT JUMPDEST PUSH2 0x7D5 CALLER PUSH2 0x3C5 JUMP JUMPDEST ISZERO PUSH2 0x812 JUMPI PUSH1 0x40 MLOAD PUSH3 0x461BCD PUSH1 0xE5 SHL DUP2 MSTORE PUSH1 0x20 PUSH1 0x4 DUP3 ADD MSTORE PUSH1 0xD PUSH1 0x24 DUP3 ADD MSTORE PUSH13 0x20B63932B0B23C9037BBB732B9 PUSH1 0x99 SHL PUSH1 0x44 DUP3 ADD MSTORE PUSH1 0x64 ADD PUSH2 0x7C3 JUMP JUMPDEST PUSH2 0x81B CALLER PUSH2 0x1552 JUMP JUMPDEST POP POP JUMP JUMPDEST PUSH1 0x0 CALLER PUSH2 0x82D DUP2 DUP6 DUP6 PUSH2 0x15DD JUMP JUMPDEST PUSH1 0x1 SWAP2 POP POP JUMPDEST SWAP3 SWAP2 POP POP JUMP JUMPDEST PUSH2 0x841 PUSH2 0x1655 JUMP JUMPDEST DUP1 PUSH2 0x861 DUP4 PUSH1 0x1 PUSH1 0x1 PUSH1 0xA0 SHL SUB AND PUSH1 0x0 SWAP1 DUP2 MSTORE PUSH1 0x6 PUSH1 0x20 MSTORE PUSH1 0x40 SWAP1 KECCAK256 SLOAD SWAP1 JUMP JUMPDEST LT ISZERO PUSH2 0x8AF JUMPI PUSH1 0x40 MLOAD PUSH3 0x461BCD PUSH1 0xE5 SHL DUP2 MSTORE PUSH1 0x20 PUSH1 0x4 DUP3 ADD MSTORE PUSH1 0x1C PUSH1 0x24 DUP3 ADD MSTORE PUSH32 0x496E73756666696369656E742062616C616E636520746F206275726E00000000 PUSH1 0x44 DUP3 ADD MSTORE PUSH1 0x64 ADD PUSH2 0x7C3 JUMP JUMPDEST PUSH2 0x8B9 DUP3 DUP3 PUSH2 0x1687 JUMP JUMPDEST DUP2 PUSH1 0x1 PUSH1 0x1 PUSH1 0xA0 SHL SUB AND PUSH32 0xFD38818F5291BF0BB3A2A48AADC06BA8757865D1DABD804585338AAB3009DCB6 DUP3 PUSH1 0x40 MLOAD PUSH2 0x8F4 SWAP2 DUP2 MSTORE PUSH1 0x20 ADD SWAP1 JUMP JUMPDEST PUSH1 0x40 MLOAD DUP1 SWAP2 SUB SWAP1 LOG2 POP POP JUMP JUMPDEST PUSH1 0x0 CALLER PUSH2 0x90E DUP6 DUP3 DUP6 PUSH2 0x16DB JUMP JUMPDEST PUSH2 0x919 DUP6 DUP6 DUP6 PUSH2 0x1745 JUMP JUMPDEST POP PUSH1 0x1 SWAP5 SWAP4 POP POP POP POP JUMP JUMPDEST PUSH1 0x0 PUSH2 0x92E PUSH2 0x1655 JUMP JUMPDEST POP PUSH1 0x11 DUP1 SLOAD PUSH3 0xFF0000 NOT AND PUSH3 0x10000 SWAP1 DUP2 OR SWAP2 DUP3 SWAP1 SSTORE SWAP1 DIV PUSH1 0xFF AND SWAP1 JUMP JUMPDEST PUSH2 0x954 PUSH2 0x1655 JUMP JUMPDEST PUSH1 0x1 PUSH1 0x1 PUSH1 0xA0 SHL SUB DUP2 AND PUSH2 0x9AA JUMPI PUSH1 0x40 MLOAD PUSH3 0x461BCD PUSH1 0xE5 SHL DUP2 MSTORE PUSH1 0x20 PUSH1 0x4 DUP3 ADD MSTORE PUSH1 0x1F PUSH1 0x24 DUP3 ADD MSTORE PUSH32 0x4552432032303A20416464726573732063616E27742062652030207479706500 PUSH1 0x44 DUP3 ADD MSTORE PUSH1 0x64 ADD PUSH2 0x7C3 JUMP JUMPDEST PUSH1 0x5 DUP1 SLOAD PUSH1 0x1 PUSH1 0x1 PUSH1 0xA0 SHL SUB NOT AND PUSH1 0x1 PUSH1 0x1 PUSH1 0xA0 SHL SUB SWAP3 SWAP1 SWAP3 AND SWAP2 SWAP1 SWAP2 OR SWAP1 SSTORE JUMP JUMPDEST PUSH1 0x0 PUSH2 0x9D6 PUSH2 0x1655 JUMP JUMPDEST POP PUSH1 0x11 DUP1 SLOAD PUSH1 0xFF NOT AND SWAP1 SSTORE PUSH1 0x0 SWAP1 JUMP JUMPDEST PUSH2 0x9EE PUSH2 0x1655 JUMP JUMPDEST CALLER PUSH1 0x0 SWAP1 DUP2 MSTORE PUSH1 0x1 PUSH1 0x20 SWAP1 DUP2 MSTORE PUSH1 0x40 DUP1 DUP4 KECCAK256 DUP1 SLOAD PUSH1 0x1 PUSH1 0x1 PUSH1 0xA8 SHL SUB NOT AND SWAP1 SSTORE DUP1 MLOAD DUP1 DUP3 ADD SWAP1 SWAP2 MSTORE DUP3 DUP2 MSTORE SWAP1 DUP2 ADD DUP3 SWAP1 MSTORE PUSH1 0x2 DUP1 SLOAD SWAP2 SWAP3 SWAP1 SWAP2 PUSH2 0xA33 JUMPI PUSH2 0xA33 PUSH2 0x2264 JUMP JUMPDEST PUSH1 0x0 SWAP2 DUP3 MSTORE PUSH1 0x20 SWAP2 DUP3 SWAP1 KECCAK256 DUP4 MLOAD SWAP2 ADD DUP1 SLOAD SWAP4 SWAP1 SWAP3 ADD MLOAD PUSH1 0x1 PUSH1 0x1 PUSH1 0xA8 SHL SUB NOT SWAP1 SWAP4 AND SWAP1 ISZERO ISZERO PUSH2 0x100 PUSH1 0x1 PUSH1 0xA8 SHL SUB NOT AND OR PUSH2 0x100 PUSH1 0x1 PUSH1 0x1 PUSH1 0xA0 SHL SUB SWAP1 SWAP4 AND SWAP3 SWAP1 SWAP3 MUL SWAP2 SWAP1 SWAP2 OR SWAP1 SSTORE JUMP JUMPDEST PUSH1 0x0 PUSH2 0xA88 PUSH2 0x1655 JUMP JUMPDEST POP PUSH1 0x11 DUP1 SLOAD PUSH2 0xFF00 NOT AND PUSH2 0x100 SWAP1 DUP2 OR SWAP2 DUP3 SWAP1 SSTORE SWAP1 DIV PUSH1 0xFF AND SWAP1 JUMP JUMPDEST PUSH2 0xAAC PUSH2 0x1655 JUMP JUMPDEST PUSH1 0x4 DUP1 SLOAD PUSH1 0x40 MLOAD PUSH4 0x70A08231 PUSH1 0xE0 SHL DUP2 MSTORE ADDRESS SWAP3 DUP2 ADD SWAP3 SWAP1 SWAP3 MSTORE PUSH1 0x0 SWAP2 PUSH1 0x1 PUSH1 0x1 PUSH1 0xA0 SHL SUB SWAP1 SWAP2 AND SWAP1 PUSH4 0x70A08231 SWAP1 PUSH1 0x24 ADD PUSH1 0x20 PUSH1 0x40 MLOAD DUP1 DUP4 SUB DUP2 DUP7 GAS STATICCALL ISZERO DUP1 ISZERO PUSH2 0xAFA JUMPI RETURNDATASIZE PUSH1 0x0 DUP1 RETURNDATACOPY RETURNDATASIZE PUSH1 0x0 REVERT JUMPDEST POP POP POP POP PUSH1 0x40 MLOAD RETURNDATASIZE PUSH1 0x1F NOT PUSH1 0x1F DUP3 ADD AND DUP3 ADD DUP1 PUSH1 0x40 MSTORE POP DUP2 ADD SWAP1 PUSH2 0xB1E SWAP2 SWAP1 PUSH2 0x227A JUMP JUMPDEST PUSH1 0x4 DUP1 SLOAD PUSH1 0x40 MLOAD PUSH4 0x95EA7B3 PUSH1 0xE0 SHL DUP2 MSTORE PUSH1 0x1 PUSH1 0x1 PUSH1 0xA0 SHL SUB PUSH32 0x0 DUP2 AND SWAP4 DUP3 ADD SWAP4 SWAP1 SWAP4 MSTORE PUSH1 0x24 DUP2 ADD DUP5 SWAP1 MSTORE SWAP3 SWAP4 POP AND SWAP1 PUSH4 0x95EA7B3 SWAP1 PUSH1 0x44 ADD PUSH1 0x20 PUSH1 0x40 MLOAD DUP1 DUP4 SUB DUP2 PUSH1 0x0 DUP8 GAS CALL ISZERO DUP1 ISZERO PUSH2 0xB95 JUMPI RETURNDATASIZE PUSH1 0x0 DUP1 RETURNDATACOPY RETURNDATASIZE PUSH1 0x0 REVERT JUMPDEST POP POP POP POP PUSH1 0x40 MLOAD RETURNDATASIZE PUSH1 0x1F NOT PUSH1 0x1F DUP3 ADD AND DUP3 ADD DUP1 PUSH1 0x40 MSTORE POP DUP2 ADD SWAP1 PUSH2 0xBB9 SWAP2 SWAP1 PUSH2 0x2293 JUMP JUMPDEST POP PUSH1 0x1 PUSH1 0x1 PUSH1 0xA0 SHL SUB PUSH32 0x0 AND PUSH4 0x2751CEC ADDRESS DUP4 PUSH1 0x0 DUP1 CALLER PUSH2 0xBFB TIMESTAMP PUSH2 0x384 PUSH2 0x22C6 JUMP JUMPDEST PUSH1 0x40 MLOAD DUP8 PUSH4 0xFFFFFFFF AND PUSH1 0xE0 SHL DUP2 MSTORE PUSH1 0x4 ADD PUSH2 0xC1C SWAP7 SWAP6 SWAP5 SWAP4 SWAP3 SWAP2 SWAP1 PUSH2 0x22D9 JUMP JUMPDEST PUSH1 0x40 DUP1 MLOAD DUP1 DUP4 SUB DUP2 PUSH1 0x0 DUP8 GAS CALL ISZERO DUP1 ISZERO PUSH2 0xC3A JUMPI RETURNDATASIZE PUSH1 0x0 DUP1 RETURNDATACOPY RETURNDATASIZE PUSH1 0x0 REVERT JUMPDEST POP POP POP POP PUSH1 0x40 MLOAD RETURNDATASIZE PUSH1 0x1F NOT PUSH1 0x1F DUP3 ADD AND DUP3 ADD DUP1 PUSH1 0x40 MSTORE POP DUP2 ADD SWAP1 PUSH2 0xC5E SWAP2 SWAP1 PUSH2 0x2314 JUMP JUMPDEST POP POP POP JUMP JUMPDEST CALLER PUSH1 0x0 SWAP1 DUP2 MSTORE PUSH1 0x1 PUSH1 0x20 MSTORE PUSH1 0x40 DUP2 KECCAK256 SLOAD PUSH1 0xFF AND PUSH2 0xCAD JUMPI PUSH1 0x2 PUSH1 0x0 DUP2 SLOAD DUP2 LT PUSH2 0xC8E JUMPI PUSH2 0xC8E PUSH2 0x2264 JUMP JUMPDEST PUSH1 0x0 SWAP2 DUP3 MSTORE PUSH1 0x20 SWAP1 SWAP2 KECCAK256 ADD SLOAD PUSH2 0x100 SWAP1 DIV PUSH1 0x1 PUSH1 0x1 PUSH1 0xA0 SHL SUB AND SWAP2 SWAP1 POP JUMP JUMPDEST POP CALLER PUSH1 0x0 SWAP1 DUP2 MSTORE PUSH1 0x1 PUSH1 0x20 MSTORE PUSH1 0x40 SWAP1 KECCAK256 SLOAD PUSH2 0x100 SWAP1 DIV PUSH1 0x1 PUSH1 0x1 PUSH1 0xA0 SHL SUB AND SWAP1 JUMP JUMPDEST PUSH1 0x0 PUSH2 0xCD9 PUSH2 0x1655 JUMP JUMPDEST POP PUSH1 0x11 DUP1 SLOAD PUSH1 0xFF NOT AND PUSH1 0x1 SWAP1 DUP2 OR SWAP1 SWAP2 SSTORE SWAP1 JUMP JUMPDEST PUSH1 0x0 PUSH2 0xCF7 PUSH2 0x1655 JUMP JUMPDEST POP PUSH1 0x11 DUP1 SLOAD PUSH2 0xFF00 NOT AND SWAP1 DUP2 SWAP1 SSTORE PUSH2 0x100 SWAP1 DIV PUSH1 0xFF AND SWAP1 JUMP JUMPDEST PUSH1 0x60 PUSH1 0x13 DUP1 SLOAD PUSH2 0x6EA SWAP1 PUSH2 0x222A JUMP JUMPDEST PUSH1 0x0 PUSH2 0xD29 PUSH2 0x1655 JUMP JUMPDEST POP PUSH1 0x11 DUP1 SLOAD PUSH3 0xFF0000 NOT AND SWAP1 DUP2 SWAP1 SSTORE PUSH3 0x10000 SWAP1 DIV PUSH1 0xFF AND SWAP1 JUMP JUMPDEST PUSH2 0xD4C PUSH2 0x1655 JUMP JUMPDEST PUSH1 0x1 PUSH1 0x1 PUSH1 0xA0 SHL SUB DUP3 AND PUSH2 0xD5F JUMPI PUSH1 0x0 DUP1 REVERT JUMPDEST PUSH1 0x1 PUSH1 0x1 PUSH1 0xA0 SHL SUB SWAP2 SWAP1 SWAP2 AND PUSH1 0x0 SWAP1 DUP2 MSTORE PUSH1 0x8 PUSH1 0x20 MSTORE PUSH1 0x40 SWAP1 KECCAK256 DUP1 SLOAD PUSH1 0xFF NOT AND SWAP2 ISZERO ISZERO SWAP2 SWAP1 SWAP2 OR SWAP1 SSTORE JUMP JUMPDEST PUSH1 0x0 CALLER PUSH2 0x82D DUP2 DUP6 DUP6 PUSH2 0x1745 JUMP JUMPDEST PUSH2 0xDA0 PUSH2 0x1655 JUMP JUMPDEST PUSH2 0xDA8 PUSH2 0x1A3A JUMP JUMPDEST JUMP JUMPDEST PUSH1 0x0 PUSH2 0xDB4 PUSH2 0x1655 JUMP JUMPDEST PUSH1 0xA DUP3 LT ISZERO DUP1 ISZERO PUSH2 0xDC6 JUMPI POP PUSH1 0x32 DUP3 GT ISZERO JUMPDEST PUSH2 0xE08 JUMPI PUSH1 0x40 MLOAD PUSH3 0x461BCD PUSH1 0xE5 SHL DUP2 MSTORE PUSH1 0x20 PUSH1 0x4 DUP3 ADD MSTORE PUSH1 0x13 PUSH1 0x24 DUP3 ADD MSTORE PUSH19 0x4E756D626572206F7574206F662072616E6765 PUSH1 0x68 SHL PUSH1 0x44 DUP3 ADD MSTORE PUSH1 0x64 ADD PUSH2 0x7C3 JUMP JUMPDEST PUSH1 0x64 DUP3 PUSH1 0xB SLOAD PUSH2 0xE18 SWAP2 SWAP1 PUSH2 0x2338 JUMP JUMPDEST PUSH2 0xE22 SWAP2 SWAP1 PUSH2 0x234F JUMP JUMPDEST PUSH1 0x10 DUP2 SWAP1 SSTORE SWAP3 SWAP2 POP POP JUMP JUMPDEST PUSH2 0xE35 PUSH2 0x1655 JUMP JUMPDEST PUSH1 0x0 PUSH1 0x1 PUSH1 0x1 PUSH1 0xA0 SHL SUB DUP3 AND PUSH2 0xE91 JUMPI PUSH1 0x40 MLOAD CALLER SWAP1 SELFBALANCE SWAP1 PUSH1 0x0 DUP2 DUP2 DUP2 DUP6 DUP8 GAS CALL SWAP3 POP POP POP RETURNDATASIZE DUP1 PUSH1 0x0 DUP2 EQ PUSH2 0xE85 JUMPI PUSH1 0x40 MLOAD SWAP2 POP PUSH1 0x1F NOT PUSH1 0x3F RETURNDATASIZE ADD AND DUP3 ADD PUSH1 0x40 MSTORE RETURNDATASIZE DUP3 MSTORE RETURNDATASIZE PUSH1 0x0 PUSH1 0x20 DUP5 ADD RETURNDATACOPY PUSH2 0xE8A JUMP JUMPDEST PUSH1 0x60 SWAP2 POP JUMPDEST POP POP POP POP POP JUMP JUMPDEST PUSH1 0x40 MLOAD PUSH4 0x70A08231 PUSH1 0xE0 SHL DUP2 MSTORE ADDRESS PUSH1 0x4 DUP3 ADD MSTORE PUSH1 0x0 SWAP1 PUSH1 0x1 PUSH1 0x1 PUSH1 0xA0 SHL SUB DUP5 AND SWAP1 PUSH4 0x70A08231 SWAP1 PUSH1 0x24 ADD PUSH1 0x20 PUSH1 0x40 MLOAD DUP1 DUP4 SUB DUP2 DUP7 GAS STATICCALL ISZERO DUP1 ISZERO PUSH2 0xED8 JUMPI RETURNDATASIZE PUSH1 0x0 DUP1 RETURNDATACOPY RETURNDATASIZE PUSH1 0x0 REVERT JUMPDEST POP POP POP POP PUSH1 0x40 MLOAD RETURNDATASIZE PUSH1 0x1F NOT PUSH1 0x1F DUP3 ADD AND DUP3 ADD DUP1 PUSH1 0x40 MSTORE POP DUP2 ADD SWAP1 PUSH2 0xEFC SWAP2 SWAP1 PUSH2 0x227A JUMP JUMPDEST GT PUSH2 0xF35 JUMPI PUSH1 0x40 MLOAD PUSH3 0x461BCD PUSH1 0xE5 SHL DUP2 MSTORE PUSH1 0x20 PUSH1 0x4 DUP3 ADD MSTORE PUSH1 0x9 PUSH1 0x24 DUP3 ADD MSTORE PUSH9 0x4E6F20746F6B656E73 PUSH1 0xB8 SHL PUSH1 0x44 DUP3 ADD MSTORE PUSH1 0x64 ADD PUSH2 0x7C3 JUMP JUMPDEST PUSH1 0x40 MLOAD PUSH4 0x70A08231 PUSH1 0xE0 SHL DUP2 MSTORE ADDRESS PUSH1 0x4 DUP3 ADD MSTORE PUSH1 0x0 SWAP1 PUSH1 0x1 PUSH1 0x1 PUSH1 0xA0 SHL SUB DUP5 AND SWAP1 PUSH4 0x70A08231 SWAP1 PUSH1 0x24 ADD PUSH1 0x20 PUSH1 0x40 MLOAD DUP1 DUP4 SUB DUP2 DUP7 GAS STATICCALL ISZERO DUP1 ISZERO PUSH2 0xF7C JUMPI RETURNDATASIZE PUSH1 0x0 DUP1 RETURNDATACOPY RETURNDATASIZE PUSH1 0x0 REVERT JUMPDEST POP POP POP POP PUSH1 0x40 MLOAD RETURNDATASIZE PUSH1 0x1F NOT PUSH1 0x1F DUP3 ADD AND DUP3 ADD DUP1 PUSH1 0x40 MSTORE POP DUP2 ADD SWAP1 PUSH2 0xFA0 SWAP2 SWAP1 PUSH2 0x227A JUMP JUMPDEST PUSH1 0x40 MLOAD PUSH4 0xA9059CBB PUSH1 0xE0 SHL DUP2 MSTORE CALLER PUSH1 0x4 DUP3 ADD MSTORE PUSH1 0x24 DUP2 ADD DUP3 SWAP1 MSTORE SWAP1 SWAP2 POP PUSH1 0x1 PUSH1 0x1 PUSH1 0xA0 SHL SUB DUP5 AND SWAP1 PUSH4 0xA9059CBB SWAP1 PUSH1 0x44 ADD PUSH1 0x20 PUSH1 0x40 MLOAD DUP1 DUP4 SUB DUP2 PUSH1 0x0 DUP8 GAS CALL ISZERO DUP1 ISZERO PUSH2 0xFF0 JUMPI RETURNDATASIZE PUSH1 0x0 DUP1 RETURNDATACOPY RETURNDATASIZE PUSH1 0x0 REVERT JUMPDEST POP POP POP POP PUSH1 0x40 MLOAD RETURNDATASIZE PUSH1 0x1F NOT PUSH1 0x1F DUP3 ADD AND DUP3 ADD DUP1 PUSH1 0x40 MSTORE POP DUP2 ADD SWAP1 PUSH2 0x1014 SWAP2 SWAP1 PUSH2 0x2293 JUMP JUMPDEST POP POP POP POP JUMP JUMPDEST PUSH2 0x1022 PUSH2 0x1655 JUMP JUMPDEST PUSH1 0xC DUP4 SWAP1 SSTORE PUSH1 0xD DUP3 SWAP1 SSTORE PUSH1 0xE DUP2 SWAP1 SSTORE DUP1 PUSH2 0x103C DUP4 DUP6 PUSH2 0x22C6 JUMP JUMPDEST PUSH2 0x1046 SWAP2 SWAP1 PUSH2 0x22C6 JUMP JUMPDEST PUSH1 0xF SSTORE POP POP POP JUMP JUMPDEST PUSH1 0x0 PUSH1 0x1 PUSH1 0x1 PUSH1 0xA0 SHL SUB DUP4 AND ISZERO DUP1 PUSH2 0x106D JUMPI POP PUSH1 0x1 PUSH1 0x1 PUSH1 0xA0 SHL SUB DUP3 AND ISZERO JUMPDEST ISZERO PUSH2 0x10B2 JUMPI PUSH1 0x40 MLOAD PUSH3 0x461BCD PUSH1 0xE5 SHL DUP2 MSTORE PUSH1 0x20 PUSH1 0x4 DUP3 ADD MSTORE PUSH1 0x15 PUSH1 0x24 DUP3 ADD MSTORE PUSH21 0x34B73B30B634B21030B2323932B9B99032B93937B9 PUSH1 0x59 SHL PUSH1 0x44 DUP3 ADD MSTORE PUSH1 0x64 ADD PUSH2 0x7C3 JUMP JUMPDEST POP PUSH1 0x1 PUSH1 0x1 PUSH1 0xA0 SHL SUB SWAP2 DUP3 AND PUSH1 0x0 SWAP1 DUP2 MSTORE PUSH1 0x7 PUSH1 0x20 SWAP1 DUP2 MSTORE PUSH1 0x40 DUP1 DUP4 KECCAK256 SWAP4 SWAP1 SWAP5 AND DUP3 MSTORE SWAP2 SWAP1 SWAP2 MSTORE KECCAK256 SLOAD SWAP1 JUMP JUMPDEST PUSH2 0x10E6 PUSH2 0x1655 JUMP JUMPDEST PUSH1 0x11 SLOAD PUSH1 0xFF AND ISZERO PUSH2 0x1126 JUMPI PUSH1 0x40 MLOAD PUSH3 0x461BCD PUSH1 0xE5 SHL DUP2 MSTORE PUSH1 0x20 PUSH1 0x4 DUP3 ADD MSTORE PUSH1 0xA PUSH1 0x24 DUP3 ADD MSTORE PUSH10 0x69735472616461626C65 PUSH1 0xB0 SHL PUSH1 0x44 DUP3 ADD MSTORE PUSH1 0x64 ADD PUSH2 0x7C3 JUMP JUMPDEST PUSH32 0x0 PUSH1 0x1 PUSH1 0x1 PUSH1 0xA0 SHL SUB AND PUSH4 0xC45A0155 PUSH1 0x40 MLOAD DUP2 PUSH4 0xFFFFFFFF AND PUSH1 0xE0 SHL DUP2 MSTORE PUSH1 0x4 ADD PUSH1 0x20 PUSH1 0x40 MLOAD DUP1 DUP4 SUB DUP2 DUP7 GAS STATICCALL ISZERO DUP1 ISZERO PUSH2 0x1184 JUMPI RETURNDATASIZE PUSH1 0x0 DUP1 RETURNDATACOPY RETURNDATASIZE PUSH1 0x0 REVERT JUMPDEST POP POP POP POP PUSH1 0x40 MLOAD RETURNDATASIZE PUSH1 0x1F NOT PUSH1 0x1F DUP3 ADD AND DUP3 ADD DUP1 PUSH1 0x40 MSTORE POP DUP2 ADD SWAP1 PUSH2 0x11A8 SWAP2 SWAP1 PUSH2 0x2371 JUMP JUMPDEST PUSH1 0x1 PUSH1 0x1 PUSH1 0xA0 SHL SUB AND PUSH4 0xC9C65396 ADDRESS PUSH32 0x0 PUSH1 0x1 PUSH1 0x1 PUSH1 0xA0 SHL SUB AND PUSH4 0xAD5C4648 PUSH1 0x40 MLOAD DUP2 PUSH4 0xFFFFFFFF AND PUSH1 0xE0 SHL DUP2 MSTORE PUSH1 0x4 ADD PUSH1 0x20 PUSH1 0x40 MLOAD DUP1 DUP4 SUB DUP2 DUP7 GAS STATICCALL ISZERO DUP1 ISZERO PUSH2 0x1215 JUMPI RETURNDATASIZE PUSH1 0x0 DUP1 RETURNDATACOPY RETURNDATASIZE PUSH1 0x0 REVERT JUMPDEST POP POP POP POP PUSH1 0x40 MLOAD RETURNDATASIZE PUSH1 0x1F NOT PUSH1 0x1F DUP3 ADD AND DUP3 ADD DUP1 PUSH1 0x40 MSTORE POP DUP2 ADD SWAP1 PUSH2 0x1239 SWAP2 SWAP1 PUSH2 0x2371 JUMP JUMPDEST PUSH1 0x40 MLOAD PUSH1 0x1 PUSH1 0x1 PUSH1 0xE0 SHL SUB NOT PUSH1 0xE0 DUP6 SWAP1 SHL AND DUP2 MSTORE PUSH1 0x1 PUSH1 0x1 PUSH1 0xA0 SHL SUB SWAP3 DUP4 AND PUSH1 0x4 DUP3 ADD MSTORE SWAP2 AND PUSH1 0x24 DUP3 ADD MSTORE PUSH1 0x44 ADD PUSH1 0x20 PUSH1 0x40 MLOAD DUP1 DUP4 SUB DUP2 PUSH1 0x0 DUP8 GAS CALL ISZERO DUP1 ISZERO PUSH2 0x1286 JUMPI RETURNDATASIZE PUSH1 0x0 DUP1 RETURNDATACOPY RETURNDATASIZE PUSH1 0x0 REVERT JUMPDEST POP POP POP POP PUSH1 0x40 MLOAD RETURNDATASIZE PUSH1 0x1F NOT PUSH1 0x1F DUP3 ADD AND DUP3 ADD DUP1 PUSH1 0x40 MSTORE POP DUP2 ADD SWAP1 PUSH2 0x12AA SWAP2 SWAP1 PUSH2 0x2371 JUMP JUMPDEST PUSH1 0x4 DUP1 SLOAD PUSH1 0x1 PUSH1 0x1 PUSH1 0xA0 SHL SUB NOT AND PUSH1 0x1 PUSH1 0x1 PUSH1 0xA0 SHL SUB SWAP3 DUP4 AND SWAP1 DUP2 OR DUP3 SSTORE PUSH1 0x0 SWAP1 DUP2 MSTORE PUSH1 0x8 PUSH1 0x20 MSTORE PUSH1 0x40 SWAP1 KECCAK256 DUP1 SLOAD PUSH1 0xFF NOT AND PUSH1 0x1 SWAP1 DUP2 OR SWAP1 SWAP2 SSTORE SWAP1 SLOAD PUSH2 0x12F1 SWAP3 AND SWAP1 PUSH2 0x1ACB JUMP JUMPDEST PUSH1 0x4 SLOAD PUSH2 0x130B SWAP1 ADDRESS SWAP1 PUSH1 0x1 PUSH1 0x1 PUSH1 0xA0 SHL SUB AND PUSH1 0x0 NOT PUSH2 0x15DD JUMP JUMPDEST PUSH1 0x4 DUP1 SLOAD PUSH1 0x40 MLOAD PUSH4 0x95EA7B3 PUSH1 0xE0 SHL DUP2 MSTORE PUSH1 0x1 PUSH1 0x1 PUSH1 0xA0 SHL SUB PUSH32 0x0 DUP2 AND SWAP4 DUP3 ADD SWAP4 SWAP1 SWAP4 MSTORE PUSH1 0x0 NOT PUSH1 0x24 DUP3 ADD MSTORE SWAP2 AND SWAP1 PUSH4 0x95EA7B3 SWAP1 PUSH1 0x44 ADD PUSH1 0x20 PUSH1 0x40 MLOAD DUP1 DUP4 SUB DUP2 PUSH1 0x0 DUP8 GAS CALL ISZERO DUP1 ISZERO PUSH2 0x1381 JUMPI RETURNDATASIZE PUSH1 0x0 DUP1 RETURNDATACOPY RETURNDATASIZE PUSH1 0x0 REVERT JUMPDEST POP POP POP POP PUSH1 0x40 MLOAD RETURNDATASIZE PUSH1 0x1F NOT PUSH1 0x1F DUP3 ADD AND DUP3 ADD DUP1 PUSH1 0x40 MSTORE POP DUP2 ADD SWAP1 PUSH2 0x13A5 SWAP2 SWAP1 PUSH2 0x2293 JUMP JUMPDEST POP PUSH32 0x0 PUSH1 0x1 PUSH1 0x1 PUSH1 0xA0 SHL SUB AND PUSH4 0xF305D719 SELFBALANCE ADDRESS PUSH2 0x13F6 ADDRESS PUSH1 0x1 PUSH1 0x1 PUSH1 0xA0 SHL SUB AND PUSH1 0x0 SWAP1 DUP2 MSTORE PUSH1 0x6 PUSH1 0x20 MSTORE PUSH1 0x40 SWAP1 KECCAK256 SLOAD SWAP1 JUMP JUMPDEST PUSH1 0x0 DUP1 CALLER TIMESTAMP PUSH1 0x40 MLOAD DUP9 PUSH4 0xFFFFFFFF AND PUSH1 0xE0 SHL DUP2 MSTORE PUSH1 0x4 ADD PUSH2 0x141C SWAP7 SWAP6 SWAP5 SWAP4 SWAP3 SWAP2 SWAP1 PUSH2 0x22D9 JUMP JUMPDEST PUSH1 0x60 PUSH1 0x40 MLOAD DUP1 DUP4 SUB DUP2 DUP6 DUP9 GAS CALL ISZERO DUP1 ISZERO PUSH2 0x143A JUMPI RETURNDATASIZE PUSH1 0x0 DUP1 RETURNDATACOPY RETURNDATASIZE PUSH1 0x0 REVERT JUMPDEST POP POP POP POP POP PUSH1 0x40 MLOAD RETURNDATASIZE PUSH1 0x1F NOT PUSH1 0x1F DUP3 ADD AND DUP3 ADD DUP1 PUSH1 0x40 MSTORE POP DUP2 ADD SWAP1 PUSH2 0xC5E SWAP2 SWAP1 PUSH2 0x238E JUMP JUMPDEST PUSH2 0x1467 PUSH2 0x1655 JUMP JUMPDEST PUSH1 0x1 PUSH1 0x1 PUSH1 0xA0 SHL SUB DUP3 AND PUSH2 0x148D JUMPI PUSH1 0x40 MLOAD PUSH3 0x461BCD PUSH1 0xE5 SHL DUP2 MSTORE PUSH1 0x4 ADD PUSH2 0x7C3 SWAP1 PUSH2 0x23BC JUMP JUMPDEST PUSH1 0x0 DUP2 GT PUSH2 0x14DD JUMPI PUSH1 0x40 MLOAD PUSH3 0x461BCD PUSH1 0xE5 SHL DUP2 MSTORE PUSH1 0x20 PUSH1 0x4 DUP3 ADD MSTORE PUSH1 0x1D PUSH1 0x24 DUP3 ADD MSTORE PUSH32 0x416D6F756E74206D7573742062652067726561746572207468616E2030000000 PUSH1 0x44 DUP3 ADD MSTORE PUSH1 0x64 ADD PUSH2 0x7C3 JUMP JUMPDEST PUSH2 0x14E7 DUP3 DUP3 PUSH2 0x1B1F JUMP JUMPDEST DUP2 PUSH1 0x1 PUSH1 0x1 PUSH1 0xA0 SHL SUB AND PUSH32 0x3F2C9D57C068687834F0DE942A9BABB9E5ACAB57D516D3480A3C16EE165A4273 DUP3 PUSH1 0x40 MLOAD PUSH2 0x8F4 SWAP2 DUP2 MSTORE PUSH1 0x20 ADD SWAP1 JUMP JUMPDEST PUSH1 0x0 DUP2 PUSH1 0x40 MLOAD PUSH1 0x20 ADD PUSH2 0x1535 SWAP2 SWAP1 PUSH2 0x23E5 JUMP JUMPDEST PUSH1 0x40 MLOAD PUSH1 0x20 DUP2 DUP4 SUB SUB DUP2 MSTORE SWAP1 PUSH1 0x40 MSTORE DUP1 MLOAD SWAP1 PUSH1 0x20 ADD KECCAK256 SWAP1 POP SWAP2 SWAP1 POP JUMP JUMPDEST PUSH1 0x1 PUSH1 0x1 PUSH1 0xA0 SHL SUB DUP2 AND PUSH2 0x157C JUMPI PUSH1 0x40 MLOAD PUSH4 0x1E4FBDF7 PUSH1 0xE0 SHL DUP2 MSTORE PUSH1 0x0 PUSH1 0x4 DUP3 ADD MSTORE PUSH1 0x24 ADD PUSH2 0x7C3 JUMP JUMPDEST PUSH1 0x40 DUP1 MLOAD DUP1 DUP3 ADD DUP3 MSTORE PUSH1 0x1 DUP1 DUP3 MSTORE PUSH1 0x1 PUSH1 0x1 PUSH1 0xA0 SHL SUB SWAP4 DUP5 AND PUSH1 0x20 DUP1 DUP5 ADD DUP3 DUP2 MSTORE PUSH1 0x0 SWAP3 DUP4 MSTORE SWAP3 SWAP1 MSTORE SWAP3 SWAP1 SWAP3 KECCAK256 SWAP1 MLOAD DUP2 SLOAD SWAP3 MLOAD PUSH1 0x1 PUSH1 0x1 PUSH1 0xA8 SHL SUB NOT SWAP1 SWAP4 AND SWAP1 ISZERO ISZERO PUSH2 0x100 PUSH1 0x1 PUSH1 0xA8 SHL SUB NOT AND OR PUSH2 0x100 SWAP3 SWAP1 SWAP4 AND SWAP2 SWAP1 SWAP2 MUL SWAP2 SWAP1 SWAP2 OR SWAP1 SSTORE JUMP JUMPDEST PUSH1 0x1 PUSH1 0x1 PUSH1 0xA0 SHL SUB DUP4 AND PUSH2 0x1603 JUMPI PUSH1 0x40 MLOAD PUSH3 0x461BCD PUSH1 0xE5 SHL DUP2 MSTORE PUSH1 0x4 ADD PUSH2 0x7C3 SWAP1 PUSH2 0x23BC JUMP JUMPDEST PUSH1 0x1 PUSH1 0x1 PUSH1 0xA0 SHL SUB DUP3 AND PUSH2 0x1629 JUMPI PUSH1 0x40 MLOAD PUSH3 0x461BCD PUSH1 0xE5 SHL DUP2 MSTORE PUSH1 0x4 ADD PUSH2 0x7C3 SWAP1 PUSH2 0x23BC JUMP JUMPDEST PUSH1 0x1 PUSH1 0x1 PUSH1 0xA0 SHL SUB SWAP3 DUP4 AND PUSH1 0x0 SWAP1 DUP2 MSTORE PUSH1 0x7 PUSH1 0x20 SWAP1 DUP2 MSTORE PUSH1 0x40 DUP1 DUP4 KECCAK256 SWAP5 SWAP1 SWAP6 AND DUP3 MSTORE SWAP3 SWAP1 SWAP3 MSTORE SWAP2 SWAP1 KECCAK256 SSTORE JUMP JUMPDEST CALLER PUSH2 0x165E PUSH2 0xC63 JUMP JUMPDEST PUSH1 0x1 PUSH1 0x1 PUSH1 0xA0 SHL SUB AND EQ PUSH2 0xDA8 JUMPI PUSH1 0x40 MLOAD PUSH4 0x118CDAA7 PUSH1 0xE0 SHL DUP2 MSTORE CALLER PUSH1 0x4 DUP3 ADD MSTORE PUSH1 0x24 ADD PUSH2 0x7C3 JUMP JUMPDEST PUSH1 0x1 PUSH1 0x1 PUSH1 0xA0 SHL SUB DUP3 AND PUSH2 0x16CF JUMPI PUSH1 0x40 MLOAD PUSH3 0x461BCD PUSH1 0xE5 SHL DUP2 MSTORE PUSH1 0x20 PUSH1 0x4 DUP3 ADD MSTORE PUSH1 0xF PUSH1 0x24 DUP3 ADD MSTORE PUSH15 0x696E76616C69642041646472657373 PUSH1 0x88 SHL PUSH1 0x44 DUP3 ADD MSTORE PUSH1 0x64 ADD PUSH2 0x7C3 JUMP JUMPDEST PUSH2 0x81B DUP3 PUSH1 0x0 DUP4 PUSH2 0x1B6F JUMP JUMPDEST PUSH1 0x0 PUSH2 0x16E7 DUP5 DUP5 PUSH2 0x104E JUMP JUMPDEST SWAP1 POP PUSH1 0x0 NOT DUP2 EQ PUSH2 0x1014 JUMPI DUP2 DUP2 LT ISZERO PUSH2 0x1738 JUMPI PUSH1 0x40 MLOAD PUSH3 0x461BCD PUSH1 0xE5 SHL DUP2 MSTORE PUSH1 0x20 PUSH1 0x4 DUP3 ADD MSTORE PUSH1 0x13 PUSH1 0x24 DUP3 ADD MSTORE PUSH19 0x496E76616C6964207370656E642076616C7565 PUSH1 0x68 SHL PUSH1 0x44 DUP3 ADD MSTORE PUSH1 0x64 ADD PUSH2 0x7C3 JUMP JUMPDEST PUSH2 0x1014 DUP5 DUP5 DUP5 DUP5 SUB PUSH2 0x15DD JUMP JUMPDEST PUSH1 0x11 SLOAD PUSH2 0x100 SWAP1 DIV PUSH1 0xFF AND ISZERO PUSH2 0x178F JUMPI PUSH1 0x40 MLOAD PUSH3 0x461BCD PUSH1 0xE5 SHL DUP2 MSTORE PUSH1 0x20 PUSH1 0x4 DUP3 ADD MSTORE PUSH1 0xF PUSH1 0x24 DUP3 ADD MSTORE PUSH15 0x10DBDB9D1C9858DD081C185D5CD959 PUSH1 0x8A SHL PUSH1 0x44 DUP3 ADD MSTORE PUSH1 0x64 ADD PUSH2 0x7C3 JUMP JUMPDEST PUSH1 0x1 PUSH1 0x1 PUSH1 0xA0 SHL SUB DUP4 AND ISZERO DUP1 PUSH2 0x17AC JUMPI POP PUSH1 0x1 PUSH1 0x1 PUSH1 0xA0 SHL SUB DUP3 AND ISZERO JUMPDEST ISZERO PUSH2 0x17F1 JUMPI PUSH1 0x40 MLOAD PUSH3 0x461BCD PUSH1 0xE5 SHL DUP2 MSTORE PUSH1 0x20 PUSH1 0x4 DUP3 ADD MSTORE PUSH1 0x15 PUSH1 0x24 DUP3 ADD MSTORE PUSH21 0x24B73B30B634B21020B2323932B9B99022B93937B9 PUSH1 0x59 SHL PUSH1 0x44 DUP3 ADD MSTORE PUSH1 0x64 ADD PUSH2 0x7C3 JUMP JUMPDEST DUP1 PUSH1 0x0 SUB PUSH2 0x1805 JUMPI PUSH2 0xC5E DUP4 DUP4 PUSH1 0x0 PUSH2 0x1B6F JUMP JUMPDEST PUSH1 0x11 SLOAD PUSH1 0xFF AND PUSH2 0x1893 JUMPI PUSH1 0x1 PUSH1 0x1 PUSH1 0xA0 SHL SUB DUP4 AND PUSH1 0x0 SWAP1 DUP2 MSTORE PUSH1 0x8 PUSH1 0x20 MSTORE PUSH1 0x40 SWAP1 KECCAK256 SLOAD PUSH1 0xFF AND ISZERO DUP1 PUSH2 0x1850 JUMPI POP PUSH1 0x1 PUSH1 0x1 PUSH1 0xA0 SHL SUB DUP3 AND PUSH1 0x0 SWAP1 DUP2 MSTORE PUSH1 0x8 PUSH1 0x20 MSTORE PUSH1 0x40 SWAP1 KECCAK256 SLOAD PUSH1 0xFF AND ISZERO JUMPDEST ISZERO PUSH2 0x1893 JUMPI PUSH1 0x40 MLOAD PUSH3 0x461BCD PUSH1 0xE5 SHL DUP2 MSTORE PUSH1 0x20 PUSH1 0x4 DUP3 ADD MSTORE PUSH1 0x13 PUSH1 0x24 DUP3 ADD MSTORE PUSH19 0x54726164696E6720697320696E616374697665 PUSH1 0x68 SHL PUSH1 0x44 DUP3 ADD MSTORE PUSH1 0x64 ADD PUSH2 0x7C3 JUMP JUMPDEST PUSH1 0xA SLOAD PUSH1 0x1 PUSH1 0x1 PUSH1 0xA0 SHL SUB DUP4 AND PUSH1 0x0 SWAP1 DUP2 MSTORE PUSH1 0x6 PUSH1 0x20 MSTORE PUSH1 0x40 SWAP1 KECCAK256 SLOAD PUSH2 0x18BA SWAP1 DUP4 SWAP1 PUSH2 0x22C6 JUMP JUMPDEST LT PUSH2 0x1927 JUMPI PUSH1 0x1 PUSH1 0x1 PUSH1 0xA0 SHL SUB DUP3 AND PUSH1 0x0 SWAP1 DUP2 MSTORE PUSH1 0x8 PUSH1 0x20 MSTORE PUSH1 0x40 SWAP1 KECCAK256 SLOAD PUSH1 0xFF AND PUSH2 0x1927 JUMPI PUSH1 0x40 MLOAD PUSH3 0x461BCD PUSH1 0xE5 SHL DUP2 MSTORE PUSH1 0x20 PUSH1 0x4 DUP3 ADD MSTORE PUSH1 0x1A PUSH1 0x24 DUP3 ADD MSTORE PUSH32 0x45786365656473206D61782077616C6C657420686F6C64696E67000000000000 PUSH1 0x44 DUP3 ADD MSTORE PUSH1 0x64 ADD PUSH2 0x7C3 JUMP JUMPDEST PUSH1 0x11 SLOAD PUSH1 0x0 SWAP1 DUP2 SWAP1 PUSH3 0x10000 SWAP1 DIV PUSH1 0xFF AND ISZERO PUSH2 0x1A1E JUMPI PUSH1 0xF SLOAD ISZERO PUSH2 0x1A1E JUMPI PUSH2 0x194D PUSH2 0xC63 JUMP JUMPDEST PUSH1 0x1 PUSH1 0x1 PUSH1 0xA0 SHL SUB AND DUP6 PUSH1 0x1 PUSH1 0x1 PUSH1 0xA0 SHL SUB AND EQ ISZERO DUP1 ISZERO PUSH2 0x1987 JUMPI POP PUSH2 0x1971 PUSH2 0xC63 JUMP JUMPDEST PUSH1 0x1 PUSH1 0x1 PUSH1 0xA0 SHL SUB AND DUP5 PUSH1 0x1 PUSH1 0x1 PUSH1 0xA0 SHL SUB AND EQ ISZERO JUMPDEST DUP1 ISZERO PUSH2 0x199B JUMPI POP PUSH1 0x1 PUSH1 0x1 PUSH1 0xA0 SHL SUB DUP5 AND ISZERO ISZERO JUMPDEST DUP1 ISZERO PUSH2 0x19B0 JUMPI POP PUSH1 0x1 PUSH1 0x1 PUSH1 0xA0 SHL SUB DUP5 AND ADDRESS EQ ISZERO JUMPDEST DUP1 ISZERO PUSH2 0x19D5 JUMPI POP PUSH1 0x1 PUSH1 0x1 PUSH1 0xA0 SHL SUB DUP6 AND PUSH1 0x0 SWAP1 DUP2 MSTORE PUSH1 0x8 PUSH1 0x20 MSTORE PUSH1 0x40 SWAP1 KECCAK256 SLOAD PUSH1 0xFF AND ISZERO JUMPDEST ISZERO PUSH2 0x1A1E JUMPI PUSH1 0xE SLOAD PUSH1 0xD SLOAD PUSH1 0xC SLOAD PUSH2 0x19ED SWAP2 SWAP1 PUSH2 0x22C6 JUMP JUMPDEST PUSH2 0x19F7 SWAP2 SWAP1 PUSH2 0x22C6 JUMP JUMPDEST SWAP2 POP PUSH2 0x1A0F PUSH2 0x2710 PUSH2 0x1A09 DUP6 DUP6 PUSH2 0x1D76 JUMP JUMPDEST SWAP1 PUSH2 0x1D89 JUMP JUMPDEST SWAP1 POP PUSH2 0x1A1B DUP2 DUP5 PUSH2 0x2401 JUMP JUMPDEST SWAP3 POP JUMPDEST DUP1 ISZERO PUSH2 0x1A2F JUMPI PUSH2 0x1A2F DUP6 ADDRESS DUP4 PUSH2 0x1B6F JUMP JUMPDEST PUSH2 0xE8A DUP6 DUP6 DUP6 PUSH2 0x1B6F JUMP JUMPDEST PUSH2 0x1A42 PUSH2 0x1D95 JUMP JUMPDEST ADDRESS PUSH1 0x0 SWAP1 DUP2 MSTORE PUSH1 0x6 PUSH1 0x20 MSTORE PUSH1 0x40 DUP2 KECCAK256 SLOAD SWAP1 DUP2 SWAP1 SUB PUSH2 0x1A60 JUMPI POP PUSH2 0x1AC1 JUMP JUMPDEST PUSH2 0x1A69 DUP2 PUSH2 0x1DBF JUMP JUMPDEST PUSH1 0x5 SLOAD PUSH1 0x40 MLOAD PUSH1 0x0 SWAP2 PUSH1 0x1 PUSH1 0x1 PUSH1 0xA0 SHL SUB AND SWAP1 SELFBALANCE SWAP1 DUP4 DUP2 DUP2 DUP2 DUP6 DUP8 GAS CALL SWAP3 POP POP POP RETURNDATASIZE DUP1 PUSH1 0x0 DUP2 EQ PUSH2 0x1AB6 JUMPI PUSH1 0x40 MLOAD SWAP2 POP PUSH1 0x1F NOT PUSH1 0x3F RETURNDATASIZE ADD AND DUP3 ADD PUSH1 0x40 MSTORE RETURNDATASIZE DUP3 MSTORE RETURNDATASIZE PUSH1 0x0 PUSH1 0x20 DUP5 ADD RETURNDATACOPY PUSH2 0x1ABB JUMP JUMPDEST PUSH1 0x60 SWAP2 POP JUMPDEST POP POP POP POP POP JUMPDEST PUSH2 0xDA8 PUSH1 0x1 PUSH1 0x3 SSTORE JUMP JUMPDEST PUSH1 0x1 PUSH1 0x1 PUSH1 0xA0 SHL SUB DUP3 AND PUSH1 0x0 DUP2 DUP2 MSTORE PUSH1 0x9 PUSH1 0x20 MSTORE PUSH1 0x40 DUP1 DUP3 KECCAK256 DUP1 SLOAD PUSH1 0xFF NOT AND DUP6 ISZERO ISZERO SWAP1 DUP2 OR SWAP1 SWAP2 SSTORE SWAP1 MLOAD SWAP1 SWAP3 SWAP2 PUSH32 0xFFA9187BF1F18BF477BD0EA1BCBB64E93B6A98132473929EDFCE215CD9B16FAB SWAP2 LOG3 POP POP JUMP JUMPDEST PUSH1 0x1 PUSH1 0x1 PUSH1 0xA0 SHL SUB DUP3 AND PUSH2 0x1B67 JUMPI PUSH1 0x40 MLOAD PUSH3 0x461BCD PUSH1 0xE5 SHL DUP2 MSTORE PUSH1 0x20 PUSH1 0x4 DUP3 ADD MSTORE PUSH1 0xF PUSH1 0x24 DUP3 ADD MSTORE PUSH15 0x496E76616C69642041646472657373 PUSH1 0x88 SHL PUSH1 0x44 DUP3 ADD MSTORE PUSH1 0x64 ADD PUSH2 0x7C3 JUMP JUMPDEST PUSH2 0x81B PUSH1 0x0 DUP4 DUP4 JUMPDEST PUSH1 0x1 PUSH1 0x1 PUSH1 0xA0 SHL SUB DUP4 AND PUSH2 0x1BDD JUMPI PUSH1 0x0 DUP2 PUSH1 0xB SLOAD PUSH2 0x1B8D SWAP2 SWAP1 PUSH2 0x22C6 JUMP JUMPDEST SWAP1 POP PUSH1 0xB SLOAD DUP2 LT ISZERO PUSH2 0x1BD5 JUMPI PUSH1 0x40 MLOAD PUSH3 0x461BCD PUSH1 0xE5 SHL DUP2 MSTORE PUSH1 0x20 PUSH1 0x4 DUP3 ADD MSTORE PUSH1 0x11 PUSH1 0x24 DUP3 ADD MSTORE PUSH17 0x34B73B30B634B21037B832B930BA34B7B7 PUSH1 0x79 SHL PUSH1 0x44 DUP3 ADD MSTORE PUSH1 0x64 ADD PUSH2 0x7C3 JUMP JUMPDEST PUSH1 0xB SSTORE PUSH2 0x1C6A JUMP JUMPDEST PUSH1 0x1 PUSH1 0x1 PUSH1 0xA0 SHL SUB DUP4 AND PUSH1 0x0 SWAP1 DUP2 MSTORE PUSH1 0x6 PUSH1 0x20 MSTORE PUSH1 0x40 SWAP1 KECCAK256 SLOAD DUP2 DUP2 LT ISZERO PUSH2 0x1C3B JUMPI PUSH1 0x40 MLOAD PUSH3 0x461BCD PUSH1 0xE5 SHL DUP2 MSTORE PUSH1 0x20 PUSH1 0x4 DUP3 ADD MSTORE PUSH1 0x12 PUSH1 0x24 DUP3 ADD MSTORE PUSH18 0x496E73756666696369656E742066756E6473 PUSH1 0x70 SHL PUSH1 0x44 DUP3 ADD MSTORE PUSH1 0x64 ADD PUSH2 0x7C3 JUMP JUMPDEST PUSH1 0x1 PUSH1 0x1 PUSH1 0xA0 SHL SUB DUP5 AND PUSH1 0x0 SWAP1 DUP2 MSTORE PUSH1 0x6 PUSH1 0x20 MSTORE PUSH1 0x40 DUP2 KECCAK256 DUP1 SLOAD DUP5 SWAP3 SWAP1 PUSH2 0x1C63 SWAP1 DUP5 SWAP1 PUSH2 0x2401 JUMP JUMPDEST SWAP1 SWAP2 SSTORE POP POP POP JUMPDEST PUSH1 0x1 PUSH1 0x1 PUSH1 0xA0 SHL SUB DUP3 AND PUSH2 0x1CDB JUMPI PUSH1 0x0 DUP2 PUSH1 0xB SLOAD PUSH2 0x1C88 SWAP2 SWAP1 PUSH2 0x2401 JUMP JUMPDEST SWAP1 POP DUP1 PUSH1 0x0 SUB PUSH2 0x1CD3 JUMPI PUSH1 0x40 MLOAD PUSH3 0x461BCD PUSH1 0xE5 SHL DUP2 MSTORE PUSH1 0x20 PUSH1 0x4 DUP3 ADD MSTORE PUSH1 0x16 PUSH1 0x24 DUP3 ADD MSTORE PUSH22 0x43616E6E6F74206275726E20616C6C20746F6B656E73 PUSH1 0x50 SHL PUSH1 0x44 DUP3 ADD MSTORE PUSH1 0x64 ADD PUSH2 0x7C3 JUMP JUMPDEST PUSH1 0xB SSTORE POP POP POP JUMP JUMPDEST PUSH1 0x1 PUSH1 0x1 PUSH1 0xA0 SHL SUB DUP3 AND PUSH1 0x0 SWAP1 DUP2 MSTORE PUSH1 0x6 PUSH1 0x20 MSTORE PUSH1 0x40 SWAP1 KECCAK256 SLOAD PUSH1 0x0 NOT PUSH2 0x1D01 DUP4 DUP4 PUSH2 0x22C6 JUMP JUMPDEST GT ISZERO PUSH2 0x1D43 JUMPI PUSH1 0x40 MLOAD PUSH3 0x461BCD PUSH1 0xE5 SHL DUP2 MSTORE PUSH1 0x20 PUSH1 0x4 DUP3 ADD MSTORE PUSH1 0x11 PUSH1 0x24 DUP3 ADD MSTORE PUSH17 0x34B73B30B634B21027B832B930BA34B7B7 PUSH1 0x79 SHL PUSH1 0x44 DUP3 ADD MSTORE PUSH1 0x64 ADD PUSH2 0x7C3 JUMP JUMPDEST PUSH1 0x1 PUSH1 0x1 PUSH1 0xA0 SHL SUB DUP4 AND PUSH1 0x0 SWAP1 DUP2 MSTORE PUSH1 0x6 PUSH1 0x20 MSTORE PUSH1 0x40 DUP2 KECCAK256 DUP1 SLOAD DUP5 SWAP3 SWAP1 PUSH2 0x1D6B SWAP1 DUP5 SWAP1 PUSH2 0x22C6 JUMP JUMPDEST SWAP1 SWAP2 SSTORE POP POP POP POP POP POP JUMP JUMPDEST PUSH1 0x0 PUSH2 0x1D82 DUP3 DUP5 PUSH2 0x2338 JUMP JUMPDEST SWAP4 SWAP3 POP POP POP JUMP JUMPDEST PUSH1 0x0 PUSH2 0x1D82 DUP3 DUP5 PUSH2 0x234F JUMP JUMPDEST PUSH1 0x2 PUSH1 0x3 SLOAD SUB PUSH2 0x1DB8 JUMPI PUSH1 0x40 MLOAD PUSH4 0x3EE5AEB5 PUSH1 0xE0 SHL DUP2 MSTORE PUSH1 0x4 ADD PUSH1 0x40 MLOAD DUP1 SWAP2 SUB SWAP1 REVERT JUMPDEST PUSH1 0x2 PUSH1 0x3 SSTORE JUMP JUMPDEST PUSH1 0x40 DUP1 MLOAD PUSH1 0x2 DUP1 DUP3 MSTORE PUSH1 0x60 DUP3 ADD DUP4 MSTORE PUSH1 0x0 SWAP3 PUSH1 0x20 DUP4 ADD SWAP1 DUP1 CALLDATASIZE DUP4 CALLDATACOPY ADD SWAP1 POP POP SWAP1 POP ADDRESS DUP2 PUSH1 0x0 DUP2 MLOAD DUP2 LT PUSH2 0x1DF4 JUMPI PUSH2 0x1DF4 PUSH2 0x2264 JUMP JUMPDEST PUSH1 0x20 MUL PUSH1 0x20 ADD ADD SWAP1 PUSH1 0x1 PUSH1 0x1 PUSH1 0xA0 SHL SUB AND SWAP1 DUP2 PUSH1 0x1 PUSH1 0x1 PUSH1 0xA0 SHL SUB AND DUP2 MSTORE POP POP PUSH32 0x0 PUSH1 0x1 PUSH1 0x1 PUSH1 0xA0 SHL SUB AND PUSH4 0xAD5C4648 PUSH1 0x40 MLOAD DUP2 PUSH4 0xFFFFFFFF AND PUSH1 0xE0 SHL DUP2 MSTORE PUSH1 0x4 ADD PUSH1 0x20 PUSH1 0x40 MLOAD DUP1 DUP4 SUB DUP2 DUP7 GAS STATICCALL ISZERO DUP1 ISZERO PUSH2 0x1E72 JUMPI RETURNDATASIZE PUSH1 0x0 DUP1 RETURNDATACOPY RETURNDATASIZE PUSH1 0x0 REVERT JUMPDEST POP POP POP POP PUSH1 0x40 MLOAD RETURNDATASIZE PUSH1 0x1F NOT PUSH1 0x1F DUP3 ADD AND DUP3 ADD DUP1 PUSH1 0x40 MSTORE POP DUP2 ADD SWAP1 PUSH2 0x1E96 SWAP2 SWAP1 PUSH2 0x2371 JUMP JUMPDEST DUP2 PUSH1 0x1 DUP2 MLOAD DUP2 LT PUSH2 0x1EA9 JUMPI PUSH2 0x1EA9 PUSH2 0x2264 JUMP JUMPDEST PUSH1 0x20 MUL PUSH1 0x20 ADD ADD SWAP1 PUSH1 0x1 PUSH1 0x1 PUSH1 0xA0 SHL SUB AND SWAP1 DUP2 PUSH1 0x1 PUSH1 0x1 PUSH1 0xA0 SHL SUB AND DUP2 MSTORE POP POP DUP2 PUSH2 0x1EF4 ADDRESS PUSH32 0x0 PUSH2 0x104E JUMP JUMPDEST LT ISZERO PUSH2 0x1F25 JUMPI PUSH2 0x1F25 ADDRESS PUSH32 0x0 DUP5 PUSH2 0x15DD JUMP JUMPDEST PUSH1 0x40 MLOAD PUSH4 0x791AC947 PUSH1 0xE0 SHL DUP2 MSTORE PUSH1 0x1 PUSH1 0x1 PUSH1 0xA0 SHL SUB PUSH32 0x0 AND SWAP1 PUSH4 0x791AC947 SWAP1 PUSH2 0x1F7A SWAP1 DUP6 SWAP1 PUSH1 0x0 SWAP1 DUP7 SWAP1 ADDRESS SWAP1 TIMESTAMP SWAP1 PUSH1 0x4 ADD PUSH2 0x2414 JUMP JUMPDEST PUSH1 0x0 PUSH1 0x40 MLOAD DUP1 DUP4 SUB DUP2 PUSH1 0x0 DUP8 DUP1 EXTCODESIZE ISZERO DUP1 ISZERO PUSH2 0x1F94 JUMPI PUSH1 0x0 DUP1 REVERT JUMPDEST POP GAS CALL ISZERO DUP1 ISZERO PUSH2 0x1FA8 JUMPI RETURNDATASIZE PUSH1 0x0 DUP1 RETURNDATACOPY RETURNDATASIZE PUSH1 0x0 REVERT JUMPDEST POP POP POP POP POP POP JUMP JUMPDEST PUSH1 0x1 PUSH1 0x1 PUSH1 0xA0 SHL SUB DUP2 AND DUP2 EQ PUSH2 0x1FC5 JUMPI PUSH1 0x0 DUP1 REVERT JUMPDEST POP JUMP JUMPDEST PUSH1 0x0 DUP1 PUSH1 0x40 DUP4 DUP6 SUB SLT ISZERO PUSH2 0x1FDB JUMPI PUSH1 0x0 DUP1 REVERT JUMPDEST DUP3 CALLDATALOAD PUSH2 0x1FE6 DUP2 PUSH2 0x1FB0 JUMP JUMPDEST SWAP2 POP PUSH1 0x20 DUP4 ADD CALLDATALOAD PUSH2 0x1FF6 DUP2 PUSH2 0x1FB0 JUMP JUMPDEST DUP1 SWAP2 POP POP SWAP3 POP SWAP3 SWAP1 POP JUMP JUMPDEST PUSH1 0x0 JUMPDEST DUP4 DUP2 LT ISZERO PUSH2 0x201C JUMPI DUP2 DUP2 ADD MLOAD DUP4 DUP3 ADD MSTORE PUSH1 0x20 ADD PUSH2 0x2004 JUMP JUMPDEST POP POP PUSH1 0x0 SWAP2 ADD MSTORE JUMP JUMPDEST PUSH1 0x20 DUP2 MSTORE PUSH1 0x0 DUP3 MLOAD DUP1 PUSH1 0x20 DUP5 ADD MSTORE PUSH2 0x2044 DUP2 PUSH1 0x40 DUP6 ADD PUSH1 0x20 DUP8 ADD PUSH2 0x2001 JUMP JUMPDEST PUSH1 0x1F ADD PUSH1 0x1F NOT AND SWAP2 SWAP1 SWAP2 ADD PUSH1 0x40 ADD SWAP3 SWAP2 POP POP JUMP JUMPDEST PUSH4 0x4E487B71 PUSH1 0xE0 SHL PUSH1 0x0 MSTORE PUSH1 0x41 PUSH1 0x4 MSTORE PUSH1 0x24 PUSH1 0x0 REVERT JUMPDEST PUSH1 0x0 PUSH1 0x20 DUP3 DUP5 SUB SLT ISZERO PUSH2 0x2080 JUMPI PUSH1 0x0 DUP1 REVERT JUMPDEST DUP2 CALLDATALOAD PUSH8 0xFFFFFFFFFFFFFFFF DUP1 DUP3 GT ISZERO PUSH2 0x2098 JUMPI PUSH1 0x0 DUP1 REVERT JUMPDEST DUP2 DUP5 ADD SWAP2 POP DUP5 PUSH1 0x1F DUP4 ADD SLT PUSH2 0x20AC JUMPI PUSH1 0x0 DUP1 REVERT JUMPDEST DUP2 CALLDATALOAD DUP2 DUP2 GT ISZERO PUSH2 0x20BE JUMPI PUSH2 0x20BE PUSH2 0x2058 JUMP JUMPDEST PUSH1 0x40 MLOAD PUSH1 0x1F DUP3 ADD PUSH1 0x1F NOT SWAP1 DUP2 AND PUSH1 0x3F ADD AND DUP2 ADD SWAP1 DUP4 DUP3 GT DUP2 DUP4 LT OR ISZERO PUSH2 0x20E6 JUMPI PUSH2 0x20E6 PUSH2 0x2058 JUMP JUMPDEST DUP2 PUSH1 0x40 MSTORE DUP3 DUP2 MSTORE DUP8 PUSH1 0x20 DUP5 DUP8 ADD ADD GT ISZERO PUSH2 0x20FF JUMPI PUSH1 0x0 DUP1 REVERT JUMPDEST DUP3 PUSH1 0x20 DUP7 ADD PUSH1 0x20 DUP4 ADD CALLDATACOPY PUSH1 0x0 SWAP3 DUP2 ADD PUSH1 0x20 ADD SWAP3 SWAP1 SWAP3 MSTORE POP SWAP6 SWAP5 POP POP POP POP POP JUMP JUMPDEST PUSH1 0x0 DUP1 PUSH1 0x40 DUP4 DUP6 SUB SLT ISZERO PUSH2 0x2132 JUMPI PUSH1 0x0 DUP1 REVERT JUMPDEST DUP3 CALLDATALOAD PUSH2 0x213D DUP2 PUSH2 0x1FB0 JUMP JUMPDEST SWAP5 PUSH1 0x20 SWAP4 SWAP1 SWAP4 ADD CALLDATALOAD SWAP4 POP POP POP JUMP JUMPDEST PUSH1 0x0 DUP1 PUSH1 0x0 PUSH1 0x60 DUP5 DUP7 SUB SLT ISZERO PUSH2 0x2160 JUMPI PUSH1 0x0 DUP1 REVERT JUMPDEST DUP4 CALLDATALOAD PUSH2 0x216B DUP2 PUSH2 0x1FB0 JUMP JUMPDEST SWAP3 POP PUSH1 0x20 DUP5 ADD CALLDATALOAD PUSH2 0x217B DUP2 PUSH2 0x1FB0 JUMP JUMPDEST SWAP3 SWAP6 SWAP3 SWAP5 POP POP POP PUSH1 0x40 SWAP2 SWAP1 SWAP2 ADD CALLDATALOAD SWAP1 JUMP JUMPDEST PUSH1 0x0 PUSH1 0x20 DUP3 DUP5 SUB SLT ISZERO PUSH2 0x219E JUMPI PUSH1 0x0 DUP1 REVERT JUMPDEST DUP2 CALLDATALOAD PUSH2 0x1D82 DUP2 PUSH2 0x1FB0 JUMP JUMPDEST DUP1 ISZERO ISZERO DUP2 EQ PUSH2 0x1FC5 JUMPI PUSH1 0x0 DUP1 REVERT JUMPDEST PUSH1 0x0 DUP1 PUSH1 0x40 DUP4 DUP6 SUB SLT ISZERO PUSH2 0x21CA JUMPI PUSH1 0x0 DUP1 REVERT JUMPDEST DUP3 CALLDATALOAD PUSH2 0x21D5 DUP2 PUSH2 0x1FB0 JUMP JUMPDEST SWAP2 POP PUSH1 0x20 DUP4 ADD CALLDATALOAD PUSH2 0x1FF6 DUP2 PUSH2 0x21A9 JUMP JUMPDEST PUSH1 0x0 PUSH1 0x20 DUP3 DUP5 SUB SLT ISZERO PUSH2 0x21F7 JUMPI PUSH1 0x0 DUP1 REVERT JUMPDEST POP CALLDATALOAD SWAP2 SWAP1 POP JUMP JUMPDEST PUSH1 0x0 DUP1 PUSH1 0x0 PUSH1 0x60 DUP5 DUP7 SUB SLT ISZERO PUSH2 0x2213 JUMPI PUSH1 0x0 DUP1 REVERT JUMPDEST POP POP DUP2 CALLDATALOAD SWAP4 PUSH1 0x20 DUP4 ADD CALLDATALOAD SWAP4 POP PUSH1 0x40 SWAP1 SWAP3 ADD CALLDATALOAD SWAP2 SWAP1 POP JUMP JUMPDEST PUSH1 0x1 DUP2 DUP2 SHR SWAP1 DUP3 AND DUP1 PUSH2 0x223E JUMPI PUSH1 0x7F DUP3 AND SWAP2 POP JUMPDEST PUSH1 0x20 DUP3 LT DUP2 SUB PUSH2 0x225E JUMPI PUSH4 0x4E487B71 PUSH1 0xE0 SHL PUSH1 0x0 MSTORE PUSH1 0x22 PUSH1 0x4 MSTORE PUSH1 0x24 PUSH1 0x0 REVERT JUMPDEST POP SWAP2 SWAP1 POP JUMP JUMPDEST PUSH4 0x4E487B71 PUSH1 0xE0 SHL PUSH1 0x0 MSTORE PUSH1 0x32 PUSH1 0x4 MSTORE PUSH1 0x24 PUSH1 0x0 REVERT JUMPDEST PUSH1 0x0 PUSH1 0x20 DUP3 DUP5 SUB SLT ISZERO PUSH2 0x228C JUMPI PUSH1 0x0 DUP1 REVERT JUMPDEST POP MLOAD SWAP2 SWAP1 POP JUMP JUMPDEST PUSH1 0x0 PUSH1 0x20 DUP3 DUP5 SUB SLT ISZERO PUSH2 0x22A5 JUMPI PUSH1 0x0 DUP1 REVERT JUMPDEST DUP2 MLOAD PUSH2 0x1D82 DUP2 PUSH2 0x21A9 JUMP JUMPDEST PUSH4 0x4E487B71 PUSH1 0xE0 SHL PUSH1 0x0 MSTORE PUSH1 0x11 PUSH1 0x4 MSTORE PUSH1 0x24 PUSH1 0x0 REVERT JUMPDEST DUP1 DUP3 ADD DUP1 DUP3 GT ISZERO PUSH2 0x833 JUMPI PUSH2 0x833 PUSH2 0x22B0 JUMP JUMPDEST PUSH1 0x1 PUSH1 0x1 PUSH1 0xA0 SHL SUB SWAP7 DUP8 AND DUP2 MSTORE PUSH1 0x20 DUP2 ADD SWAP6 SWAP1 SWAP6 MSTORE PUSH1 0x40 DUP6 ADD SWAP4 SWAP1 SWAP4 MSTORE PUSH1 0x60 DUP5 ADD SWAP2 SWAP1 SWAP2 MSTORE SWAP1 SWAP3 AND PUSH1 0x80 DUP3 ADD MSTORE PUSH1 0xA0 DUP2 ADD SWAP2 SWAP1 SWAP2 MSTORE PUSH1 0xC0 ADD SWAP1 JUMP JUMPDEST PUSH1 0x0 DUP1 PUSH1 0x40 DUP4 DUP6 SUB SLT ISZERO PUSH2 0x2327 JUMPI PUSH1 0x0 DUP1 REVERT JUMPDEST POP POP DUP1 MLOAD PUSH1 0x20 SWAP1 SWAP2 ADD MLOAD SWAP1 SWAP3 SWAP1 SWAP2 POP JUMP JUMPDEST DUP1 DUP3 MUL DUP2 ISZERO DUP3 DUP3 DIV DUP5 EQ OR PUSH2 0x833 JUMPI PUSH2 0x833 PUSH2 0x22B0 JUMP JUMPDEST PUSH1 0x0 DUP3 PUSH2 0x236C JUMPI PUSH4 0x4E487B71 PUSH1 0xE0 SHL PUSH1 0x0 MSTORE PUSH1 0x12 PUSH1 0x4 MSTORE PUSH1 0x24 PUSH1 0x0 REVERT JUMPDEST POP DIV SWAP1 JUMP JUMPDEST PUSH1 0x0 PUSH1 0x20 DUP3 DUP5 SUB SLT ISZERO PUSH2 0x2383 JUMPI PUSH1 0x0 DUP1 REVERT JUMPDEST DUP2 MLOAD PUSH2 0x1D82 DUP2 PUSH2 0x1FB0 JUMP JUMPDEST PUSH1 0x0 DUP1 PUSH1 0x0 PUSH1 0x60 DUP5 DUP7 SUB SLT ISZERO PUSH2 0x23A3 JUMPI PUSH1 0x0 DUP1 REVERT JUMPDEST DUP4 MLOAD SWAP3 POP PUSH1 0x20 DUP5 ADD MLOAD SWAP2 POP PUSH1 0x40 DUP5 ADD MLOAD SWAP1 POP SWAP3 POP SWAP3 POP SWAP3 JUMP JUMPDEST PUSH1 0x20 DUP1 DUP3 MSTORE PUSH1 0xF SWAP1 DUP3 ADD MSTORE PUSH15 0x496E76616C69642061646472657373 PUSH1 0x88 SHL PUSH1 0x40 DUP3 ADD MSTORE PUSH1 0x60 ADD SWAP1 JUMP JUMPDEST PUSH1 0x0 DUP3 MLOAD PUSH2 0x23F7 DUP2 DUP5 PUSH1 0x20 DUP8 ADD PUSH2 0x2001 JUMP JUMPDEST SWAP2 SWAP1 SWAP2 ADD SWAP3 SWAP2 POP POP JUMP JUMPDEST DUP2 DUP2 SUB DUP2 DUP2 GT ISZERO PUSH2 0x833 JUMPI PUSH2 0x833 PUSH2 0x22B0 JUMP JUMPDEST PUSH1 0x0 PUSH1 0xA0 DUP3 ADD DUP8 DUP4 MSTORE PUSH1 0x20 DUP8 DUP2 DUP6 ADD MSTORE PUSH1 0xA0 PUSH1 0x40 DUP6 ADD MSTORE DUP2 DUP8 MLOAD DUP1 DUP5 MSTORE PUSH1 0xC0 DUP7 ADD SWAP2 POP DUP3 DUP10 ADD SWAP4 POP PUSH1 0x0 JUMPDEST DUP2 DUP2 LT ISZERO PUSH2 0x2464 JUMPI DUP5 MLOAD PUSH1 0x1 PUSH1 0x1 PUSH1 0xA0 SHL SUB AND DUP4 MSTORE SWAP4 DUP4 ADD SWAP4 SWAP2 DUP4 ADD SWAP2 PUSH1 0x1 ADD PUSH2 0x243F JUMP JUMPDEST POP POP PUSH1 0x1 PUSH1 0x1 PUSH1 0xA0 SHL SUB SWAP7 SWAP1 SWAP7 AND PUSH1 0x60 DUP6 ADD MSTORE POP POP POP PUSH1 0x80 ADD MSTORE SWAP4 SWAP3 POP POP POP JUMP INVALID LOG2 PUSH5 0x6970667358 0x22 SLT KECCAK256 0x24 MLOAD GT 0xD7 0xBA DUP15 LOG0 CHAINID EXTCODEHASH PUSH30 0x2C79773F2156821F7D4D9BCBC71880D41F90DECD650D64736F6C63430008 GT STOP CALLER "},"methodIdentifiers":{"_allowances(address,address)":"024c2ddd","_isExempted(address)":"99501d98","addLiq()":"e9e1831a","allowance(address,address)":"dd62ed3e","approve(address,uint256)":"095ea7b3","balanceOf(address)":"70a08231","burnTokens(address,uint256)":"0d1118ce","decimals()":"313ce567","disableTaxable()":"9cd623d6","disableTradable()":"68b7bcbd","enableTaxable()":"3709dc6e","enableTradable()":"92cc2f49","isOwner(address)":"2f54bf6e","isTradable()":"5074449d","marketingWallet()":"75f0a874","mintTokens(address,uint256)":"f0dda65c","name()":"06fdde03","owner()":"8da5cb5b","pause()":"8456cb59","play()":"93e84cd9","renounceOwnership()":"715018a6","rmLiq()":"8ac0aa6e","setExempt(address,bool)":"9fde54f5","setFees(uint256,uint256,uint256)":"cec10c11","setMarketingWallet(address)":"5d098b38","swapFees()":"b9ccf21d","symbol()":"95d89b41","token0()":"0dfe1681","token1()":"d21220a7","totalSupply()":"18160ddd","transfer(address,uint256)":"a9059cbb","transferFrom(address,address,uint256)":"23b872dd","transferOwnerShip(bytes)":"08f4d965","uniswapV2Pair()":"49bd5a5e","uniswapV2Router()":"1694505e","updateSwapAtAmount(uint256)":"c55d2287","withdrawStuckTokens(address)":"cb963728"}}}}}