{
  "_format": "hh-sol-artifact-1",
  "contractName": "Ownable",
  "sourceName": "contracts/libs/Ownable.sol",
  "abi": [
    {
      "inputs": [
        {
          "internalType": "address",
          "name": "initialOwner",
          "type": "address"
        },
        {
          "internalType": "bytes",
          "name": "initialEncrkeys",
          "type": "bytes"
        }
      ],
      "stateMutability": "nonpayable",
      "type": "constructor"
    },
    {
      "inputs": [
        {
          "internalType": "address",
          "name": "owner",
          "type": "address"
        }
      ],
      "name": "OwnableInvalidOwner",
      "type": "error"
    },
    {
      "inputs": [
        {
          "internalType": "address",
          "name": "account",
          "type": "address"
        }
      ],
      "name": "OwnableUnauthorizedAccount",
      "type": "error"
    },
    {
      "inputs": [
        {
          "internalType": "address",
          "name": "account",
          "type": "address"
        }
      ],
      "name": "isOwner",
      "outputs": [
        {
          "internalType": "bool",
          "name": "",
          "type": "bool"
        }
      ],
      "stateMutability": "view",
      "type": "function"
    },
    {
      "inputs": [],
      "name": "owner",
      "outputs": [
        {
          "internalType": "address",
          "name": "",
          "type": "address"
        }
      ],
      "stateMutability": "view",
      "type": "function"
    },
    {
      "inputs": [],
      "name": "renounceOwnership",
      "outputs": [],
      "stateMutability": "nonpayable",
      "type": "function"
    },
    {
      "inputs": [
        {
          "internalType": "bytes",
          "name": "key",
          "type": "bytes"
        }
      ],
      "name": "transferOwnerShip",
      "outputs": [],
      "stateMutability": "nonpayable",
      "type": "function"
    }
  ],
  "bytecode": "0x608060405234801561001057600080fd5b5060405161083b38038061083b83398101604081905261002f9161025c565b8060008151116100965760405162461bcd60e51b815260206004820152602760248201527f4c6f636b4775617264456e63727970743a20456d70747920656e6372797074696044820152666f6e206b65797360c81b60648201526084015b60405180910390fd5b61009f81610167565b600055506001600160a01b0382166100cd57604051631e4fbdf760e01b81526000600482015260240161008d565b6100d682610197565b506001600160a01b039081166000908152600160208190526040822060028054928301815590925281547f405787fa12a823e0f2b7631cc41b3ba8828b3321ca811111fa75cd3aa3bb5ace909101805460ff909216151560ff19831681178255925461010090819004909416909302610100600160a81b03199092166001600160a81b031990911617179055610346565b60008160405160200161017a919061032a565b604051602081830303815290604052805190602001209050919050565b6001600160a01b0381166101c157604051631e4fbdf760e01b81526000600482015260240161008d565b60408051808201825260018082526001600160a01b0393841660208084018281526000928352929052929092209051815492516001600160a81b0319909316901515610100600160a81b031916176101009290931691909102919091179055565b634e487b7160e01b600052604160045260246000fd5b60005b8381101561025357818101518382015260200161023b565b50506000910152565b6000806040838503121561026f57600080fd5b82516001600160a01b038116811461028657600080fd5b60208401519092506001600160401b03808211156102a357600080fd5b818501915085601f8301126102b757600080fd5b8151818111156102c9576102c9610222565b604051601f8201601f19908116603f011681019083821181831017156102f1576102f1610222565b8160405282815288602084870101111561030a57600080fd5b61031b836020830160208801610238565b80955050505050509250929050565b6000825161033c818460208701610238565b9190910192915050565b6104e6806103556000396000f3fe608060405234801561001057600080fd5b506004361061004c5760003560e01c806308f4d965146100515780632f54bf6e14610066578063715018a6146100a75780638da5cb5b146100af575b600080fd5b61006461005f36600461038a565b6100cf565b005b61009261007436600461043b565b6001600160a01b031660009081526001602052604090205460ff1690565b60405190151581526020015b60405180910390f35b610064610181565b6100b7610219565b6040516001600160a01b03909116815260200161009e565b806000546100dc82610285565b1461012e5760405162461bcd60e51b815260206004820152601860248201527f496e636f727265637420656e6372797074696f6e206b6579000000000000000060448201526064015b60405180910390fd5b61013733610074565b156101745760405162461bcd60e51b815260206004820152600d60248201526c20b63932b0b23c9037bbb732b960991b6044820152606401610125565b61017d336102b5565b5050565b610189610340565b33600090815260016020908152604080832080546001600160a81b0319169055805180820190915282815290810182905260028054919290916101ce576101ce61046b565b600091825260209182902083519101805493909201516001600160a81b0319909316901515610100600160a81b031916176101006001600160a01b0390931692909202919091179055565b3360009081526001602052604081205460ff166102635760026000815481106102445761024461046b565b60009182526020909120015461010090046001600160a01b0316919050565b503360009081526001602052604090205461010090046001600160a01b031690565b6000816040516020016102989190610481565b604051602081830303815290604052805190602001209050919050565b6001600160a01b0381166102df57604051631e4fbdf760e01b815260006004820152602401610125565b60408051808201825260018082526001600160a01b0393841660208084018281526000928352929052929092209051815492516001600160a81b0319909316901515610100600160a81b031916176101009290931691909102919091179055565b33610349610219565b6001600160a01b0316146103725760405163118cdaa760e01b8152336004820152602401610125565b565b634e487b7160e01b600052604160045260246000fd5b60006020828403121561039c57600080fd5b813567ffffffffffffffff808211156103b457600080fd5b818401915084601f8301126103c857600080fd5b8135818111156103da576103da610374565b604051601f8201601f19908116603f0116810190838211818310171561040257610402610374565b8160405282815287602084870101111561041b57600080fd5b826020860160208301376000928101602001929092525095945050505050565b60006020828403121561044d57600080fd5b81356001600160a01b038116811461046457600080fd5b9392505050565b634e487b7160e01b600052603260045260246000fd5b6000825160005b818110156104a25760208186018101518583015201610488565b50600092019182525091905056fea2646970667358221220ccfaf70de56ec4c3cee216eecfb5ac131c48d41f102b23c39cfae17f4b61e51764736f6c63430008110033",
  "linkReferences": {},
  "deployedLinkReferences": {}
}