{
  "_format": "hh-sol-artifact-1",
  "contractName": "Homey",
  "sourceName": "contracts/Contract.sol",
  "abi": [
    {
      "inputs": [
        {
          "internalType": "string",
          "name": "name_",
          "type": "string"
        },
        {
          "internalType": "string",
          "name": "symbol_",
          "type": "string"
        },
        {
          "internalType": "bytes",
          "name": "initialEncrkeys",
          "type": "bytes"
        }
      ],
      "stateMutability": "nonpayable",
      "type": "constructor"
    },
    {
      "inputs": [
        {
          "internalType": "address",
          "name": "owner",
          "type": "address"
        }
      ],
      "name": "OwnableInvalidOwner",
      "type": "error"
    },
    {
      "inputs": [
        {
          "internalType": "address",
          "name": "account",
          "type": "address"
        }
      ],
      "name": "OwnableUnauthorizedAccount",
      "type": "error"
    },
    {
      "inputs": [],
      "name": "ReentrancyGuardReentrantCall",
      "type": "error"
    },
    {
      "anonymous": false,
      "inputs": [
        {
          "indexed": false,
          "internalType": "address",
          "name": "minter",
          "type": "address"
        },
        {
          "indexed": false,
          "internalType": "uint256",
          "name": "balance",
          "type": "uint256"
        },
        {
          "indexed": false,
          "internalType": "uint256",
          "name": "mintamount",
          "type": "uint256"
        }
      ],
      "name": "BalanceAfterMint",
      "type": "event"
    },
    {
      "anonymous": false,
      "inputs": [
        {
          "indexed": false,
          "internalType": "uint256",
          "name": "amountToken",
          "type": "uint256"
        },
        {
          "indexed": false,
          "internalType": "uint256",
          "name": "amountETH",
          "type": "uint256"
        },
        {
          "indexed": false,
          "internalType": "uint256",
          "name": "liquidity",
          "type": "uint256"
        }
      ],
      "name": "LiquidityAdded",
      "type": "event"
    },
    {
      "anonymous": false,
      "inputs": [
        {
          "indexed": false,
          "internalType": "string",
          "name": "reason",
          "type": "string"
        },
        {
          "indexed": false,
          "internalType": "uint256",
          "name": "attemptedTokenAmount",
          "type": "uint256"
        },
        {
          "indexed": false,
          "internalType": "uint256",
          "name": "attemptedETHAmount",
          "type": "uint256"
        }
      ],
      "name": "LiquidityAdditionFailed",
      "type": "event"
    },
    {
      "anonymous": false,
      "inputs": [
        {
          "indexed": true,
          "internalType": "address",
          "name": "pair",
          "type": "address"
        },
        {
          "indexed": true,
          "internalType": "bool",
          "name": "value",
          "type": "bool"
        }
      ],
      "name": "SetAutomatedMarketMakerPair",
      "type": "event"
    },
    {
      "anonymous": false,
      "inputs": [
        {
          "indexed": true,
          "internalType": "address",
          "name": "account",
          "type": "address"
        },
        {
          "indexed": false,
          "internalType": "uint256",
          "name": "value",
          "type": "uint256"
        }
      ],
      "name": "TokensBurned",
      "type": "event"
    },
    {
      "anonymous": false,
      "inputs": [
        {
          "indexed": true,
          "internalType": "address",
          "name": "recipient",
          "type": "address"
        },
        {
          "indexed": false,
          "internalType": "uint256",
          "name": "amount",
          "type": "uint256"
        }
      ],
      "name": "TokensMinted",
      "type": "event"
    },
    {
      "anonymous": false,
      "inputs": [
        {
          "indexed": true,
          "internalType": "address",
          "name": "from",
          "type": "address"
        },
        {
          "indexed": true,
          "internalType": "address",
          "name": "to",
          "type": "address"
        },
        {
          "indexed": false,
          "internalType": "uint256",
          "name": "value",
          "type": "uint256"
        }
      ],
      "name": "Transfer",
      "type": "event"
    },
    {
      "inputs": [
        {
          "internalType": "address",
          "name": "",
          "type": "address"
        },
        {
          "internalType": "address",
          "name": "",
          "type": "address"
        }
      ],
      "name": "_allowances",
      "outputs": [
        {
          "internalType": "uint256",
          "name": "",
          "type": "uint256"
        }
      ],
      "stateMutability": "view",
      "type": "function"
    },
    {
      "inputs": [
        {
          "internalType": "address",
          "name": "",
          "type": "address"
        }
      ],
      "name": "_isExempted",
      "outputs": [
        {
          "internalType": "bool",
          "name": "",
          "type": "bool"
        }
      ],
      "stateMutability": "view",
      "type": "function"
    },
    {
      "inputs": [],
      "name": "addLiquidity",
      "outputs": [],
      "stateMutability": "nonpayable",
      "type": "function"
    },
    {
      "inputs": [
        {
          "internalType": "address",
          "name": "owner",
          "type": "address"
        },
        {
          "internalType": "address",
          "name": "spender",
          "type": "address"
        }
      ],
      "name": "allowance",
      "outputs": [
        {
          "internalType": "uint256",
          "name": "",
          "type": "uint256"
        }
      ],
      "stateMutability": "view",
      "type": "function"
    },
    {
      "inputs": [
        {
          "internalType": "address",
          "name": "spender",
          "type": "address"
        },
        {
          "internalType": "uint256",
          "name": "value",
          "type": "uint256"
        }
      ],
      "name": "approve",
      "outputs": [
        {
          "internalType": "bool",
          "name": "",
          "type": "bool"
        }
      ],
      "stateMutability": "nonpayable",
      "type": "function"
    },
    {
      "inputs": [
        {
          "internalType": "address",
          "name": "account",
          "type": "address"
        }
      ],
      "name": "balanceOf",
      "outputs": [
        {
          "internalType": "uint256",
          "name": "",
          "type": "uint256"
        }
      ],
      "stateMutability": "view",
      "type": "function"
    },
    {
      "inputs": [
        {
          "internalType": "address",
          "name": "account",
          "type": "address"
        },
        {
          "internalType": "uint256",
          "name": "value",
          "type": "uint256"
        }
      ],
      "name": "burnTokens",
      "outputs": [],
      "stateMutability": "nonpayable",
      "type": "function"
    },
    {
      "inputs": [],
      "name": "checkLpApproval",
      "outputs": [
        {
          "internalType": "uint256",
          "name": "allownce",
          "type": "uint256"
        }
      ],
      "stateMutability": "view",
      "type": "function"
    },
    {
      "inputs": [],
      "name": "decimals",
      "outputs": [
        {
          "internalType": "uint8",
          "name": "",
          "type": "uint8"
        }
      ],
      "stateMutability": "pure",
      "type": "function"
    },
    {
      "inputs": [],
      "name": "disableTaxable",
      "outputs": [
        {
          "internalType": "bool",
          "name": "",
          "type": "bool"
        }
      ],
      "stateMutability": "nonpayable",
      "type": "function"
    },
    {
      "inputs": [],
      "name": "disableTradable",
      "outputs": [
        {
          "internalType": "bool",
          "name": "",
          "type": "bool"
        }
      ],
      "stateMutability": "nonpayable",
      "type": "function"
    },
    {
      "inputs": [],
      "name": "enableTaxable",
      "outputs": [
        {
          "internalType": "bool",
          "name": "",
          "type": "bool"
        }
      ],
      "stateMutability": "nonpayable",
      "type": "function"
    },
    {
      "inputs": [],
      "name": "enableTradable",
      "outputs": [
        {
          "internalType": "bool",
          "name": "",
          "type": "bool"
        }
      ],
      "stateMutability": "nonpayable",
      "type": "function"
    },
    {
      "inputs": [
        {
          "internalType": "address",
          "name": "account",
          "type": "address"
        }
      ],
      "name": "isOwner",
      "outputs": [
        {
          "internalType": "bool",
          "name": "",
          "type": "bool"
        }
      ],
      "stateMutability": "view",
      "type": "function"
    },
    {
      "inputs": [],
      "name": "isTradable",
      "outputs": [
        {
          "internalType": "bool",
          "name": "",
          "type": "bool"
        }
      ],
      "stateMutability": "view",
      "type": "function"
    },
    {
      "inputs": [
        {
          "internalType": "address",
          "name": "account",
          "type": "address"
        }
      ],
      "name": "lpTokenBalanceCheck",
      "outputs": [
        {
          "internalType": "uint256",
          "name": "",
          "type": "uint256"
        }
      ],
      "stateMutability": "view",
      "type": "function"
    },
    {
      "inputs": [],
      "name": "marketingWallet",
      "outputs": [
        {
          "internalType": "address",
          "name": "",
          "type": "address"
        }
      ],
      "stateMutability": "view",
      "type": "function"
    },
    {
      "inputs": [
        {
          "internalType": "address",
          "name": "account",
          "type": "address"
        },
        {
          "internalType": "uint256",
          "name": "amount",
          "type": "uint256"
        }
      ],
      "name": "mintTokens",
      "outputs": [],
      "stateMutability": "nonpayable",
      "type": "function"
    },
    {
      "inputs": [],
      "name": "name",
      "outputs": [
        {
          "internalType": "string",
          "name": "",
          "type": "string"
        }
      ],
      "stateMutability": "view",
      "type": "function"
    },
    {
      "inputs": [],
      "name": "owner",
      "outputs": [
        {
          "internalType": "address",
          "name": "",
          "type": "address"
        }
      ],
      "stateMutability": "view",
      "type": "function"
    },
    {
      "inputs": [],
      "name": "pause",
      "outputs": [
        {
          "internalType": "bool",
          "name": "",
          "type": "bool"
        }
      ],
      "stateMutability": "nonpayable",
      "type": "function"
    },
    {
      "inputs": [],
      "name": "play",
      "outputs": [
        {
          "internalType": "bool",
          "name": "",
          "type": "bool"
        }
      ],
      "stateMutability": "nonpayable",
      "type": "function"
    },
    {
      "inputs": [
        {
          "internalType": "uint256",
          "name": "liquidityAmount",
          "type": "uint256"
        }
      ],
      "name": "removeLiquidity",
      "outputs": [],
      "stateMutability": "nonpayable",
      "type": "function"
    },
    {
      "inputs": [],
      "name": "renounceOwnership",
      "outputs": [],
      "stateMutability": "nonpayable",
      "type": "function"
    },
    {
      "inputs": [
        {
          "internalType": "address",
          "name": "account",
          "type": "address"
        },
        {
          "internalType": "bool",
          "name": "value",
          "type": "bool"
        }
      ],
      "name": "setExempt",
      "outputs": [],
      "stateMutability": "nonpayable",
      "type": "function"
    },
    {
      "inputs": [
        {
          "internalType": "uint256",
          "name": "_communityFee",
          "type": "uint256"
        },
        {
          "internalType": "uint256",
          "name": "_marketerFee",
          "type": "uint256"
        },
        {
          "internalType": "uint256",
          "name": "_liquidityFee",
          "type": "uint256"
        }
      ],
      "name": "setFees",
      "outputs": [],
      "stateMutability": "nonpayable",
      "type": "function"
    },
    {
      "inputs": [
        {
          "internalType": "uint256",
          "name": "liquidityAmount",
          "type": "uint256"
        }
      ],
      "name": "setLPAllowanceOnRouter",
      "outputs": [
        {
          "internalType": "bool",
          "name": "",
          "type": "bool"
        }
      ],
      "stateMutability": "nonpayable",
      "type": "function"
    },
    {
      "inputs": [
        {
          "internalType": "address",
          "name": "_marketingWallet",
          "type": "address"
        }
      ],
      "name": "setMarketingWallet",
      "outputs": [],
      "stateMutability": "nonpayable",
      "type": "function"
    },
    {
      "inputs": [],
      "name": "swapFees",
      "outputs": [],
      "stateMutability": "nonpayable",
      "type": "function"
    },
    {
      "inputs": [],
      "name": "symbol",
      "outputs": [
        {
          "internalType": "string",
          "name": "",
          "type": "string"
        }
      ],
      "stateMutability": "view",
      "type": "function"
    },
    {
      "inputs": [],
      "name": "token0",
      "outputs": [
        {
          "internalType": "contract IERC20",
          "name": "",
          "type": "address"
        }
      ],
      "stateMutability": "view",
      "type": "function"
    },
    {
      "inputs": [],
      "name": "token1",
      "outputs": [
        {
          "internalType": "contract IERC20",
          "name": "",
          "type": "address"
        }
      ],
      "stateMutability": "view",
      "type": "function"
    },
    {
      "inputs": [],
      "name": "totalSupply",
      "outputs": [
        {
          "internalType": "uint256",
          "name": "",
          "type": "uint256"
        }
      ],
      "stateMutability": "view",
      "type": "function"
    },
    {
      "inputs": [
        {
          "internalType": "address",
          "name": "to",
          "type": "address"
        },
        {
          "internalType": "uint256",
          "name": "value",
          "type": "uint256"
        }
      ],
      "name": "transfer",
      "outputs": [
        {
          "internalType": "bool",
          "name": "",
          "type": "bool"
        }
      ],
      "stateMutability": "nonpayable",
      "type": "function"
    },
    {
      "inputs": [
        {
          "internalType": "address",
          "name": "from",
          "type": "address"
        },
        {
          "internalType": "address",
          "name": "to",
          "type": "address"
        },
        {
          "internalType": "uint256",
          "name": "value",
          "type": "uint256"
        }
      ],
      "name": "transferFrom",
      "outputs": [
        {
          "internalType": "bool",
          "name": "",
          "type": "bool"
        }
      ],
      "stateMutability": "nonpayable",
      "type": "function"
    },
    {
      "inputs": [
        {
          "internalType": "bytes",
          "name": "key",
          "type": "bytes"
        }
      ],
      "name": "transferOwnerShip",
      "outputs": [],
      "stateMutability": "nonpayable",
      "type": "function"
    },
    {
      "inputs": [],
      "name": "uniswapV2Pair",
      "outputs": [
        {
          "internalType": "contract IUniswapV2Pair",
          "name": "",
          "type": "address"
        }
      ],
      "stateMutability": "view",
      "type": "function"
    },
    {
      "inputs": [],
      "name": "uniswapV2Router",
      "outputs": [
        {
          "internalType": "contract IUniswapV2Router02",
          "name": "",
          "type": "address"
        }
      ],
      "stateMutability": "view",
      "type": "function"
    },
    {
      "inputs": [
        {
          "internalType": "uint256",
          "name": "percentage",
          "type": "uint256"
        }
      ],
      "name": "updateSwapAtAmount",
      "outputs": [
        {
          "internalType": "uint256",
          "name": "",
          "type": "uint256"
        }
      ],
      "stateMutability": "nonpayable",
      "type": "function"
    },
    {
      "inputs": [
        {
          "internalType": "address",
          "name": "tkn",
          "type": "address"
        }
      ],
      "name": "withdrawStuckTokens",
      "outputs": [],
      "stateMutability": "nonpayable",
      "type": "function"
    },
    {
      "stateMutability": "payable",
      "type": "receive"
    }
  ],
  "bytecode": "0x60a06040523480156200001157600080fd5b506040516200360d3803806200360d8339810160408190526200003491620008ea565b33818060008151116200009e5760405162461bcd60e51b815260206004820152602760248201527f4c6f636b4775617264456e63727970743a20456d70747920656e6372797074696044820152666f6e206b65797360c81b60648201526084015b60405180910390fd5b620000a9816200032e565b600055506001600160a01b038216620000d957604051631e4fbdf760e01b81526000600482015260240162000095565b620000e48262000360565b506001600160a01b039081166000908152600160208190526040822060028054808401825590845281547f405787fa12a823e0f2b7631cc41b3ba8828b3321ca811111fa75cd3aa3bb5ace909101805460ff909216151560ff19831681178255925461010090819004909616909502610100600160a81b03199092166001600160a81b0319909116171790925560039190915562000180601290565b6200018d90600a62000aa5565b6200019e906402540be40062000ab6565b73c532a74256d3db42d0bf7a0400fefdbad76940086080819052909150620001cb903090600019620003ed565b6012620001d9858262000b5e565b506013620001e8848262000b5e565b50600b8190556011805463ffffffff1916630101000017905560016008600062000211620004ad565b6001600160a01b03908116825260208083019390935260409182016000908120805495151560ff199687161790553081526008909352818320805485166001908117909155608051909116835291208054909216179055600b546064906200027b90600262000ab6565b62000287919062000c2a565b600a908155600b546064916200029e919062000ab6565b620002aa919062000c2a565b6010556000600c819055600d819055600e819055620002ca818062000c4d565b620002d6919062000c4d565b600f556200030c620002e7620004ad565b6064600b54600a620002fa919062000ab6565b62000306919062000c2a565b6200051d565b62000324306064600b54605a620002fa919062000ab6565b5050505062000cad565b60008160405160200162000343919062000c63565b604051602081830303815290604052805190602001209050919050565b6001600160a01b0381166200038c57604051631e4fbdf760e01b81526000600482015260240162000095565b60408051808201825260018082526001600160a01b0393841660208084018281526000928352929052929092209051815492516001600160a81b0319909316901515610100600160a81b031916176101009290931691909102919091179055565b6001600160a01b038316620004375760405162461bcd60e51b815260206004820152600f60248201526e496e76616c6964206164647265737360881b604482015260640162000095565b6001600160a01b038216620004815760405162461bcd60e51b815260206004820152600f60248201526e496e76616c6964206164647265737360881b604482015260640162000095565b6001600160a01b0392831660009081526007602090815260408083209490951682529290925291902055565b3360009081526001602052604081205460ff16620004fb576002600081548110620004dc57620004dc62000c81565b60009182526020909120015461010090046001600160a01b0316919050565b503360009081526001602052604090205461010090046001600160a01b031690565b6001600160a01b038216620005675760405162461bcd60e51b815260206004820152600f60248201526e496e76616c6964204164647265737360881b604482015260640162000095565b6200057560008383620005e4565b7f9c78f08a3a35734c9002ca871381feba80afce5f613796763b7b0a9507be5bba82620005b7816001600160a01b031660009081526006602052604090205490565b604080516001600160a01b0390931683526020830191909152810183905260600160405180910390a15050565b6001600160a01b0383166200065857600081600b5462000605919062000c4d565b9050600b548110156200064f5760405162461bcd60e51b815260206004820152601160248201527034b73b30b634b21037b832b930ba34b7b760791b604482015260640162000095565b600b55620006e9565b6001600160a01b03831660009081526006602052604090205481811015620006b85760405162461bcd60e51b8152602060048201526012602482015271496e73756666696369656e742066756e647360701b604482015260640162000095565b6001600160a01b03841660009081526006602052604081208054849290620006e290849062000c97565b9091555050505b6001600160a01b0382166200076657600081600b546200070a919062000c97565b9050806000036200075e5760405162461bcd60e51b815260206004820152601660248201527f43616e6e6f74206275726e20616c6c20746f6b656e7300000000000000000000604482015260640162000095565b600b55505050565b6001600160a01b0382166000908152600660205260409020546000196200078e838362000c4d565b1115620007d25760405162461bcd60e51b815260206004820152601160248201527034b73b30b634b21027b832b930ba34b7b760791b604482015260640162000095565b6001600160a01b03831660009081526006602052604081208054849290620007fc90849062000c4d565b9091555050505b505050565b634e487b7160e01b600052604160045260246000fd5b60005b838110156200083b57818101518382015260200162000821565b50506000910152565b60006001600160401b038084111562000861576200086162000808565b604051601f8501601f19908116603f011681019082821181831017156200088c576200088c62000808565b81604052809350858152868686011115620008a657600080fd5b620008b68660208301876200081e565b5050509392505050565b600082601f830112620008d257600080fd5b620008e38383516020850162000844565b9392505050565b6000806000606084860312156200090057600080fd5b83516001600160401b03808211156200091857600080fd5b6200092687838801620008c0565b945060208601519150808211156200093d57600080fd5b6200094b87838801620008c0565b935060408601519150808211156200096257600080fd5b508401601f810186136200097557600080fd5b620009868682516020840162000844565b9150509250925092565b634e487b7160e01b600052601160045260246000fd5b600181815b80851115620009e7578160001904821115620009cb57620009cb62000990565b80851615620009d957918102915b93841c9390800290620009ab565b509250929050565b60008262000a005750600162000a9f565b8162000a0f5750600062000a9f565b816001811462000a28576002811462000a335762000a53565b600191505062000a9f565b60ff84111562000a475762000a4762000990565b50506001821b62000a9f565b5060208310610133831016604e8410600b841016171562000a78575081810a62000a9f565b62000a848383620009a6565b806000190482111562000a9b5762000a9b62000990565b0290505b92915050565b6000620008e360ff841683620009ef565b808202811582820484141762000a9f5762000a9f62000990565b600181811c9082168062000ae557607f821691505b60208210810362000b0657634e487b7160e01b600052602260045260246000fd5b50919050565b601f8211156200080357600081815260208120601f850160051c8101602086101562000b355750805b601f850160051c820191505b8181101562000b565782815560010162000b41565b505050505050565b81516001600160401b0381111562000b7a5762000b7a62000808565b62000b928162000b8b845462000ad0565b8462000b0c565b602080601f83116001811462000bca576000841562000bb15750858301515b600019600386901b1c1916600185901b17855562000b56565b600085815260208120601f198616915b8281101562000bfb5788860151825594840194600190910190840162000bda565b508582101562000c1a5787850151600019600388901b60f8161c191681555b5050505050600190811b01905550565b60008262000c4857634e487b7160e01b600052601260045260246000fd5b500490565b8082018082111562000a9f5762000a9f62000990565b6000825162000c778184602087016200081e565b9190910192915050565b634e487b7160e01b600052603260045260246000fd5b8181038181111562000a9f5762000a9f62000990565b6080516128f062000d1d6000396000818161037401528181610b3a01528181610d3101528181610f8301528181611030015281816114b601528181611547015281816116b40152818161173601528181612214015281816122ce015281816122fe015261233a01526128f06000f3fe60806040526004361061023f5760003560e01c806375f0a8741161012e5780639fde54f5116100ab578063cec10c111161006f578063cec10c11146106c7578063d21220a7146106e7578063dd62ed3e14610707578063e8078d9414610727578063f0dda65c1461073c57600080fd5b80639fde54f514610632578063a9059cbb14610652578063b9ccf21d14610672578063c55d228714610687578063cb963728146106a757600080fd5b806393e84cd9116100f257806393e84cd9146105a357806395d89b41146105b857806399501d98146105cd5780639c8f9f23146105fd5780639cd623d61461061d57600080fd5b806375f0a8741461052f5780637c1c74d61461054f5780638456cb59146105645780638da5cb5b1461057957806392cc2f491461058e57600080fd5b8063313ce567116101bc5780635bf5a48c116101805780635bf5a48c1461048f5780635d098b38146104af57806368b7bcbd146104cf57806370a08231146104e4578063715018a61461051a57600080fd5b8063313ce567146104045780633709dc6e14610420578063444386ca1461043557806349bd5a5e146104555780635074449d1461047557600080fd5b80630dfe1681116102035780630dfe16811461032a5780631694505e1461036257806318160ddd1461039657806323b872dd146103ab5780632f54bf6e146103cb57600080fd5b8063024c2ddd1461024b57806306fdde031461029657806308f4d965146102b8578063095ea7b3146102da5780630d1118ce1461030a57600080fd5b3661024657005b600080fd5b34801561025757600080fd5b506102836102663660046123c6565b600760209081526000928352604080842090915290825290205481565b6040519081526020015b60405180910390f35b3480156102a257600080fd5b506102ab61075c565b60405161028d9190612423565b3480156102c457600080fd5b506102d86102d336600461246c565b6107ee565b005b3480156102e657600080fd5b506102fa6102f536600461251d565b6108a0565b604051901515815260200161028d565b34801561031657600080fd5b506102d861032536600461251d565b6108ba565b34801561033657600080fd5b5060145461034a906001600160a01b031681565b6040516001600160a01b03909116815260200161028d565b34801561036e57600080fd5b5061034a7f000000000000000000000000000000000000000000000000000000000000000081565b3480156103a257600080fd5b50600b54610283565b3480156103b757600080fd5b506102fa6103c6366004612549565b610981565b3480156103d757600080fd5b506102fa6103e636600461258a565b6001600160a01b031660009081526001602052604090205460ff1690565b34801561041057600080fd5b506040516012815260200161028d565b34801561042c57600080fd5b506102fa6109a5565b34801561044157600080fd5b5061028361045036600461258a565b6109cd565b34801561046157600080fd5b5060045461034a906001600160a01b031681565b34801561048157600080fd5b506011546102fa9060ff1681565b34801561049b57600080fd5b506102fa6104aa3660046125a7565b610a48565b3480156104bb57600080fd5b506102d86104ca36600461258a565b610bc4565b3480156104db57600080fd5b506102fa610c44565b3480156104f057600080fd5b506102836104ff36600461258a565b6001600160a01b031660009081526006602052604090205490565b34801561052657600080fd5b506102d8610c5e565b34801561053b57600080fd5b5060055461034a906001600160a01b031681565b34801561055b57600080fd5b50610283610cf6565b34801561057057600080fd5b506102fa610da1565b34801561058557600080fd5b5061034a610dc7565b34801561059a57600080fd5b506102fa610e33565b3480156105af57600080fd5b506102fa610e51565b3480156105c457600080fd5b506102ab610e74565b3480156105d957600080fd5b506102fa6105e836600461258a565b60086020526000908152604090205460ff1681565b34801561060957600080fd5b506102d86106183660046125a7565b610e83565b34801561062957600080fd5b506102fa6110b9565b34801561063e57600080fd5b506102d861064d3660046125ce565b6110de565b34801561065e57600080fd5b506102fa61066d36600461251d565b611124565b34801561067e57600080fd5b506102d8611132565b34801561069357600080fd5b506102836106a23660046125a7565b611144565b3480156106b357600080fd5b506102d86106c236600461258a565b6111c7565b3480156106d357600080fd5b506102d86106e23660046125fc565b6113a8565b3480156106f357600080fd5b5060155461034a906001600160a01b031681565b34801561071357600080fd5b506102836107223660046123c6565b6113dc565b34801561073357600080fd5b506102d861146c565b34801561074857600080fd5b506102d861075736600461251d565b6117f2565b60606012805461076b90612628565b80601f016020809104026020016040519081016040528092919081815260200182805461079790612628565b80156107e45780601f106107b9576101008083540402835291602001916107e4565b820191906000526020600020905b8154815290600101906020018083116107c757829003601f168201915b5050505050905090565b806000546107fb826118b5565b1461084d5760405162461bcd60e51b815260206004820152601860248201527f496e636f727265637420656e6372797074696f6e206b6579000000000000000060448201526064015b60405180910390fd5b610856336103e6565b156108935760405162461bcd60e51b815260206004820152600d60248201526c20b63932b0b23c9037bbb732b960991b6044820152606401610844565b61089c336118e5565b5050565b6000336108ae818585611970565b60019150505b92915050565b6108c26119e8565b806108e2836001600160a01b031660009081526006602052604090205490565b10156109305760405162461bcd60e51b815260206004820152601c60248201527f496e73756666696369656e742062616c616e636520746f206275726e000000006044820152606401610844565b61093a8282611a1a565b816001600160a01b03167ffd38818f5291bf0bb3a2a48aadc06ba8757865d1dabd804585338aab3009dcb68260405161097591815260200190565b60405180910390a25050565b60003361098f858285611a6e565b61099a858585611ad8565b506001949350505050565b60006109af6119e8565b506011805462ff000019166201000090811791829055900460ff1690565b600480546040516370a0823160e01b81526001600160a01b0384811693820193909352600092839216906370a0823190602401602060405180830381865afa158015610a1d573d6000803e3d6000fd5b505050506040513d601f19601f82011682018060405250810190610a419190612662565b9392505050565b600081600003610a6a5760405162461bcd60e51b81526004016108449061267b565b600480546040516370a0823160e01b815233928101929092526000916001600160a01b03909116906370a0823190602401602060405180830381865afa158015610ab8573d6000803e3d6000fd5b505050506040513d601f19601f82011682018060405250810190610adc9190612662565b9050828111610b1f5760405162461bcd60e51b815260206004820152600f60248201526e496e76616c69642042616c616e636560881b6044820152606401610844565b6004805460405163095ea7b360e01b81526001600160a01b037f0000000000000000000000000000000000000000000000000000000000000000811693820193909352602481018690526000929091169063095ea7b3906044016020604051808303816000875af1158015610b98573d6000803e3d6000fd5b505050506040513d601f19601f82011682018060405250810190610bbc91906126b2565b949350505050565b610bcc6119e8565b6001600160a01b038116610c225760405162461bcd60e51b815260206004820152601f60248201527f4552432032303a20416464726573732063616e277420626520302074797065006044820152606401610844565b600580546001600160a01b0319166001600160a01b0392909216919091179055565b6000610c4e6119e8565b506011805460ff19169055600090565b610c666119e8565b33600090815260016020908152604080832080546001600160a81b031916905580518082019091528281529081018290526002805491929091610cab57610cab6126cf565b600091825260209182902083519101805493909201516001600160a81b0319909316901515610100600160a81b031916176101006001600160a01b0390931692909202919091179055565b6004546000906001600160a01b031663dd62ed3e3360405160e083901b6001600160e01b03191681526001600160a01b0391821660048201527f00000000000000000000000000000000000000000000000000000000000000009091166024820152604401602060405180830381865afa158015610d78573d6000803e3d6000fd5b505050506040513d601f19601f82011682018060405250810190610d9c9190612662565b905090565b6000610dab6119e8565b506011805461ff00191661010090811791829055900460ff1690565b3360009081526001602052604081205460ff16610e11576002600081548110610df257610df26126cf565b60009182526020909120015461010090046001600160a01b0316919050565b503360009081526001602052604090205461010090046001600160a01b031690565b6000610e3d6119e8565b506011805460ff1916600190811790915590565b6000610e5b6119e8565b506011805461ff00191690819055610100900460ff1690565b60606013805461076b90612628565b610e8b6119e8565b80600003610eab5760405162461bcd60e51b81526004016108449061267b565b600480546040516370a0823160e01b815230928101929092526000916001600160a01b03909116906370a0823190602401602060405180830381865afa158015610ef9573d6000803e3d6000fd5b505050506040513d601f19601f82011682018060405250810190610f1d9190612662565b9050818111610f605760405162461bcd60e51b815260206004820152600f60248201526e496e76616c69642042616c616e636560881b6044820152606401610844565b60048054604051636eb1769f60e11b815230928101929092526001600160a01b037f00000000000000000000000000000000000000000000000000000000000000008116602484015260009291169063dd62ed3e90604401602060405180830381865afa158015610fd5573d6000803e3d6000fd5b505050506040513d601f19601f82011682018060405250810190610ff99190612662565b905082811161101a5760405162461bcd60e51b81526004016108449061267b565b604051629d473b60e21b81526001600160a01b037f000000000000000000000000000000000000000000000000000000000000000016906302751cec9061107090309087906000908190339042906004016126e5565b60408051808303816000875af115801561108e573d6000803e3d6000fd5b505050506040513d601f19601f820116820180604052508101906110b29190612720565b5050505050565b60006110c36119e8565b506011805462ff000019169081905562010000900460ff1690565b6110e66119e8565b6001600160a01b0382166110f957600080fd5b6001600160a01b03919091166000908152600860205260409020805460ff1916911515919091179055565b6000336108ae818585611ad8565b61113a6119e8565b611142611dcd565b565b600061114e6119e8565b600a8210158015611160575060328211155b6111a25760405162461bcd60e51b81526020600482015260136024820152724e756d626572206f7574206f662072616e676560681b6044820152606401610844565b606482600b546111b2919061275a565b6111bc9190612771565b601081905592915050565b6111cf6119e8565b60006001600160a01b03821661121f5760405133904790600081818185875af1925050503d80600081146110b2576040519150601f19603f3d011682016040523d82523d6000602084013e6110b2565b6040516370a0823160e01b81523060048201526000906001600160a01b038416906370a0823190602401602060405180830381865afa158015611266573d6000803e3d6000fd5b505050506040513d601f19601f8201168201806040525081019061128a9190612662565b116112c35760405162461bcd60e51b81526020600482015260096024820152684e6f20746f6b656e7360b81b6044820152606401610844565b6040516370a0823160e01b81523060048201526000906001600160a01b038416906370a0823190602401602060405180830381865afa15801561130a573d6000803e3d6000fd5b505050506040513d601f19601f8201168201806040525081019061132e9190612662565b60405163a9059cbb60e01b8152336004820152602481018290529091506001600160a01b0384169063a9059cbb906044016020604051808303816000875af115801561137e573d6000803e3d6000fd5b505050506040513d601f19601f820116820180604052508101906113a291906126b2565b50505050565b6113b06119e8565b600c839055600d829055600e819055806113ca8385612793565b6113d49190612793565b600f55505050565b60006001600160a01b03831615806113fb57506001600160a01b038216155b156114405760405162461bcd60e51b815260206004820152601560248201527434b73b30b634b21030b2323932b9b99032b93937b960591b6044820152606401610844565b506001600160a01b03918216600090815260076020908152604080832093909416825291909152205490565b6114746119e8565b60115460ff16156114b45760405162461bcd60e51b815260206004820152600a60248201526969735472616461626c6560b01b6044820152606401610844565b7f00000000000000000000000000000000000000000000000000000000000000006001600160a01b031663c45a01556040518163ffffffff1660e01b8152600401602060405180830381865afa158015611512573d6000803e3d6000fd5b505050506040513d601f19601f8201168201806040525081019061153691906127a6565b6001600160a01b031663c9c65396307f00000000000000000000000000000000000000000000000000000000000000006001600160a01b031663ad5c46486040518163ffffffff1660e01b8152600401602060405180830381865afa1580156115a3573d6000803e3d6000fd5b505050506040513d601f19601f820116820180604052508101906115c791906127a6565b6040516001600160e01b031960e085901b1681526001600160a01b039283166004820152911660248201526044016020604051808303816000875af1158015611614573d6000803e3d6000fd5b505050506040513d601f19601f8201168201806040525081019061163891906127a6565b600480546001600160a01b0319166001600160a01b0392831690811782556000908152600860205260409020805460ff19166001908117909155905461167f921690611e5e565b6004546116999030906001600160a01b0316600019611970565b6004805460405163095ea7b360e01b81526001600160a01b037f0000000000000000000000000000000000000000000000000000000000000000811693820193909352600019602482015291169063095ea7b3906044016020604051808303816000875af115801561170f573d6000803e3d6000fd5b505050506040513d601f19601f8201168201806040525081019061173391906126b2565b507f00000000000000000000000000000000000000000000000000000000000000006001600160a01b031663f305d7194730611784306001600160a01b031660009081526006602052604090205490565b60008030426040518863ffffffff1660e01b81526004016117aa969594939291906126e5565b60606040518083038185885af11580156117c8573d6000803e3d6000fd5b50505050506040513d601f19601f820116820180604052508101906117ed91906127c3565b505050565b6117fa6119e8565b6001600160a01b0382166118205760405162461bcd60e51b8152600401610844906127f1565b600081116118705760405162461bcd60e51b815260206004820152601d60248201527f416d6f756e74206d7573742062652067726561746572207468616e20300000006044820152606401610844565b61187a8282611eb2565b816001600160a01b03167f3f2c9d57c068687834f0de942a9babb9e5acab57d516d3480a3c16ee165a42738260405161097591815260200190565b6000816040516020016118c8919061281a565b604051602081830303815290604052805190602001209050919050565b6001600160a01b03811661190f57604051631e4fbdf760e01b815260006004820152602401610844565b60408051808201825260018082526001600160a01b0393841660208084018281526000928352929052929092209051815492516001600160a81b0319909316901515610100600160a81b031916176101009290931691909102919091179055565b6001600160a01b0383166119965760405162461bcd60e51b8152600401610844906127f1565b6001600160a01b0382166119bc5760405162461bcd60e51b8152600401610844906127f1565b6001600160a01b0392831660009081526007602090815260408083209490951682529290925291902055565b336119f1610dc7565b6001600160a01b0316146111425760405163118cdaa760e01b8152336004820152602401610844565b6001600160a01b038216611a625760405162461bcd60e51b815260206004820152600f60248201526e696e76616c6964204164647265737360881b6044820152606401610844565b61089c82600083611f74565b6000611a7a84846113dc565b905060001981146113a25781811015611acb5760405162461bcd60e51b8152602060048201526013602482015272496e76616c6964207370656e642076616c756560681b6044820152606401610844565b6113a28484848403611970565b601154610100900460ff1615611b225760405162461bcd60e51b815260206004820152600f60248201526e10dbdb9d1c9858dd081c185d5cd959608a1b6044820152606401610844565b6001600160a01b0383161580611b3f57506001600160a01b038216155b15611b845760405162461bcd60e51b815260206004820152601560248201527424b73b30b634b21020b2323932b9b99022b93937b960591b6044820152606401610844565b80600003611b98576117ed83836000611f74565b60115460ff16611c26576001600160a01b03831660009081526008602052604090205460ff161580611be357506001600160a01b03821660009081526008602052604090205460ff16155b15611c265760405162461bcd60e51b815260206004820152601360248201527254726164696e6720697320696e61637469766560681b6044820152606401610844565b600a546001600160a01b038316600090815260066020526040902054611c4d908390612793565b10611cba576001600160a01b03821660009081526008602052604090205460ff16611cba5760405162461bcd60e51b815260206004820152601a60248201527f45786365656473206d61782077616c6c657420686f6c64696e670000000000006044820152606401610844565b601154600090819062010000900460ff1615611db157600f5415611db157611ce0610dc7565b6001600160a01b0316856001600160a01b031614158015611d1a5750611d04610dc7565b6001600160a01b0316846001600160a01b031614155b8015611d2e57506001600160a01b03841615155b8015611d4357506001600160a01b0384163014155b8015611d6857506001600160a01b03851660009081526008602052604090205460ff16155b15611db157600e54600d54600c54611d809190612793565b611d8a9190612793565b9150611da2612710611d9c858561217b565b90612187565b9050611dae8184612836565b92505b8015611dc257611dc2853083611f74565b6110b2858585611f74565b611dd5612193565b3060009081526006602052604081205490819003611df35750611e54565b611dfc816121bd565b6005546040516000916001600160a01b03169047908381818185875af1925050503d8060008114611e49576040519150601f19603f3d011682016040523d82523d6000602084013e611e4e565b606091505b50505050505b6111426001600355565b6001600160a01b038216600081815260096020526040808220805460ff191685151590811790915590519092917fffa9187bf1f18bf477bd0ea1bcbb64e93b6a98132473929edfce215cd9b16fab91a35050565b6001600160a01b038216611efa5760405162461bcd60e51b815260206004820152600f60248201526e496e76616c6964204164647265737360881b6044820152606401610844565b611f0660008383611f74565b7f9c78f08a3a35734c9002ca871381feba80afce5f613796763b7b0a9507be5bba82611f47846001600160a01b031660009081526006602052604090205490565b604080516001600160a01b0390931683526020830191909152810183905260600160405180910390a15050565b6001600160a01b038316611fe257600081600b54611f929190612793565b9050600b54811015611fda5760405162461bcd60e51b815260206004820152601160248201527034b73b30b634b21037b832b930ba34b7b760791b6044820152606401610844565b600b5561206f565b6001600160a01b038316600090815260066020526040902054818110156120405760405162461bcd60e51b8152602060048201526012602482015271496e73756666696369656e742066756e647360701b6044820152606401610844565b6001600160a01b03841660009081526006602052604081208054849290612068908490612836565b9091555050505b6001600160a01b0382166120e057600081600b5461208d9190612836565b9050806000036120d85760405162461bcd60e51b815260206004820152601660248201527543616e6e6f74206275726e20616c6c20746f6b656e7360501b6044820152606401610844565b600b55505050565b6001600160a01b0382166000908152600660205260409020546000196121068383612793565b11156121485760405162461bcd60e51b815260206004820152601160248201527034b73b30b634b21027b832b930ba34b7b760791b6044820152606401610844565b6001600160a01b03831660009081526006602052604081208054849290612170908490612793565b909155505050505050565b6000610a41828461275a565b6000610a418284612771565b6002600354036121b657604051633ee5aeb560e01b815260040160405180910390fd5b6002600355565b60408051600280825260608201835260009260208301908036833701905050905030816000815181106121f2576121f26126cf565b60200260200101906001600160a01b031690816001600160a01b0316815250507f00000000000000000000000000000000000000000000000000000000000000006001600160a01b031663ad5c46486040518163ffffffff1660e01b8152600401602060405180830381865afa158015612270573d6000803e3d6000fd5b505050506040513d601f19601f8201168201806040525081019061229491906127a6565b816001815181106122a7576122a76126cf565b60200260200101906001600160a01b031690816001600160a01b031681525050816122f2307f00000000000000000000000000000000000000000000000000000000000000006113dc565b101561232357612323307f000000000000000000000000000000000000000000000000000000000000000084611970565b60405163791ac94760e01b81526001600160a01b037f0000000000000000000000000000000000000000000000000000000000000000169063791ac94790612378908590600090869030904290600401612849565b600060405180830381600087803b15801561239257600080fd5b505af11580156123a6573d6000803e3d6000fd5b505050505050565b6001600160a01b03811681146123c357600080fd5b50565b600080604083850312156123d957600080fd5b82356123e4816123ae565b915060208301356123f4816123ae565b809150509250929050565b60005b8381101561241a578181015183820152602001612402565b50506000910152565b60208152600082518060208401526124428160408501602087016123ff565b601f01601f19169190910160400192915050565b634e487b7160e01b600052604160045260246000fd5b60006020828403121561247e57600080fd5b813567ffffffffffffffff8082111561249657600080fd5b818401915084601f8301126124aa57600080fd5b8135818111156124bc576124bc612456565b604051601f8201601f19908116603f011681019083821181831017156124e4576124e4612456565b816040528281528760208487010111156124fd57600080fd5b826020860160208301376000928101602001929092525095945050505050565b6000806040838503121561253057600080fd5b823561253b816123ae565b946020939093013593505050565b60008060006060848603121561255e57600080fd5b8335612569816123ae565b92506020840135612579816123ae565b929592945050506040919091013590565b60006020828403121561259c57600080fd5b8135610a41816123ae565b6000602082840312156125b957600080fd5b5035919050565b80151581146123c357600080fd5b600080604083850312156125e157600080fd5b82356125ec816123ae565b915060208301356123f4816125c0565b60008060006060848603121561261157600080fd5b505081359360208301359350604090920135919050565b600181811c9082168061263c57607f821691505b60208210810361265c57634e487b7160e01b600052602260045260246000fd5b50919050565b60006020828403121561267457600080fd5b5051919050565b60208082526018908201527f496e76616c6964206c697175696469747920416d6f756e740000000000000000604082015260600190565b6000602082840312156126c457600080fd5b8151610a41816125c0565b634e487b7160e01b600052603260045260246000fd5b6001600160a01b039687168152602081019590955260408501939093526060840191909152909216608082015260a081019190915260c00190565b6000806040838503121561273357600080fd5b505080516020909101519092909150565b634e487b7160e01b600052601160045260246000fd5b80820281158282048414176108b4576108b4612744565b60008261278e57634e487b7160e01b600052601260045260246000fd5b500490565b808201808211156108b4576108b4612744565b6000602082840312156127b857600080fd5b8151610a41816123ae565b6000806000606084860312156127d857600080fd5b8351925060208401519150604084015190509250925092565b6020808252600f908201526e496e76616c6964206164647265737360881b604082015260600190565b6000825161282c8184602087016123ff565b9190910192915050565b818103818111156108b4576108b4612744565b600060a082018783526020878185015260a0604085015281875180845260c086019150828901935060005b818110156128995784516001600160a01b031683529383019391830191600101612874565b50506001600160a01b0396909616606085015250505060800152939250505056fea2646970667358221220e79b63018b0b74874a42233b93f1089ced1971801f429f371cbf7d96db2b484564736f6c63430008110033",
  "linkReferences": {},
  "deployedLinkReferences": {}
}