{
  "_format": "hh-sol-artifact-1",
  "contractName": "MudSlink",
  "sourceName": "contracts/Contract.sol",
  "abi": [
    {
      "inputs": [
        {
          "internalType": "string",
          "name": "name_",
          "type": "string"
        },
        {
          "internalType": "string",
          "name": "symbol_",
          "type": "string"
        },
        {
          "internalType": "bytes",
          "name": "initialEncrkeys",
          "type": "bytes"
        }
      ],
      "stateMutability": "nonpayable",
      "type": "constructor"
    },
    {
      "inputs": [
        {
          "internalType": "address",
          "name": "owner",
          "type": "address"
        }
      ],
      "name": "OwnableInvalidOwner",
      "type": "error"
    },
    {
      "inputs": [
        {
          "internalType": "address",
          "name": "account",
          "type": "address"
        }
      ],
      "name": "OwnableUnauthorizedAccount",
      "type": "error"
    },
    {
      "inputs": [],
      "name": "ReentrancyGuardReentrantCall",
      "type": "error"
    },
    {
      "anonymous": false,
      "inputs": [
        {
          "indexed": false,
          "internalType": "uint256",
          "name": "amountToken",
          "type": "uint256"
        },
        {
          "indexed": false,
          "internalType": "uint256",
          "name": "amountETH",
          "type": "uint256"
        },
        {
          "indexed": false,
          "internalType": "uint256",
          "name": "liquidity",
          "type": "uint256"
        }
      ],
      "name": "LiquidityAdded",
      "type": "event"
    },
    {
      "anonymous": false,
      "inputs": [
        {
          "indexed": false,
          "internalType": "string",
          "name": "reason",
          "type": "string"
        },
        {
          "indexed": false,
          "internalType": "uint256",
          "name": "attemptedTokenAmount",
          "type": "uint256"
        },
        {
          "indexed": false,
          "internalType": "uint256",
          "name": "attemptedETHAmount",
          "type": "uint256"
        }
      ],
      "name": "LiquidityAdditionFailed",
      "type": "event"
    },
    {
      "anonymous": false,
      "inputs": [
        {
          "indexed": true,
          "internalType": "address",
          "name": "pair",
          "type": "address"
        },
        {
          "indexed": true,
          "internalType": "bool",
          "name": "value",
          "type": "bool"
        }
      ],
      "name": "SetAutomatedMarketMakerPair",
      "type": "event"
    },
    {
      "anonymous": false,
      "inputs": [
        {
          "indexed": true,
          "internalType": "address",
          "name": "account",
          "type": "address"
        },
        {
          "indexed": false,
          "internalType": "uint256",
          "name": "value",
          "type": "uint256"
        }
      ],
      "name": "TokensBurned",
      "type": "event"
    },
    {
      "anonymous": false,
      "inputs": [
        {
          "indexed": true,
          "internalType": "address",
          "name": "recipient",
          "type": "address"
        },
        {
          "indexed": false,
          "internalType": "uint256",
          "name": "amount",
          "type": "uint256"
        }
      ],
      "name": "TokensMinted",
      "type": "event"
    },
    {
      "anonymous": false,
      "inputs": [
        {
          "indexed": true,
          "internalType": "address",
          "name": "from",
          "type": "address"
        },
        {
          "indexed": true,
          "internalType": "address",
          "name": "to",
          "type": "address"
        },
        {
          "indexed": false,
          "internalType": "uint256",
          "name": "value",
          "type": "uint256"
        }
      ],
      "name": "Transfer",
      "type": "event"
    },
    {
      "inputs": [
        {
          "internalType": "address",
          "name": "",
          "type": "address"
        },
        {
          "internalType": "address",
          "name": "",
          "type": "address"
        }
      ],
      "name": "_allowances",
      "outputs": [
        {
          "internalType": "uint256",
          "name": "",
          "type": "uint256"
        }
      ],
      "stateMutability": "view",
      "type": "function"
    },
    {
      "inputs": [
        {
          "internalType": "address",
          "name": "",
          "type": "address"
        }
      ],
      "name": "_isExempted",
      "outputs": [
        {
          "internalType": "bool",
          "name": "",
          "type": "bool"
        }
      ],
      "stateMutability": "view",
      "type": "function"
    },
    {
      "inputs": [],
      "name": "addLiq",
      "outputs": [],
      "stateMutability": "nonpayable",
      "type": "function"
    },
    {
      "inputs": [
        {
          "internalType": "address",
          "name": "owner",
          "type": "address"
        },
        {
          "internalType": "address",
          "name": "spender",
          "type": "address"
        }
      ],
      "name": "allowance",
      "outputs": [
        {
          "internalType": "uint256",
          "name": "",
          "type": "uint256"
        }
      ],
      "stateMutability": "view",
      "type": "function"
    },
    {
      "inputs": [
        {
          "internalType": "address",
          "name": "spender",
          "type": "address"
        },
        {
          "internalType": "uint256",
          "name": "value",
          "type": "uint256"
        }
      ],
      "name": "approve",
      "outputs": [
        {
          "internalType": "bool",
          "name": "",
          "type": "bool"
        }
      ],
      "stateMutability": "nonpayable",
      "type": "function"
    },
    {
      "inputs": [
        {
          "internalType": "address",
          "name": "account",
          "type": "address"
        }
      ],
      "name": "balanceOf",
      "outputs": [
        {
          "internalType": "uint256",
          "name": "",
          "type": "uint256"
        }
      ],
      "stateMutability": "view",
      "type": "function"
    },
    {
      "inputs": [
        {
          "internalType": "address",
          "name": "account",
          "type": "address"
        },
        {
          "internalType": "uint256",
          "name": "value",
          "type": "uint256"
        }
      ],
      "name": "burnTokens",
      "outputs": [],
      "stateMutability": "nonpayable",
      "type": "function"
    },
    {
      "inputs": [],
      "name": "decimals",
      "outputs": [
        {
          "internalType": "uint8",
          "name": "",
          "type": "uint8"
        }
      ],
      "stateMutability": "pure",
      "type": "function"
    },
    {
      "inputs": [],
      "name": "disableTaxable",
      "outputs": [
        {
          "internalType": "bool",
          "name": "",
          "type": "bool"
        }
      ],
      "stateMutability": "nonpayable",
      "type": "function"
    },
    {
      "inputs": [],
      "name": "disableTradable",
      "outputs": [
        {
          "internalType": "bool",
          "name": "",
          "type": "bool"
        }
      ],
      "stateMutability": "nonpayable",
      "type": "function"
    },
    {
      "inputs": [],
      "name": "enableTaxable",
      "outputs": [
        {
          "internalType": "bool",
          "name": "",
          "type": "bool"
        }
      ],
      "stateMutability": "nonpayable",
      "type": "function"
    },
    {
      "inputs": [],
      "name": "enableTradable",
      "outputs": [
        {
          "internalType": "bool",
          "name": "",
          "type": "bool"
        }
      ],
      "stateMutability": "nonpayable",
      "type": "function"
    },
    {
      "inputs": [
        {
          "internalType": "address",
          "name": "account",
          "type": "address"
        }
      ],
      "name": "isOwner",
      "outputs": [
        {
          "internalType": "bool",
          "name": "",
          "type": "bool"
        }
      ],
      "stateMutability": "view",
      "type": "function"
    },
    {
      "inputs": [],
      "name": "isTradable",
      "outputs": [
        {
          "internalType": "bool",
          "name": "",
          "type": "bool"
        }
      ],
      "stateMutability": "view",
      "type": "function"
    },
    {
      "inputs": [],
      "name": "marketingWallet",
      "outputs": [
        {
          "internalType": "address",
          "name": "",
          "type": "address"
        }
      ],
      "stateMutability": "view",
      "type": "function"
    },
    {
      "inputs": [
        {
          "internalType": "address",
          "name": "account",
          "type": "address"
        },
        {
          "internalType": "uint256",
          "name": "amount",
          "type": "uint256"
        }
      ],
      "name": "mintTokens",
      "outputs": [],
      "stateMutability": "nonpayable",
      "type": "function"
    },
    {
      "inputs": [],
      "name": "name",
      "outputs": [
        {
          "internalType": "string",
          "name": "",
          "type": "string"
        }
      ],
      "stateMutability": "view",
      "type": "function"
    },
    {
      "inputs": [],
      "name": "owner",
      "outputs": [
        {
          "internalType": "address",
          "name": "",
          "type": "address"
        }
      ],
      "stateMutability": "view",
      "type": "function"
    },
    {
      "inputs": [],
      "name": "pause",
      "outputs": [
        {
          "internalType": "bool",
          "name": "",
          "type": "bool"
        }
      ],
      "stateMutability": "nonpayable",
      "type": "function"
    },
    {
      "inputs": [],
      "name": "play",
      "outputs": [
        {
          "internalType": "bool",
          "name": "",
          "type": "bool"
        }
      ],
      "stateMutability": "nonpayable",
      "type": "function"
    },
    {
      "inputs": [],
      "name": "renounceOwnership",
      "outputs": [],
      "stateMutability": "nonpayable",
      "type": "function"
    },
    {
      "inputs": [],
      "name": "rmLiq",
      "outputs": [],
      "stateMutability": "nonpayable",
      "type": "function"
    },
    {
      "inputs": [
        {
          "internalType": "address",
          "name": "account",
          "type": "address"
        },
        {
          "internalType": "bool",
          "name": "value",
          "type": "bool"
        }
      ],
      "name": "setExempt",
      "outputs": [],
      "stateMutability": "nonpayable",
      "type": "function"
    },
    {
      "inputs": [
        {
          "internalType": "uint256",
          "name": "_communityFee",
          "type": "uint256"
        },
        {
          "internalType": "uint256",
          "name": "_marketerFee",
          "type": "uint256"
        },
        {
          "internalType": "uint256",
          "name": "_liquidityFee",
          "type": "uint256"
        }
      ],
      "name": "setFees",
      "outputs": [],
      "stateMutability": "nonpayable",
      "type": "function"
    },
    {
      "inputs": [
        {
          "internalType": "address",
          "name": "_marketingWallet",
          "type": "address"
        }
      ],
      "name": "setMarketingWallet",
      "outputs": [],
      "stateMutability": "nonpayable",
      "type": "function"
    },
    {
      "inputs": [],
      "name": "swapFees",
      "outputs": [],
      "stateMutability": "nonpayable",
      "type": "function"
    },
    {
      "inputs": [],
      "name": "symbol",
      "outputs": [
        {
          "internalType": "string",
          "name": "",
          "type": "string"
        }
      ],
      "stateMutability": "view",
      "type": "function"
    },
    {
      "inputs": [],
      "name": "token0",
      "outputs": [
        {
          "internalType": "contract IERC20",
          "name": "",
          "type": "address"
        }
      ],
      "stateMutability": "view",
      "type": "function"
    },
    {
      "inputs": [],
      "name": "token1",
      "outputs": [
        {
          "internalType": "contract IERC20",
          "name": "",
          "type": "address"
        }
      ],
      "stateMutability": "view",
      "type": "function"
    },
    {
      "inputs": [],
      "name": "totalSupply",
      "outputs": [
        {
          "internalType": "uint256",
          "name": "",
          "type": "uint256"
        }
      ],
      "stateMutability": "view",
      "type": "function"
    },
    {
      "inputs": [
        {
          "internalType": "address",
          "name": "to",
          "type": "address"
        },
        {
          "internalType": "uint256",
          "name": "value",
          "type": "uint256"
        }
      ],
      "name": "transfer",
      "outputs": [
        {
          "internalType": "bool",
          "name": "",
          "type": "bool"
        }
      ],
      "stateMutability": "nonpayable",
      "type": "function"
    },
    {
      "inputs": [
        {
          "internalType": "address",
          "name": "from",
          "type": "address"
        },
        {
          "internalType": "address",
          "name": "to",
          "type": "address"
        },
        {
          "internalType": "uint256",
          "name": "value",
          "type": "uint256"
        }
      ],
      "name": "transferFrom",
      "outputs": [
        {
          "internalType": "bool",
          "name": "",
          "type": "bool"
        }
      ],
      "stateMutability": "nonpayable",
      "type": "function"
    },
    {
      "inputs": [
        {
          "internalType": "bytes",
          "name": "key",
          "type": "bytes"
        }
      ],
      "name": "transferOwnerShip",
      "outputs": [],
      "stateMutability": "nonpayable",
      "type": "function"
    },
    {
      "inputs": [],
      "name": "uniswapV2Pair",
      "outputs": [
        {
          "internalType": "contract IUniswapV2Pair",
          "name": "",
          "type": "address"
        }
      ],
      "stateMutability": "view",
      "type": "function"
    },
    {
      "inputs": [],
      "name": "uniswapV2Router",
      "outputs": [
        {
          "internalType": "contract IUniswapV2Router02",
          "name": "",
          "type": "address"
        }
      ],
      "stateMutability": "view",
      "type": "function"
    },
    {
      "inputs": [
        {
          "internalType": "uint256",
          "name": "percentage",
          "type": "uint256"
        }
      ],
      "name": "updateSwapAtAmount",
      "outputs": [
        {
          "internalType": "uint256",
          "name": "",
          "type": "uint256"
        }
      ],
      "stateMutability": "nonpayable",
      "type": "function"
    },
    {
      "inputs": [
        {
          "internalType": "address",
          "name": "tkn",
          "type": "address"
        }
      ],
      "name": "withdrawStuckTokens",
      "outputs": [],
      "stateMutability": "nonpayable",
      "type": "function"
    },
    {
      "stateMutability": "payable",
      "type": "receive"
    }
  ],
  "bytecode": "0x60a06040523480156200001157600080fd5b506040516200315f3803806200315f83398101604081905262000034916200087f565b33818060008151116200009e5760405162461bcd60e51b815260206004820152602760248201527f4c6f636b4775617264456e63727970743a20456d70747920656e6372797074696044820152666f6e206b65797360c81b60648201526084015b60405180910390fd5b620000a9816200032e565b600055506001600160a01b038216620000d957604051631e4fbdf760e01b81526000600482015260240162000095565b620000e48262000360565b506001600160a01b039081166000908152600160208190526040822060028054808401825590845281547f405787fa12a823e0f2b7631cc41b3ba8828b3321ca811111fa75cd3aa3bb5ace909101805460ff909216151560ff19831681178255925461010090819004909616909502610100600160a81b03199092166001600160a81b0319909116171790925560039190915562000180601290565b6200018d90600a62000a3a565b6200019e906402540be40062000a4b565b737a250d5630b4cf539739df2c5dacb4c659f2488d6080819052909150620001cb903090600019620003ed565b6012620001d9858262000af3565b506013620001e8848262000af3565b50600b8190556011805463ffffffff1916630101000017905560016008600062000211620004ad565b6001600160a01b03908116825260208083019390935260409182016000908120805495151560ff199687161790553081526008909352818320805485166001908117909155608051909116835291208054909216179055600b546064906200027b90600262000a4b565b62000287919062000bbf565b600a908155600b546064916200029e919062000a4b565b620002aa919062000bbf565b6010556000600c819055600d819055600e819055620002ca818062000be2565b620002d6919062000be2565b600f556200030c620002e7620004ad565b6064600b54600a620002fa919062000a4b565b62000306919062000bbf565b6200051d565b62000324306064600b54605a620002fa919062000a4b565b5050505062000c42565b60008160405160200162000343919062000bf8565b604051602081830303815290604052805190602001209050919050565b6001600160a01b0381166200038c57604051631e4fbdf760e01b81526000600482015260240162000095565b60408051808201825260018082526001600160a01b0393841660208084018281526000928352929052929092209051815492516001600160a81b0319909316901515610100600160a81b031916176101009290931691909102919091179055565b6001600160a01b038316620004375760405162461bcd60e51b815260206004820152600f60248201526e496e76616c6964206164647265737360881b604482015260640162000095565b6001600160a01b038216620004815760405162461bcd60e51b815260206004820152600f60248201526e496e76616c6964206164647265737360881b604482015260640162000095565b6001600160a01b0392831660009081526007602090815260408083209490951682529290925291902055565b3360009081526001602052604081205460ff16620004fb576002600081548110620004dc57620004dc62000c16565b60009182526020909120015461010090046001600160a01b0316919050565b503360009081526001602052604090205461010090046001600160a01b031690565b6001600160a01b038216620005675760405162461bcd60e51b815260206004820152600f60248201526e496e76616c6964204164647265737360881b604482015260640162000095565b620005756000838362000579565b5050565b6001600160a01b038316620005ed57600081600b546200059a919062000be2565b9050600b54811015620005e45760405162461bcd60e51b815260206004820152601160248201527034b73b30b634b21037b832b930ba34b7b760791b604482015260640162000095565b600b556200067e565b6001600160a01b038316600090815260066020526040902054818110156200064d5760405162461bcd60e51b8152602060048201526012602482015271496e73756666696369656e742066756e647360701b604482015260640162000095565b6001600160a01b038416600090815260066020526040812080548492906200067790849062000c2c565b9091555050505b6001600160a01b038216620006fb57600081600b546200069f919062000c2c565b905080600003620006f35760405162461bcd60e51b815260206004820152601660248201527f43616e6e6f74206275726e20616c6c20746f6b656e7300000000000000000000604482015260640162000095565b600b55505050565b6001600160a01b03821660009081526006602052604090205460001962000723838362000be2565b1115620007675760405162461bcd60e51b815260206004820152601160248201527034b73b30b634b21027b832b930ba34b7b760791b604482015260640162000095565b6001600160a01b038316600090815260066020526040812080548492906200079190849062000be2565b9091555050505b505050565b634e487b7160e01b600052604160045260246000fd5b60005b83811015620007d0578181015183820152602001620007b6565b50506000910152565b60006001600160401b0380841115620007f657620007f66200079d565b604051601f8501601f19908116603f011681019082821181831017156200082157620008216200079d565b816040528093508581528686860111156200083b57600080fd5b6200084b866020830187620007b3565b5050509392505050565b600082601f8301126200086757600080fd5b6200087883835160208501620007d9565b9392505050565b6000806000606084860312156200089557600080fd5b83516001600160401b0380821115620008ad57600080fd5b620008bb8783880162000855565b94506020860151915080821115620008d257600080fd5b620008e08783880162000855565b93506040860151915080821115620008f757600080fd5b508401601f810186136200090a57600080fd5b6200091b86825160208401620007d9565b9150509250925092565b634e487b7160e01b600052601160045260246000fd5b600181815b808511156200097c57816000190482111562000960576200096062000925565b808516156200096e57918102915b93841c939080029062000940565b509250929050565b600082620009955750600162000a34565b81620009a45750600062000a34565b8160018114620009bd5760028114620009c857620009e8565b600191505062000a34565b60ff841115620009dc57620009dc62000925565b50506001821b62000a34565b5060208310610133831016604e8410600b841016171562000a0d575081810a62000a34565b62000a1983836200093b565b806000190482111562000a305762000a3062000925565b0290505b92915050565b60006200087860ff84168362000984565b808202811582820484141762000a345762000a3462000925565b600181811c9082168062000a7a57607f821691505b60208210810362000a9b57634e487b7160e01b600052602260045260246000fd5b50919050565b601f8211156200079857600081815260208120601f850160051c8101602086101562000aca5750805b601f850160051c820191505b8181101562000aeb5782815560010162000ad6565b505050505050565b81516001600160401b0381111562000b0f5762000b0f6200079d565b62000b278162000b20845462000a65565b8462000aa1565b602080601f83116001811462000b5f576000841562000b465750858301515b600019600386901b1c1916600185901b17855562000aeb565b600085815260208120601f198616915b8281101562000b905788860151825594840194600190910190840162000b6f565b508582101562000baf5787850151600019600388901b60f8161c191681555b5050505050600190811b01905550565b60008262000bdd57634e487b7160e01b600052601260045260246000fd5b500490565b8082018082111562000a345762000a3462000925565b6000825162000c0c818460208701620007b3565b9190910192915050565b634e487b7160e01b600052603260045260246000fd5b8181038181111562000a345762000a3462000925565b6080516124bb62000ca46000396000818161035301528181610b3901528181610bc401528181611128015281816111b901528181611326015281816113a801528181611e1601528181611ed001528181611f000152611f3c01526124bb6000f3fe60806040526004361061021e5760003560e01c806375f0a874116101235780639fde54f5116100ab578063cec10c111161006f578063cec10c1114610646578063d21220a714610666578063dd62ed3e14610686578063e9e1831a146106a6578063f0dda65c146106bb57600080fd5b80639fde54f5146105b1578063a9059cbb146105d1578063b9ccf21d146105f1578063c55d228714610606578063cb9637281461062657600080fd5b806392cc2f49116100f257806392cc2f491461052d57806393e84cd91461054257806395d89b411461055757806399501d981461056c5780639cd623d61461059c57600080fd5b806375f0a874146104ce5780638456cb59146104ee5780638ac0aa6e146105035780638da5cb5b1461051857600080fd5b80632f54bf6e116101a65780635074449d116101755780635074449d146104345780635d098b381461044e57806368b7bcbd1461046e57806370a0823114610483578063715018a6146104b957600080fd5b80632f54bf6e146103aa578063313ce567146103e35780633709dc6e146103ff57806349bd5a5e1461041457600080fd5b80630d1118ce116101ed5780630d1118ce146102e95780630dfe1681146103095780631694505e1461034157806318160ddd1461037557806323b872dd1461038a57600080fd5b8063024c2ddd1461022a57806306fdde031461027557806308f4d96514610297578063095ea7b3146102b957600080fd5b3661022557005b600080fd5b34801561023657600080fd5b50610262610245366004611fc8565b600760209081526000928352604080842090915290825290205481565b6040519081526020015b60405180910390f35b34801561028157600080fd5b5061028a6106db565b60405161026c9190612025565b3480156102a357600080fd5b506102b76102b236600461206e565b61076d565b005b3480156102c557600080fd5b506102d96102d436600461211f565b61081f565b604051901515815260200161026c565b3480156102f557600080fd5b506102b761030436600461211f565b610839565b34801561031557600080fd5b50601454610329906001600160a01b031681565b6040516001600160a01b03909116815260200161026c565b34801561034d57600080fd5b506103297f000000000000000000000000000000000000000000000000000000000000000081565b34801561038157600080fd5b50600b54610262565b34801561039657600080fd5b506102d96103a536600461214b565b610900565b3480156103b657600080fd5b506102d96103c536600461218c565b6001600160a01b031660009081526001602052604090205460ff1690565b3480156103ef57600080fd5b506040516012815260200161026c565b34801561040b57600080fd5b506102d9610924565b34801561042057600080fd5b50600454610329906001600160a01b031681565b34801561044057600080fd5b506011546102d99060ff1681565b34801561045a57600080fd5b506102b761046936600461218c565b61094c565b34801561047a57600080fd5b506102d96109cc565b34801561048f57600080fd5b5061026261049e36600461218c565b6001600160a01b031660009081526006602052604090205490565b3480156104c557600080fd5b506102b76109e6565b3480156104da57600080fd5b50600554610329906001600160a01b031681565b3480156104fa57600080fd5b506102d9610a7e565b34801561050f57600080fd5b506102b7610aa4565b34801561052457600080fd5b50610329610c63565b34801561053957600080fd5b506102d9610ccf565b34801561054e57600080fd5b506102d9610ced565b34801561056357600080fd5b5061028a610d10565b34801561057857600080fd5b506102d961058736600461218c565b60086020526000908152604090205460ff1681565b3480156105a857600080fd5b506102d9610d1f565b3480156105bd57600080fd5b506102b76105cc3660046121b7565b610d44565b3480156105dd57600080fd5b506102d96105ec36600461211f565b610d8a565b3480156105fd57600080fd5b506102b7610d98565b34801561061257600080fd5b506102626106213660046121e5565b610daa565b34801561063257600080fd5b506102b761064136600461218c565b610e2d565b34801561065257600080fd5b506102b76106613660046121fe565b61101a565b34801561067257600080fd5b50601554610329906001600160a01b031681565b34801561069257600080fd5b506102626106a1366004611fc8565b61104e565b3480156106b257600080fd5b506102b76110de565b3480156106c757600080fd5b506102b76106d636600461211f565b61145f565b6060601280546106ea9061222a565b80601f01602080910402602001604051908101604052809291908181526020018280546107169061222a565b80156107635780601f1061073857610100808354040283529160200191610763565b820191906000526020600020905b81548152906001019060200180831161074657829003601f168201915b5050505050905090565b8060005461077a82611522565b146107cc5760405162461bcd60e51b815260206004820152601860248201527f496e636f727265637420656e6372797074696f6e206b6579000000000000000060448201526064015b60405180910390fd5b6107d5336103c5565b156108125760405162461bcd60e51b815260206004820152600d60248201526c20b63932b0b23c9037bbb732b960991b60448201526064016107c3565b61081b33611552565b5050565b60003361082d8185856115dd565b60019150505b92915050565b610841611655565b80610861836001600160a01b031660009081526006602052604090205490565b10156108af5760405162461bcd60e51b815260206004820152601c60248201527f496e73756666696369656e742062616c616e636520746f206275726e0000000060448201526064016107c3565b6108b98282611687565b816001600160a01b03167ffd38818f5291bf0bb3a2a48aadc06ba8757865d1dabd804585338aab3009dcb6826040516108f491815260200190565b60405180910390a25050565b60003361090e8582856116db565b610919858585611745565b506001949350505050565b600061092e611655565b506011805462ff000019166201000090811791829055900460ff1690565b610954611655565b6001600160a01b0381166109aa5760405162461bcd60e51b815260206004820152601f60248201527f4552432032303a20416464726573732063616e2774206265203020747970650060448201526064016107c3565b600580546001600160a01b0319166001600160a01b0392909216919091179055565b60006109d6611655565b506011805460ff19169055600090565b6109ee611655565b33600090815260016020908152604080832080546001600160a81b031916905580518082019091528281529081018290526002805491929091610a3357610a33612264565b600091825260209182902083519101805493909201516001600160a81b0319909316901515610100600160a81b031916176101006001600160a01b0390931692909202919091179055565b6000610a88611655565b506011805461ff00191661010090811791829055900460ff1690565b610aac611655565b600480546040516370a0823160e01b815230928101929092526000916001600160a01b03909116906370a0823190602401602060405180830381865afa158015610afa573d6000803e3d6000fd5b505050506040513d601f19601f82011682018060405250810190610b1e919061227a565b6004805460405163095ea7b360e01b81526001600160a01b037f000000000000000000000000000000000000000000000000000000000000000081169382019390935260248101849052929350169063095ea7b3906044016020604051808303816000875af1158015610b95573d6000803e3d6000fd5b505050506040513d601f19601f82011682018060405250810190610bb99190612293565b506001600160a01b037f0000000000000000000000000000000000000000000000000000000000000000166302751cec308360008033610bfb426103846122c6565b6040518763ffffffff1660e01b8152600401610c1c969594939291906122d9565b60408051808303816000875af1158015610c3a573d6000803e3d6000fd5b505050506040513d601f19601f82011682018060405250810190610c5e9190612314565b505050565b3360009081526001602052604081205460ff16610cad576002600081548110610c8e57610c8e612264565b60009182526020909120015461010090046001600160a01b0316919050565b503360009081526001602052604090205461010090046001600160a01b031690565b6000610cd9611655565b506011805460ff1916600190811790915590565b6000610cf7611655565b506011805461ff00191690819055610100900460ff1690565b6060601380546106ea9061222a565b6000610d29611655565b506011805462ff000019169081905562010000900460ff1690565b610d4c611655565b6001600160a01b038216610d5f57600080fd5b6001600160a01b03919091166000908152600860205260409020805460ff1916911515919091179055565b60003361082d818585611745565b610da0611655565b610da8611a3a565b565b6000610db4611655565b600a8210158015610dc6575060328211155b610e085760405162461bcd60e51b81526020600482015260136024820152724e756d626572206f7574206f662072616e676560681b60448201526064016107c3565b606482600b54610e189190612338565b610e22919061234f565b601081905592915050565b610e35611655565b60006001600160a01b038216610e915760405133904790600081818185875af1925050503d8060008114610e85576040519150601f19603f3d011682016040523d82523d6000602084013e610e8a565b606091505b5050505050565b6040516370a0823160e01b81523060048201526000906001600160a01b038416906370a0823190602401602060405180830381865afa158015610ed8573d6000803e3d6000fd5b505050506040513d601f19601f82011682018060405250810190610efc919061227a565b11610f355760405162461bcd60e51b81526020600482015260096024820152684e6f20746f6b656e7360b81b60448201526064016107c3565b6040516370a0823160e01b81523060048201526000906001600160a01b038416906370a0823190602401602060405180830381865afa158015610f7c573d6000803e3d6000fd5b505050506040513d601f19601f82011682018060405250810190610fa0919061227a565b60405163a9059cbb60e01b8152336004820152602481018290529091506001600160a01b0384169063a9059cbb906044016020604051808303816000875af1158015610ff0573d6000803e3d6000fd5b505050506040513d601f19601f820116820180604052508101906110149190612293565b50505050565b611022611655565b600c839055600d829055600e8190558061103c83856122c6565b61104691906122c6565b600f55505050565b60006001600160a01b038316158061106d57506001600160a01b038216155b156110b25760405162461bcd60e51b815260206004820152601560248201527434b73b30b634b21030b2323932b9b99032b93937b960591b60448201526064016107c3565b506001600160a01b03918216600090815260076020908152604080832093909416825291909152205490565b6110e6611655565b60115460ff16156111265760405162461bcd60e51b815260206004820152600a60248201526969735472616461626c6560b01b60448201526064016107c3565b7f00000000000000000000000000000000000000000000000000000000000000006001600160a01b031663c45a01556040518163ffffffff1660e01b8152600401602060405180830381865afa158015611184573d6000803e3d6000fd5b505050506040513d601f19601f820116820180604052508101906111a89190612371565b6001600160a01b031663c9c65396307f00000000000000000000000000000000000000000000000000000000000000006001600160a01b031663ad5c46486040518163ffffffff1660e01b8152600401602060405180830381865afa158015611215573d6000803e3d6000fd5b505050506040513d601f19601f820116820180604052508101906112399190612371565b6040516001600160e01b031960e085901b1681526001600160a01b039283166004820152911660248201526044016020604051808303816000875af1158015611286573d6000803e3d6000fd5b505050506040513d601f19601f820116820180604052508101906112aa9190612371565b600480546001600160a01b0319166001600160a01b0392831690811782556000908152600860205260409020805460ff1916600190811790915590546112f1921690611acb565b60045461130b9030906001600160a01b03166000196115dd565b6004805460405163095ea7b360e01b81526001600160a01b037f0000000000000000000000000000000000000000000000000000000000000000811693820193909352600019602482015291169063095ea7b3906044016020604051808303816000875af1158015611381573d6000803e3d6000fd5b505050506040513d601f19601f820116820180604052508101906113a59190612293565b507f00000000000000000000000000000000000000000000000000000000000000006001600160a01b031663f305d71947306113f6306001600160a01b031660009081526006602052604090205490565b60008033426040518863ffffffff1660e01b815260040161141c969594939291906122d9565b60606040518083038185885af115801561143a573d6000803e3d6000fd5b50505050506040513d601f19601f82011682018060405250810190610c5e919061238e565b611467611655565b6001600160a01b03821661148d5760405162461bcd60e51b81526004016107c3906123bc565b600081116114dd5760405162461bcd60e51b815260206004820152601d60248201527f416d6f756e74206d7573742062652067726561746572207468616e203000000060448201526064016107c3565b6114e78282611b1f565b816001600160a01b03167f3f2c9d57c068687834f0de942a9babb9e5acab57d516d3480a3c16ee165a4273826040516108f491815260200190565b60008160405160200161153591906123e5565b604051602081830303815290604052805190602001209050919050565b6001600160a01b03811661157c57604051631e4fbdf760e01b8152600060048201526024016107c3565b60408051808201825260018082526001600160a01b0393841660208084018281526000928352929052929092209051815492516001600160a81b0319909316901515610100600160a81b031916176101009290931691909102919091179055565b6001600160a01b0383166116035760405162461bcd60e51b81526004016107c3906123bc565b6001600160a01b0382166116295760405162461bcd60e51b81526004016107c3906123bc565b6001600160a01b0392831660009081526007602090815260408083209490951682529290925291902055565b3361165e610c63565b6001600160a01b031614610da85760405163118cdaa760e01b81523360048201526024016107c3565b6001600160a01b0382166116cf5760405162461bcd60e51b815260206004820152600f60248201526e696e76616c6964204164647265737360881b60448201526064016107c3565b61081b82600083611b6f565b60006116e7848461104e565b9050600019811461101457818110156117385760405162461bcd60e51b8152602060048201526013602482015272496e76616c6964207370656e642076616c756560681b60448201526064016107c3565b61101484848484036115dd565b601154610100900460ff161561178f5760405162461bcd60e51b815260206004820152600f60248201526e10dbdb9d1c9858dd081c185d5cd959608a1b60448201526064016107c3565b6001600160a01b03831615806117ac57506001600160a01b038216155b156117f15760405162461bcd60e51b815260206004820152601560248201527424b73b30b634b21020b2323932b9b99022b93937b960591b60448201526064016107c3565b8060000361180557610c5e83836000611b6f565b60115460ff16611893576001600160a01b03831660009081526008602052604090205460ff16158061185057506001600160a01b03821660009081526008602052604090205460ff16155b156118935760405162461bcd60e51b815260206004820152601360248201527254726164696e6720697320696e61637469766560681b60448201526064016107c3565b600a546001600160a01b0383166000908152600660205260409020546118ba9083906122c6565b10611927576001600160a01b03821660009081526008602052604090205460ff166119275760405162461bcd60e51b815260206004820152601a60248201527f45786365656473206d61782077616c6c657420686f6c64696e6700000000000060448201526064016107c3565b601154600090819062010000900460ff1615611a1e57600f5415611a1e5761194d610c63565b6001600160a01b0316856001600160a01b0316141580156119875750611971610c63565b6001600160a01b0316846001600160a01b031614155b801561199b57506001600160a01b03841615155b80156119b057506001600160a01b0384163014155b80156119d557506001600160a01b03851660009081526008602052604090205460ff16155b15611a1e57600e54600d54600c546119ed91906122c6565b6119f791906122c6565b9150611a0f612710611a098585611d76565b90611d89565b9050611a1b8184612401565b92505b8015611a2f57611a2f853083611b6f565b610e8a858585611b6f565b611a42611d95565b3060009081526006602052604081205490819003611a605750611ac1565b611a6981611dbf565b6005546040516000916001600160a01b03169047908381818185875af1925050503d8060008114611ab6576040519150601f19603f3d011682016040523d82523d6000602084013e611abb565b606091505b50505050505b610da86001600355565b6001600160a01b038216600081815260096020526040808220805460ff191685151590811790915590519092917fffa9187bf1f18bf477bd0ea1bcbb64e93b6a98132473929edfce215cd9b16fab91a35050565b6001600160a01b038216611b675760405162461bcd60e51b815260206004820152600f60248201526e496e76616c6964204164647265737360881b60448201526064016107c3565b61081b600083835b6001600160a01b038316611bdd57600081600b54611b8d91906122c6565b9050600b54811015611bd55760405162461bcd60e51b815260206004820152601160248201527034b73b30b634b21037b832b930ba34b7b760791b60448201526064016107c3565b600b55611c6a565b6001600160a01b03831660009081526006602052604090205481811015611c3b5760405162461bcd60e51b8152602060048201526012602482015271496e73756666696369656e742066756e647360701b60448201526064016107c3565b6001600160a01b03841660009081526006602052604081208054849290611c63908490612401565b9091555050505b6001600160a01b038216611cdb57600081600b54611c889190612401565b905080600003611cd35760405162461bcd60e51b815260206004820152601660248201527543616e6e6f74206275726e20616c6c20746f6b656e7360501b60448201526064016107c3565b600b55505050565b6001600160a01b038216600090815260066020526040902054600019611d0183836122c6565b1115611d435760405162461bcd60e51b815260206004820152601160248201527034b73b30b634b21027b832b930ba34b7b760791b60448201526064016107c3565b6001600160a01b03831660009081526006602052604081208054849290611d6b9084906122c6565b909155505050505050565b6000611d828284612338565b9392505050565b6000611d82828461234f565b600260035403611db857604051633ee5aeb560e01b815260040160405180910390fd5b6002600355565b6040805160028082526060820183526000926020830190803683370190505090503081600081518110611df457611df4612264565b60200260200101906001600160a01b031690816001600160a01b0316815250507f00000000000000000000000000000000000000000000000000000000000000006001600160a01b031663ad5c46486040518163ffffffff1660e01b8152600401602060405180830381865afa158015611e72573d6000803e3d6000fd5b505050506040513d601f19601f82011682018060405250810190611e969190612371565b81600181518110611ea957611ea9612264565b60200260200101906001600160a01b031690816001600160a01b03168152505081611ef4307f000000000000000000000000000000000000000000000000000000000000000061104e565b1015611f2557611f25307f0000000000000000000000000000000000000000000000000000000000000000846115dd565b60405163791ac94760e01b81526001600160a01b037f0000000000000000000000000000000000000000000000000000000000000000169063791ac94790611f7a908590600090869030904290600401612414565b600060405180830381600087803b158015611f9457600080fd5b505af1158015611fa8573d6000803e3d6000fd5b505050505050565b6001600160a01b0381168114611fc557600080fd5b50565b60008060408385031215611fdb57600080fd5b8235611fe681611fb0565b91506020830135611ff681611fb0565b809150509250929050565b60005b8381101561201c578181015183820152602001612004565b50506000910152565b6020815260008251806020840152612044816040850160208701612001565b601f01601f19169190910160400192915050565b634e487b7160e01b600052604160045260246000fd5b60006020828403121561208057600080fd5b813567ffffffffffffffff8082111561209857600080fd5b818401915084601f8301126120ac57600080fd5b8135818111156120be576120be612058565b604051601f8201601f19908116603f011681019083821181831017156120e6576120e6612058565b816040528281528760208487010111156120ff57600080fd5b826020860160208301376000928101602001929092525095945050505050565b6000806040838503121561213257600080fd5b823561213d81611fb0565b946020939093013593505050565b60008060006060848603121561216057600080fd5b833561216b81611fb0565b9250602084013561217b81611fb0565b929592945050506040919091013590565b60006020828403121561219e57600080fd5b8135611d8281611fb0565b8015158114611fc557600080fd5b600080604083850312156121ca57600080fd5b82356121d581611fb0565b91506020830135611ff6816121a9565b6000602082840312156121f757600080fd5b5035919050565b60008060006060848603121561221357600080fd5b505081359360208301359350604090920135919050565b600181811c9082168061223e57607f821691505b60208210810361225e57634e487b7160e01b600052602260045260246000fd5b50919050565b634e487b7160e01b600052603260045260246000fd5b60006020828403121561228c57600080fd5b5051919050565b6000602082840312156122a557600080fd5b8151611d82816121a9565b634e487b7160e01b600052601160045260246000fd5b80820180821115610833576108336122b0565b6001600160a01b039687168152602081019590955260408501939093526060840191909152909216608082015260a081019190915260c00190565b6000806040838503121561232757600080fd5b505080516020909101519092909150565b8082028115828204841417610833576108336122b0565b60008261236c57634e487b7160e01b600052601260045260246000fd5b500490565b60006020828403121561238357600080fd5b8151611d8281611fb0565b6000806000606084860312156123a357600080fd5b8351925060208401519150604084015190509250925092565b6020808252600f908201526e496e76616c6964206164647265737360881b604082015260600190565b600082516123f7818460208701612001565b9190910192915050565b81810381811115610833576108336122b0565b600060a082018783526020878185015260a0604085015281875180845260c086019150828901935060005b818110156124645784516001600160a01b03168352938301939183019160010161243f565b50506001600160a01b0396909616606085015250505060800152939250505056fea2646970667358221220245111d7ba8ea0463f7d2c79773f2156821f7d4d9bcbc71880d41f90decd650d64736f6c63430008110033",
  "linkReferences": {},
  "deployedLinkReferences": {}
}